:020000040800F2
:1000000050DC002045010008BB260008150200084E
:10001000B9260008C90A0008B52A00080000000037
:100020000000000000000000000000005701000870
:10003000CB0A000800000000970100080127000813
:100040005F0100085F0100085F0100085F01000810
:100050005F0100085F0100085F0100085F01000800
:100060005F0100085F0100085F0100085F010008F0
:100070005F0100085F0100085F0100085F010008E0
:100080005F0100085F0100085F0100085F010008D0
:100090005F0100085F0100085F0100085F010008C0
:1000A0005F0100085F0100085F0100085F010008B0
:1000B0005F0100085F0100085F0100085F010008A0
:1000C0005F0100085F0100085F0100085F01000890
:1000D0005F0100084D2A00085F0100085F01000869
:1000E0005F0100085F0100085F0100085F01000870
:1000F0005F0100085F0100085F0100085F01000860
:100100005F0100085F0100085F0100085F0100084F
:100110005F0100085F0100085F0100085F0100083F
:100120005F0100085F0100085F0100085F0100082F
:10013000DFF80CD000F01CFC00480047EB09000879
:1001400050DC00200648804706480047FEE7FEE7EF
:10015000FEE7FEE7FEE7FEE7FEE7FEE7FEE7FEE777
:10016000FD27000831010008EFF3108072B67047D8
:1001700080F310887047344A1368012B04D04FF085
:1001800001031360314A1060314A116031484FF069
:10019000805101607047EFF3108272B62A480168FF
:1001A00091B14FF0000101602848016829B1EFF3D7
:1001B000098121E9F00F0068016025490968096893
:1001C000B1E8F00F81F3098882F310884EF0040E35
:1001D00070471F4908601D494FF0000008601A4928
:1001E0004FF0010008601C481C49D0F8002041EA8B
:1001F0000201016017484FF0805101601848006803
:10020000006880F3088861B662B6BFF34F8FBFF312
:100210006F8F70471EF0040F0CBFEFF30880EFF3F1
:10022000098020E9F00F40F804ED1EF0040F0CBF28
:1002300080F3088880F3098800B528F0B7F95DF8E5
:1002400004EB4EF0040E7047BC000020B400002008
:10025000B800002004ED00E020ED00E00000FFFF0A
:1002600008ED00E02DE9F05F0546002092469B4630
:1002700088460646814640241BE0284641464746BC
:10028000224600F051F853465A46C01A914110D305
:1002900011461846224600F085FA2D1A67EB010830
:1002A0004F4622460120002100F07CFA17EB00099E
:1002B0004E41201EA4F10104DFDC484631462A46A7
:1002C0004346BDE8F09F2DE9F0410024061B25467A
:1002D00071F1000605DA01240027D0EB070067EB77
:1002E0000101161E73F1000605DA0027D2EB0702A2
:1002F000012567EB0303FFF7B5FF86460E46174659
:100300009C46AC4204D00025D0EB050E65EB0106FF
:1003100024B10020D2EB000760EB030C704631469D
:100320003A466346BDE8F081202A04DB203A21FAF0
:1003300002F00021704721FA02F3D040C2F12002FE
:10034000914008431946704740EA01039B0703D0D8
:1003500009E008C9121F08C0042AFAD203E011F804
:10036000013B00F8013B521EF9D27047D2B201E0C6
:1003700000F8012B491EFBD270470022F6E710B5AA
:1003800013460A4604461946FFF7F0FF204610BD03
:100390002DE9FE4F804681EA0300C00F0C46009015
:1003A00021F0004123F00045B8EB0200A94105D23D
:1003B0004046214690461C460B46024623F000402C
:1003C000104347D0270DC7F30A00C3F30A51029028
:1003D000401A019040286BDAC3F3130040F4801BED
:1003E0000098924620B10023D2EB030A63EB0B0B7B
:1003F00001985946C0F14002504600F0D3F9064634
:100400000D4650465946019A00F0DBF910EB080002
:100410006141002487EA115284EAE7731A4340D00D
:10042000009A62B3019A012A4FEA075215DC001BB9
:1004300061EB02014FF0004202EA0752CDE90042AF
:10044000001C41F5801132462B4600F012FA03B031
:10045000BDE8F08F40462146F9E7001B61EB020141
:10046000001C41F5801300185B412018A2F500170D
:1004700047EB030140EAD570B6196D4111E06D08F4
:100480004FEA360645EAC0754FEA0752001B61EB9A
:100490000201001C41F5801149084FEA30000019A3
:1004A000514132462B4603B0BDE8F04F00F0D2B9BF
:1004B0000098012240000023D0EB020263EBE073BE
:1004C000009821464FEAE074B8EB000061EB0401AC
:1004D000E9E783F000435BE781F0004158E72DE94D
:1004E000FE4F81EA030404F0004421F0004100942F
:1004F0004FF0000B23F0004350EA01045ED052EAB3
:1005000003045BD0C3F30A54C1F30A552C44A4F28C
:10051000F3340194A0FB0254C1F3130141F48011A0
:10052000C3F3130343F4801301FB024400FB034EA7
:10053000840A970A44EA815447EA8357A4FB076870
:1005400002958D0A05FB07854FEA932C04FB0C549A
:100550002705029D4FEA065847EA1637B5EB08050E
:100560006EEB070C870E920E47EA811742EA831260
:10057000A7FB0201B6EB0B0164EB00042B0D43EA71
:100580000C335E1844EB1C50DA465146E7FB02017F
:10059000C5F313044FEA0B3343EA14534FEA043212
:1005A000019C43EA0603A4F10C040294009CCDE9EB
:1005B00000B400F05EF903B0BDE8F08F0020014602
:1005C000F9E72DE9F04D81EA030404F0004B21F036
:1005D000004514464FF0000A23F0004150EA05029E
:1005E00020D054EA01021DD0C5F30A570246C5F3D4
:1005F0001303C1F31300C1F30A5640F4801543F40A
:100600008013A7EB0608101BD64608F2FD3873EBE3
:10061000050002D308F1010801E092185B41B8F12E
:10062000000F03DA00200146BDE8F08D00204FF4F2
:100630008011064684460EE0171B73EB050705D3B1
:10064000121B63EB050306434CEA010C49084FEA11
:10065000300092185B4150EA0107EDD152EA0300E5
:1006600012D082EA040083EA0501084305D0101B7A
:10067000AB4106D20122002306E000224FF00043E6
:1006800002E06FF0010253101AEB06004CEB085128
:1006900010EB0A0041EB0B01BDE8F04D00F0DAB8B9
:1006A0000EB5C10F80EAE0700844CA07002140F28D
:1006B00033438DE80E000A460B4600F0DAF803B02B
:1006C00000BD0EB540F2334102910021CDE9001189
:1006D0000A460B4600F0CDF803B000BD70B5C1F37B
:1006E0000A5201F000450024C1F3130140F2FF3328
:1006F00041F480119A4201DA002070BD40F2334388
:100700009A42A2F2334203DC5242FFF70DFE00E0B0
:1007100090402C43F1D0404270BD00F0004230F0D8
:1007200000400AD0C10D01F56071C0F3160042EA25
:100730000151C2084007114370470020014670472D
:1007400001F0004330B421F0004150EA010206D02C
:100750000A0DA2F56072C1F31301002A02DC30BC5D
:1007600000207047440F44EAC104C100E01830BCC7
:1007700000EBC25000F037B830B50B460146002000
:100780002022012409E021FA02F59D4205D303FA53
:1007900002F5491B04FA02F52844151EA2F10102D4
:1007A000F1DC30BD202A04DB203A00FA02F10020FF
:1007B00070479140C2F1200320FA03F3194390409F
:1007C0007047202A06DBCB17203A41FA02F043EAB1
:1007D000E07306E041FA02F3D040C2F120029140FA
:1007E0000843194670470029A8BF7047401C4900BC
:1007F00008BF20F00100704710B4B0FA80FC00FA86
:100800000CF050EA010404BF10BC704749B1CCF1B0
:10081000200421FA04F411FA0CF118BF012121433C
:100820000843A3EB0C01CB1D4FEA00614FEA1020F7
:1008300042BF002010BC704700EBC3501044002999
:10084000A4BF10BC7047401C490008BF20F0010045
:1008500010BC704710B5141E73F1000408DA401C78
:1008600041F1000192185B411A4301D120F00100CF
:1008700010BD2DE9F04D92469B4611B1B1FA81F2BF
:1008800002E0B0FA80F220329046FFF78BFF044678
:100890000F4640EA0A0041EA0B0153465A46084314
:1008A00013D0114653EA010019D0C8F14002504656
:1008B000FFF73AFD05460E46504659464246FFF7B9
:1008C00071FF084305D0012004E020463946BDE809
:1008D000F08D0020054346EAE0762C4337430A9822
:1008E0006305E40AA0EB08000022FD0A44EA47542D
:1008F0000A3002D500200146E9E7010510196941D7
:10090000DDE9084500196941BDE8F04DA2E7C1F3F2
:100910000A52C1F3130140F2FF3341F480119A42AD
:1009200002DA00200146704740F233439A42A2F2B5
:10093000334202DC5242FFF7F7BCFFF733BF00003F
:1009400030B5041E71F1000404DB4FF00044404256
:1009500064EB0101141E73F1000405DB1C464FF02B
:100960000043524263EB0403994208BF904230BDFA
:10097000064C074D06E0E06840F0010394E80700EC
:1009800098471034AC42F6D3FFF7D6FB64960408C0
:100990008496040870B58C1810F8015B15F00703F5
:1009A00001D110F8013B2A1106D110F8012B03E008
:1009B00010F8016B01F8016B5B1EF9D12B0705D410
:1009C0000023521E0DD401F8013BFAE710F8013B59
:1009D000CB1A921C03E013F8015B01F8015B521E75
:1009E000F9D5A142D8D3002070BD10B528F002FE81
:1009F000002010BD70B5044600688168C943C9076E
:100A000017D1816821F00101816000F0EFFC0546FB
:100A10000AE000BF00F0EAFC401B022804D920686D
:100A20008068C043C00706D020688068C043C00704
:100A3000F0D0002070BDA06A40F01000A062E06A13
:100A400040F00100E062012070BD0000F8B5002612
:100A50000446009600688168C943C9072DD08168A3
:100A600041F001018160164816490068B0FBF1F0C1
:100A700000E0401E00900028FBD100F0B7FC0546C6
:100A800016E000BF00F0B2FC401B022810D920681D
:100A90008068C043C0070BD0A06A40F01000A0627D
:100AA000E06A40F00100E06284F824600120F8BDB3
:100AB00020688068C043C007E4D10020F8BD000072
:100AC0002400002040420F00FEE7704772B6FEE7A8
:100AD00030B5B3F5804F05D06FF0704140F822106B
:100AE000002030BD8C690B688D6823434C68898970
:100AF000240144EA0524234343EA014150F822300B
:100B0000014C23401943E9E70000F0CF10B50A6813
:100B100050F8223023F0010340F822308C68082C72
:100B200023D000234A682243CC681C430B6922432C
:100B30001A434B690E4C1A43CB691A430B6A1A438A
:100B40004B6A1A438B6A1A43CB6A1A430B6B1A43DC
:100B50008B6913434A6B09681A4350F82130A34349
:100B6000134340F82130002010BD4023DAE7000095
:100B70007FFF0F0030B5D1E9003443EA04138C68DD
:100B80008D89240244EA054423430C8A074D00EB77
:100B9000820005EB045423430C7D6D0105EB0464D6
:100BA000896923430B434360002030BD0000F0FF00
:100BB000F8B50024009490F824202546012A12D08C
:100BC000012280F824204A681F23072A0DD20668D4
:100BD000776B521E02EB820293409F430B68934057
:100BE0001F43776319E00220F8BD06680D2A0AD278
:100BF000376BD21F02EB820293409F430B689340F6
:100C00001F43376309E0F76A0D3A02EB8202934013
:100C10009F430B6893401F43F7620A6807230668E7
:100C20000A2A0AD3F7680A3A02EB420293409F432A
:100C30008B6893401F43F76008E0376902EB42027C
:100C400093409F438B6893401F4337610A68102A83
:100C500001D0112A20D1124B02689A4217D1936811
:100C60001B0219D4936843F40003936009681029A8
:100C700012D10C490C4A0968B1FBF2F101EB810178
:100C8000490000E0491E00910029FBD104E0816A7F
:100C900041F020018162012480F824502046F8BDF3
:100CA000002401402400002040420F000068C06C76
:100CB000704700002DE9F04104004FF000057FD09F
:100CC000A06A002628B9E66284F82460204600F075
:100CD00081F82046FFF78EFEA16AC90600D420B134
:100CE000A06A40F01000A0626AE0A16A21F4885175
:100CF00041F00201A162334923688B42E16904D1CA
:100D0000B1F5402F01D14FF40021277B4FF4807CB7
:100D100041EA470261680A43A168614508D0012998
:100D200006D0002194F814E0BEF1010F02D00AE0D1
:100D30006146F7E7C7B1A76A47F02007A762E76AED
:100D400047F00107E7625F6827F469470F435F6078
:100D5000236899681C4F394011439960A168614527
:100D60000BD0012909D00CE0DFF860E0A7690EEB99
:100D700047370F4347F40061E5E7218A0D05A5F5E4
:100D800080152168CB6A23F470032B43CB62216862
:100D900089680F4B1940914208D1E662A16A21F09F
:100DA000020141F00101A162BDE8F081A06A20F0DA
:100DB000020040F01000A062E06A40F00100E06232
:100DC0000120F1E7003C0140FDF7E1FF00E0FFFFFB
:100DD000FE0E1FFF08B500680649884208D1064884
:100DE000816941F400718161806900F400700090B4
:100DF00008BD000000240140001002402DE9F84326
:100E000000270D460446009700F0F0FA804620685F
:100E10008168C90508D5A06A40F02000A06284F866
:100E200024700120BDE8F8834168C90503D4C06A75
:100E300010F4700F2AD0022000F06EFB3B490968C5
:100E4000B1FBF0F62068036939490B424FEA6101B2
:100E50004FEAA1121FD1C3684FEA611C13EA0C0FBD
:100E600019D103690B4225D1C068104222D1142048
:100E700023E0681C0AD02DB100F0B8FAA0EB0800FE
:100E8000A84203D920680068800725D5206800683B
:100E90008007EED52DE003690B4202D1C1681142F3
:100EA00006D0026923490A4206D1C068084203D12C
:100EB000542002E0292000E0FC204643009816E080
:100EC000681C11D02DB100F091FAA0EB0800A842E7
:100ED0000AD90098B04207D2A06A40F00400A0628C
:100EE00084F8247003209DE70098401C0090B042D5
:100EF000E6D321686FF012000860A06A40F4007029
:100F0000A06220688068C0F3424007280CD1207B93
:100F100050B9A06A20F48070A062A06AC00403D413
:100F2000A06A40F00100A06200207BE724000020BE
:100F3000244992244992240070B5044690F8240074
:100F400001280DD0012084F824002046FFF77EFD03
:100F500002004FF0000005D084F82400104670BD58
:100F6000022070BDA16A40F20123994341F48071CF
:100F7000A1621F4D23681F49AB4218D10E6816F4B9
:100F8000702F14D0A66A46F48016A6620E68760505
:100F900005D5A66A26F4005646F48056A662A66ACF
:100FA000F6040AD5E66A26F00606E66206E0A66AB8
:100FB00026F48016A6625E68E9E7E06284F8240001
:100FC0006FF00200186020688368C3F34243072B68
:100FD00005D1A84208D1096811F4702F04D08168A6
:100FE00041F480118160B9E7816841F4A001F9E71B
:100FF000002801400424014010B590F8211000227F
:10100000022905D00421816380F82020012010BD31
:1010100001680B6823F00E030B6001680B6823F076
:1010200001030B6090F84030C46B012101FA03F317
:10103000636080F8211080F82020104610BD000069
:101040002DE9F05F90F821100024022903D004213B
:101050008163012485E001680A6822F00E020A60BB
:1010600001680A6822F001020A603F4E3E4FB21545
:10107000DFF8F4C0DFF8F090DFF8ECA0DFF8E8B0BC
:10108000DFF8E4E00168783F13011502ACF1640C6D
:10109000A9F15009AAF13C0AABF1280BAEF1140EEC
:1010A0004FF48018B14227D9B9420ED0614512D011
:1010B00049451DD0514518D0594518D0714501D129
:1010C000424615E0294EB14201D1012210E0274EDF
:1010D0001436B14201D110220AE0244E2836B14222
:1010E00006D0224A3C32914201D11A4600E02A46FB
:1010F0001E49091F0A602BE0B94213D0614517D081
:10110000494522D051451DD059451DD0714501D1C9
:1011100042461AE0B14202D14FF0807215E0134E00
:10112000B14201D1012210E0104E1436B14201D17A
:1011300010220AE00D4E2836B14206D00B4A3C324E
:10114000914201D11A4600E02A46074980394A6097
:10115000012180F82110002180F82010416B01B19D
:1011600088472046BDE8F09F800002400804024006
:1011700030B585B000200090019002900390124895
:10118000016800291ED1012101601048416941F424
:10119000807141614069022400F4807004904FF630
:1011A0008070CDE90004032569460395084800F0E6
:1011B00013F84CF6B370CDE9000469460395054871
:1011C00000F00AF805B030BD100000200010024009
:1011D00000180140001401402DE9F84FDFF8C891D4
:1011E0000024A9F1040B23460F2709F1040AABF1EF
:1011F000040ED1E00125A54006EA0502AA4276D1F7
:10120000DFF8A8C14E68A6EB0C0866452BD00DDCB4
:10121000032E34D005DC36B3012E19D0022E2FD187
:101220001BE0112E16D0122E2AD119E0B8F5881F16
:1012300019D006DCB8F5803F15D0B8F5801F1FD156
:1012400011E0B8F5001F0ED0B8F5041F18D10AE060
:10125000CB6815E0CB681B1D12E0CB6808330FE0AC
:10126000CB680C330CE08B682BB1012B4FF00803DB
:1012700003D0456104E0042302E0056100E000239F
:10128000FF2A01D8064601E000F104064FEA840572
:1012900001D9A5F12005D6F8008007FA05FC28EA57
:1012A0000C0803FA05F548EA0508C6F800804D6801
:1012B000ED0070D53E4DAE6946F00106AE61AD69F8
:1012C00024F0030605F0010500953A4D06EB050CE8
:1012D000DCF80850A607360F07FA06F825EA0805D5
:1012E000DFF8D480404503D14FF0000825E052E0FC
:1012F000DFF8C880404502D14FF001081DE0DFF85B
:10130000C080404502D14FF0020816E0DFF8B480FB
:10131000404502D14FF003080FE0DFF8AC804045B4
:1013200002D14FF0040808E0DFF8A080404502D168
:101330004FF0050801E04FF0060808FA06F848EA01
:101340000508CCF808804D68D9F80060ED024D46DC
:1013500001D5164300E096432E604D68DAF8006030
:10136000AD02554601D5164300E096432E604D6808
:10137000DBF80060AD035D4601D5164300E09643FF
:101380002E604D68DEF80060ED03754601D516430A
:1013900000E096432E60641C0A681646E2407FF423
:1013A00029AFBDE8F88F00000804014000001110CB
:1013B000001002400000014000080140000C014004
:1013C000001001400014014000180140001C0140C1
:1013D000C26821EA02030A4043EA02410161704700
:1013E0000AB1016170470904FBE700000148806809
:1013F0007047000018000020074810B5016841F050
:1014000010010160032000F075F8002000F006F8DC
:1014100000F024F8002010BD0020024070B50D4DF2
:1014200004464FF47A712878B1FBF0F00A49096854
:10143000B1FBF0F000F0E8FB48B9102C07D2002215
:101440002146501E00F036F800206C6070BD01206F
:1014500070BD000018000020240000200C4808B5D2
:10146000816941F001018161816901F0010100910F
:10147000C16941F08051C161C06900F080500090A5
:101480000448416821F0E06141F00071416008BD0D
:101490000010024000000140002809DB00F01F029C
:1014A000012191404009800000F1E020C0F80011C6
:1014B00070470000F0B40E4B1B680C46C3F30223C8
:1014C000C3F10705042D00D90425191D072901D2F0
:1014D000002300E0DB1E012606FA05F1491E21402B
:1014E00099409E40761E16403143F0BC01F0F8BA98
:1014F0000CED00E0064900F0070208684FF6FF0314
:10150000184040EA0220034A104308607047000078
:101510000CED00E00000FA0510B501460020284C53
:1015200004292FD00BDC012930D0022929D100F069
:1015300071F96168C1F38131491C49001FE0082934
:1015400020D010291DD161682268D20119D51D480B
:10155000C1F38342C903805C0AD56168194AC1F3AB
:101560004041921E515C184AB2FBF1F1484301E040
:10157000164948436168490203D440000321B0FB87
:10158000F1F010BDBDE8104000F054B9226AC2F37A
:101590000121012903D1920701D5C80310BD0229F9
:1015A00005D1626A920702D549F6404010BD032971
:1015B000FCD121688903F9D54FF2244010BD000009
:1015C0000010024086FD020800127A0000093D006A
:1015D0002DE9F84305460078354CC00754D0E06942
:1015E0000026C00008D4E06940F08050E061E06966
:1015F000012600F0805000902E480168C90512D4E1
:101600000168804641F480710160FFF7EFFE0746F4
:1016100005E000BFFFF7EAFEC01B642823D8D8F816
:101620000000C005F6D5206A10F4407021D0A988CA
:1016300001F4407181421CD0206A1F49012220F42C
:1016400040700A6000220A602062C00711D0FFF7D4
:10165000CDFE074641F2883808E000BFFFF7C6FE1E
:10166000C11B414502D90320BDE8F883206A8007E9
:10167000F4D5206A696820F44070084320621EB1E6
:10168000E06920F08050E0612878800705D5606827
:10169000A96820F44040084360602878C00605D55A
:1016A0006068696920F48000084360600020DBE71F
:1016B0000010024000700040400442422DE9F04713
:1016C0000F46050061D0434E306800F00700B84275
:1016D00009D2306820F0070038433060306800F0ED
:1016E0000700B84251D128683B4C810712D540070A
:1016F00003D5606840F4E06060602878000703D597
:10170000606840F4605060606068A96820F0F00094
:10171000084360602878C00728D06868012810D086
:101720002168022810D0890700292EDA616821F08B
:10173000030101436160FFF759FE804641F2883999
:101740000DE021688903EFE78901EDE7FFF74EFE21
:10175000A0EB0801494502D90320BDE8F087606885
:10176000696800F00C00B0EB810FEFD1306800F039
:101770000700B8420BD9306820F0070038433060CA
:10178000306800F00700B84201D00120E5E7287872
:10179000400705D56068E96820F4E06008436060B0
:1017A0002878000706D56068296920F4605040EA6F
:1017B000C100606000F03EF86168084AC1F303119F
:1017C000515CC8400649086006480068FFF726FEDD
:1017D0000020C2E7002002400010024096FD0208EF
:1017E000240000201C000020014800687047000011
:1017F000240000200448054900684968044AC1F3F0
:101800000221515CC84070472400002000100240B3
:10181000A6FD02080448054900684968044AC1F366
:10182000C221515CC84070472400002000100240D3
:10183000A6FD02080E4A51680E4801F00C03042B65
:1018400011D0082B0FD10C48C1F38343C903C05CEE
:101850000AD55168084AC1F34041921E515C054ABD
:101860005043B0FBF1F07047044948437047000013
:101870000010024000127A0074FD020800093D00C9
:101880002DE9F84F040070D02078C04DC00749D032
:101890006868C0F38100012807D06868C0F3810040
:1018A000022809D16868C00306D52868800339D5A5
:1018B00060680028E7D035E06068B0F5803F0BD065
:1018C00010B1B0F5A02F11D0286820F48030286026
:1018D000286820F4802002E0286840F480302860E6
:1018E000606890B1FFF782FD06460AE0286840F480
:1018F00080202860F0E700BFFFF778FD801B642898
:1019000073D828688003F7D50CE0FFF76FFD064613
:1019100005E000BFFFF76AFD801B6428F0D8286847
:101920008003F7D420789A4E80074FF001094FF0DA
:10193000000839D5686810F00C0F07D06868C0F34C
:101940008100022809D16868C00306D4286880078E
:1019500014D52069012808D110E02069B0B1C6F87B
:101960000090FFF743FD074605E00AE1FFF73EFD63
:10197000C01B0228C4D828688007F7D52868616989
:1019800020F0F80040EAC10028600DE0C6F80080B1
:10199000FFF72CFD074604E0FFF728FDC01B0228D7
:1019A00023D828688007F7D4207800072CD57948F9
:1019B000A169D9B1C0F80090FFF718FD074604E00F
:1019C000FFF714FDC01B02280FD8686A8007F7D5FF
:1019D00071484FF4FA510068B0FBF1F0009000BF7D
:1019E0000098411E0091FAD20EE080E0C0F800801D
:1019F000FFF7FCFC074604E0FFF7F8FCC01B0228D9
:101A000075D8686A8007F7D42078400760D5E86900
:101A10000027C00008D4E86940F08050E861E86918
:101A2000012700F0805000905C480168C90513D47C
:101A30000168834641F480710160FFF7D7FC82465C
:101A400006E000BFFFF7D2FCA0EB0A0064284ED8E6
:101A5000DBF80000C005F5D5E06801280AD008B120
:101A6000052813D0286A20F001002862286A20F097
:101A7000040002E0286A40F001002862E06841F2B8
:101A8000883B98B1FFF7B2FC82460BE0286A40F031
:101A900004002862EEE700BFFFF7A8FCA0EB0A01F4
:101AA00059455AD8286A8007F6D50CE0FFF79EFC06
:101AB000824605E0FFF79AFCA0EB0A0159454CD895
:101AC000286A8007F6D41FB1E86920F08050E861E9
:101AD000E06988B36968C1F38101022944D0022812
:101AE000C6F8608004D0FFF781FC044638E034E09B
:101AF000FFF77CFC074604E0FFF778FCC01B0228D8
:101B00002BD828688001F7D4206AB0F5803F05D132
:101B10006868A16820F4003008436860D4E90801CF
:101B20000843696821F4741108436860C6F860903E
:101B3000FFF75CFC044606E025E000BFFFF756FC1B
:101B4000001B022809D828688001F7D51BE000BFD8
:101B5000FFF74CFC001B022802D90320BDE8F88FD8
:101B600028688001F4D40EE00128F7D06868226A62
:101B700000F48031914204D1616A00F4701088420F
:101B800001D00120EAE70020E8E700000010024051
:101B900000004242800442422400002000700040C5
:101BA00070B515460E46040007D0A069B0F5807FD9
:101BB00003D094F8410010B107E0012070BD00206F
:101BC00084F84000204600F01DF804F10801206868
:101BD000FEF79CFF3146A2682068FEF7CBFFD4E9F0
:101BE00001022946236BFEF773FFA168206850F8B5
:101BF000212042F0010240F82120012084F8410018
:101C0000002070BDFFF7B4BA10B5401EB0F1807F60
:101C100001D3012010BD4FF0E02460610F21601757
:101C200000F05EFF0020A06107202061002010BDB1
:101C300070477047F8B5016804460868CA684B6980
:101C400010F00F0F4FF0000559D003F0010602F419
:101C50009077374365D0C10705D0D10503D5616CB6
:101C600041F001016164410705D5D90703D0616CDA
:101C700041F002016164810705D5D90703D0616C89
:101C800041F004016164010707D502F020013143EE
:101C900003D0616C41F008016164616C00293AD0A5
:101CA000800604D5900602D5204600F0D7FD2068B6
:101CB0004069616CC0F38010090700D460B320460E
:101CC00000F0A5FD20684069400621D52068143049
:101CD00050E8001F21F0400140E80012002AF5D131
:101CE000E06BA8B16D494163E06BFFF7A9F90028EB
:101CF00011D0E06B416B01B0BDE8F04008478306AE
:101D00000FD593060DD52046BDE8F84000F0A6BDDE
:101D10002046FFF78EFFF8BD2046FFF78AFF656477
:101D2000F8BD266B2023012E7CD1C6067AD5D606B7
:101D300078D508684868009048694FF00206400668
:101D400040D5E16B086840680004000CE8D0A28D23
:101D50008242E5D9E085886920282DD020680C30A2
:101D600050E8001F21F4807140E80012002AF5D1EC
:101D70002068143050E8001F21F0010140E80012F3
:101D8000002AF5D12068143050E8001F21F04001EE
:101D900040E80012002AF5D184F84230256320681B
:101DA0000C3050E8001F21F0100140E80012002A1A
:101DB000F5D1E06BFFF720F96663A08DE18D401A45
:101DC00081B22AE0A08DE18D401A81B2E08D002819
:101DD000A6D00029A4D022680C3252E8000F20F4CB
:101DE000907042E80007002FF5D12068143050E8C9
:101DF000002F22F0010240E80027002FF5D184F8DF
:101E00004230256320680C3050E8002F22F0100289
:101E100040E80023002BF5D166632046FFF708FF5A
:101E2000F8BDFFE705062BD5150629D594F8410026
:101E30002128F5D1A068B0F5805F01D12069B0B14B
:101E4000206A411C2162216800784860E08C401EB5
:101E50000004000CE084E3D12068C16821F0800117
:101E6000C1602068C16841F04001C160D8E7206AC4
:101E70000088C0F308004860206A801C2062E5E703
:101E80004006CDD55006CBD5CA68204622F0400288
:101E9000CA6084F8413000F01EF9C1E7FF2700084E
:101EA00070B5040004D094F84100002510B106E09C
:101EB000012070BD84F84050204600F023F8242013
:101EC00084F841002068C16821F40051C1602046B7
:101ED00000F026FD2068016921F49041016120682D
:101EE000416921F02A0141612068C16841F4005133
:101EF000C1606564202084F8410084F84200656375
:101F0000002070BD30B585B0002400940194029487
:101F100003940068184988422CD11848816941F41B
:101F200080418161816901F480410491816941F0BE
:101F3000040181618069124D00F0040004904FF4A7
:101F4000007000900220019003200390694628460B
:101F5000FFF742F92815CDE90004694628460294A6
:101F6000FFF73AF9002211462520FFF7A3FA2520B2
:101F7000FFF792FA05B030BD003801400010024072
:101F8000000801402DE9F84F044690F842009A46B7
:101F900016460D46202802D00220BDE8F88FB5B1C4
:101FA000AEB100206064222184F842102063FFF764
:101FB0001DFAA6858146E685A0684FF48058202743
:101FC000404501D1206920B12E46002529E001209D
:101FD000E3E7002625E04B46002220212046CDF8ED
:101FE00000A000F0F9FC18B184F842700320D4E797
:101FF00026B1A06840451AD038B108E02068406892
:10200000C0F3080025F8020B08E0206978B12068C9
:10201000406800F07F0000BF06F8010BE08D401E15
:10202000E085E08D0028D6D184F84270B5E72068BD
:102030004068F1E770472DE9F843044690F8410005
:10204000984616460D46202802D00220BDE8F883A7
:1020500085B17EB100206064212084F84100FFF743
:10206000C5F9A6848146E684A0682027B0F5805F84
:1020700002D003E00120E9E7206910B12E460025D7
:102080000EE000260CE08021204600F0A5FCA8B957
:10209000C6B116F8010B21684860E08C401EE08450
:1020A000E08C4B464FF00002CDF800800028EAD1CA
:1020B0004FF04001204600F08FFC40B184F84170A1
:1020C0000320C3E735F8020BC0F30800E3E784F808
:1020D00041700020BAE7704710B54FF0C0410420AE
:1020E0000880052026F048FF0B48018801880188F8
:1020F0004FF6FF72008802EA01210843A0F5134160
:10210000413905D0A0F50541523903D0002010BD5A
:10211000012010BD022010BD000002602DE9F05F1B
:1021200000224FF48051B948FFF75AF9642026F095
:1021300023FFB74C002202212046FFF751F964200B
:1021400026F01AFF012202212046FFF749F97820E4
:1021500026F012FFFFF7C0FFAE494870B8B1002269
:10216000A404AD49C1233027032512264FF064098A
:102170004FF0CF084FF0ED0C4FF0810A4FF0E80E12
:102180004FF0850B012803D002287CD1A1E0FEE7A7
:10219000A4F800800A800B800F80A4F800C0A1F88A
:1021A00000900D800E80A1F800A0A4F800E0A1F836
:1021B00000B04FF01008A1F800807A200880CB20F2
:1021C0002080392008802C2008800A803420088054
:1021D00002200880F720208020200880EA2020802C
:1021E0000A800A80C02020801B20088023800E8067
:1021F000C52020803F2008803C200880C720208008
:10220000912008804FF0360EA4F800E04FF0480B04
:10221000A1F800B03A20208055200880B12020800D
:102220000A8018200880B62020800A200880A2207A
:102230000880F22020800A8026202080012008804B
:10224000E02020800F20088031260E802B270F8071
:102250004FF00C0AA1F800A00E270F804FF00809DC
:10226000A1F800904FF04E0CA1F800C04FF0F10C17
:10227000A1F800C04FF0370CA1F800C04FF0070CD8
:10228000A1F800C000E0B8E0A1F800800D800F8048
:102290004FF00908A1F800800A804FF0E108A4F887
:1022A00000800A800F8014220A800D8011220A808B
:1022B000A1F800C00E800B80A1F800B0A1F800903A
:1022C0000880A1F800A00E80A1F800E00880292075
:1022D00092E0A4F800800A800B800F80A4F800C070
:1022E000A1F800900D800E80A1F800A0A4F800E0F5
:1022F000A1F800B01020088078200880CB20208032
:10230000392008804FF02C0AA1F800A00A80342060
:10231000088002200880F725258020250D80EA25E9
:1023200025800A800A80C025258021250D802380F4
:102330004FF01109A1F80090C52323804FF02D081C
:10234000A1F8008033230B80362323800A803A23B0
:10235000238055230B80B12323800A8017230B8011
:10236000B62525800A250D80A2250D80F62525801D
:1023700001250D800F80F22727800A8026272780DD
:102380000D80E0252580D0270F800A8008804FF03F
:10239000070CA1F800C00B250D801A250D803125F2
:1023A0000D8054250D8040250D8029250D800E803F
:1023B0000E800E800B80E12323800F800A8008802E
:1023C000A1F800C00520088025200880A1F8008021
:1023D00044200880452008801C20088018220A809C
:1023E00016220A8008801D200880A4F800909620FC
:1023F00026F0C2FD258050462080BDE8F05FEF2228
:10240000002140F23F13084600F008B800140140D4
:1024100000180140000000200000026070B54FF07D
:10242000C0452A242C800B4C060A2680C0B220808E
:10243000100A2080D0B220802B202880080A20801B
:10244000C8B22080180A2080D8B220802C20288092
:1024500070BD0000000002603EB5002411480094E9
:10246000019402940E49846001600473047501258F
:1024700005614FF460214460C161FEF71BFC08B1A7
:10248000FEF724FB1020CDE90005694602940548BB
:10249000FEF78EFB002801D0FEF718FB3EBD0000C2
:1024A00000240140D015002000B587B01C216846EB
:1024B000FDF763FF17484FF02041102201601649D5
:1024C000416000218160C160C0E904128161C16185
:1024D00013020162C0E90913C162016341638163B0
:1024E0000F20FF230090CDE90103CDE90302112065
:1024F000CDE90501002269460648FFF751FB08B106
:10250000FEF7E4FA0548C16941F48061C16107B092
:1025100000BD000000160020040100A000000140E2
:102520002DE9F04F85B000264F480096019602969F
:102530000396816941F040018161816901F04001A8
:102540000491816941F010018161816901F01001FC
:102550000491816941F004018161816901F0040104
:102560000491816941F020018161816901F02001BC
:102570000491816941F0080181618069DFF8EC8094
:1025800000F008000490012217214046FEF728FFC2
:10259000DFF8DCA001224FF470515046FEF720FF17
:1025A000DFF8D0B0012243F24C015846FEF718FF85
:1025B0000122DFF8C490D70339464846FEF710FFE2
:1025C000012238212D48FEF70BFF01241720CDE909
:1025D0000004032569464046CDE90245FEF7FCFDAF
:1025E0004FF45050CDE9000469465046CDE902450C
:1025F000FEF7F2FD0C20CDE900066946484602963A
:10260000FEF7EAFD43F24800CDE90004694658466A
:10261000CDE90245FEF7E0FDCDE900746946484684
:10262000CDE90245FEF7D8FDE0021126CDE900060E
:1026300069465046CDE90245FEF7CEFD0420CDE9BE
:10264000000669465846CDE90245FEF7C5FD38202B
:10265000CDE9000469460948CDE90245FEF7BCFD15
:1026600005B0BDE8F08F00000010024000180140E6
:10267000001001400014014000080140000C01401E
:102680000C4810B50A4901604FF4E1314160002166
:1026900081600C22C160C0E904128161C161FFF751
:1026A000FFFB002803D0BDE81040FEF70FBA10BDB5
:1026B0000038014048160020FEE7FEE710B50C4B3D
:1026C0000C4A0D490D482CF055F90C482CF041FDF1
:1026D00000210A482CF04DFD08482CF028F84FF452
:1026E0007A7026F049FCBDE8104004482CF012BC7A
:1026F0001DEE020815F20208D85703083C15002009
:1027000010B526F069F826F011FD012021F03AFA03
:10271000BDE8104026F07AB830B595B0282168465B
:10272000FDF72BFE14210AA8FDF727FE18210FA89C
:10273000FDF723FE01210804CDE9001000250295D4
:1027400002240491CDE907404FF4E0100990684657
:10275000FFF796F808B172B6FEE70AA90F2081E8E4
:1027600031004FF48060CDE90D0502210AA8FEF783
:10277000A5FF08B172B6FEE74FF4004011900F9428
:102780000FA8FEF725FF002801D072B6FEE715B0AE
:1027900030BD0000144910B54868144A10F00C030D
:1027A000134803D0042B01D0082B09D002604968DC
:1027B000104AC1F30311515C0268CA40026010BDA7
:1027C0004A684B6802F470124FF0020413F4803F21
:1027D00004EB924202D04B689B0301D5064B00E00C
:1027E000024B5A43E2E700000010024000127A0058
:1027F0002400002096FD020800093D00704710B536
:10280000406A0021C185C184FFF713FA10BD016839
:102810000C3151E8002F22F4907241E80023002B84
:10282000F5D10168143151E8002F22F0010241E88E
:102830000023002BF5D1016B012909D101680C316E
:1028400051E8002F22F0100241E80023002BF5D1BF
:10285000202180F8421000210163704708B590F8EC
:102860004210222901D0022008BD82684FF4805313
:102870009A4201D1016921B1816A9A421BD04AB1C1
:102880000AE00268816A5268C2F308020A80816A1B
:10289000891C08E0026972B10268526802F07F0286
:1028A0000A70816A491C8162C18D491E0904090CA4
:1028B000C18503D01BE002685268F1E70168CA686D
:1028C00022F02002CA600168CA6822F48072CA60DD
:1028D00001684A6922F001024A61202180F8421011
:1028E00000214163026B012A03D0FFF7A3FB002004
:1028F00008BD016301680C3151E8002F22F010027D
:1029000041E80023002BF5D101680A68D20602D500
:102910000A6849680091818DFFF78AF9E7E70000AE
:1029200070B5044600680169E26821F44051114322
:1029300001612169A0680843616908432168CA6888
:1029400041F20C639A430243CA6020684169A2695C
:1029500021F44071114341611E492068884202D12F
:10296000FEF758FF01E0FEF745FF00EBC00101EB69
:102970000012606864218000B2FBF0F3B3FBF1F356
:102980006FF018067343B2FBF0F5B2FBF0F605EBFF
:102990008305322303EB0515B5FBF1F5B6FBF1F624
:1029A00005F0F00505EB0615B2FBF0F6B2FBF0F012
:1029B000B0FBF1F06FF01802504306EB800003EB20
:1029C0000010B0FBF1F0216800F00F00284488608F
:1029D00070BD0000003801402DE9F84398461746C5
:1029E0000D460446089E24E0701C22D0FEF7FEFC33
:1029F000A0EB0800B0421AD8CEB12068C1684907E0
:102A000017D5802D15D0402D13D00168C943090773
:102A10000FD401680025406800902046FFF7F7FEBC
:102A20000820606484F840500120BDE8F88303204A
:102A3000FBE72068006835EA000004D00020B842B7
:102A4000D2D00020F1E70120F9E70000F8B5154DDC
:102A5000286800684FF00006C043800612D4134C6B
:102A600011490023207801220144401C207028468F
:102A7000FFF788FA2078642800D3267029686FF061
:102A80002000086028680168C943C90605D40168A8
:102A900040680749009001200870BDE8F8400148EF
:102AA000FFF7C8B848160020D814002008000020FE
:102AB00007000020FEE700000FB4084B10B504A982
:102AC00002AA039800F070FA044602A9002000F060
:102AD00015FE204610BC5DF814FB0000FD36000812
:102AE0000907090E002804DB00F1E02080F800143B
:102AF000704700F00F0000F1E02080F8141D7047CF
:102B0000002806D00E4910F0FF0F03D0C0B2085CB9
:102B1000401C704710F47F4F04D0C0F30720085CBE
:102B20000930704710F47F0F04D0C0F30740085CF1
:102B30001130704701EB10600078193070470000C9
:102B400074B8030802E008C8121F08C1002AFAD1AD
:102B500070477047002001E001C1121F002AFBD11D
:102B6000704770B5044600256FF02F0608E0206816
:102B7000411C2160007805EB850106EB41014518F9
:102B80002068007800F0EEF80028F0D1284670BDEB
:102B900070B514460D461BB9114611F085F8034671
:102BA00003FB05F0142C0ED0E11F03290AD8072CD3
:102BB0000DD0082C0DD0092C0DD00A2C0DD00021E1
:102BC00000EB810070BD590801FB050070BD0221BA
:102BD000F6E70421F4E71021F2E74FF48071EFE704
:102BE0002DE9FF5F82B00021DDE90430020DDDF840
:102BF00040B0034318D044F61050A2F2FF324243D3
:102C00001514119801281FD0A5EB0B00401C5FEA9A
:102C1000000A4FF000064E4FDFF83891B04650469C
:102C200015D5CAF1000413E0119801244AA3012824
:102C300001D16FEA0B010298119AC0E90031C0E995
:102C4000024206B0BDE8F09FCBF10000DFE704468A
:102C50000021404A491842EB0450CDE9001012E02F
:102C6000E00707D032463B4640464946FDF737FC71
:102C70008046894632463B4610461946FDF72FFCF2
:102C800006460F466410002CEAD1DDE90401DDE9B7
:102C90000023BAF1000F06DAFDF721FC42464B464D
:102CA000FDF71DFC05E0FDF78CFC42464B46FDF7A9
:102CB00088FC04460E460022284BFDF741FE03D84F
:102CC0004FF0FF30014607E00022254B20463146F9
:102CD000FDF75EFBFDF71BFE102409E0002C0ADB6C
:102CE0000A220023FDF7BEFA039B30321A55641EF8
:102CF00050EA0102F2D1641C039AC4F11103144496
:102D0000119A012A03D0012208430DD10AE0084399
:102D100004D000204FF0110B119072E7A3EB0B05CC
:102D20006D1E0DE05B4504DD4FF0000205F101056D
:102D300004E003DA4FF00002A5F10105002AECD00F
:102D400002981199C0E90231C0E9004579E7000015
:102D5000000014400000F03F300000000000F0438D
:102D60000000E03F3038092801D8012070470020DA
:102D700070472DE9FC5F9B460CAB8A468146DDE936
:102D8000116093E81210DDE90F575FEA80784FF089
:102D900030031AD45EB15FEAC07808D000F00C08A6
:102DA00058EA0C0803D0761E01E00B55641CBC42A7
:102DB00004D2202CF9D301E00B55641C5FEAC078E3
:102DC00003D0B44201D2202CF6D35FEAC06825D5E7
:102DD0005FEA40580AD44CB1BC4201D0B44205D19C
:102DE000641E03D0102D03D1641E04E0102D02D008
:102DF000022D0AD00EE0850603D4202C1ED27825A1
:102E000006E0202C1AD2582502E0202C16D262258A
:102E10000D55641C202C11D20B55641C202C0DD296
:102E2000BCF1000F01D02D2306E0430701D52B2371
:102E300002E0030702D520230B55641CCDE900BA3C
:102E4000C846154681468B46AA46800714D12746B8
:102E500007E02A46DDE900316D1C2020C446E0472A
:102E60007F1CB742F5D307E02A466D1C641EDDE9DE
:102E700000311BF80400C047002CF5D15FEA8970CF
:102E800006D409E02A46DDE900316D1C2020C04748
:102E9000A5EB0A00B042F5D32846BDE8FC9F2DE91A
:102EA000F04F8FB099468B46DDE91818DDE91C63B9
:102EB000DDE91A4792468646002209B923F010033D
:102EC000580507AD00D5C9B1B1FBF4F004FB1010F3
:102ED000C0B20A2801D2303009E05FEA836C02D523
:102EE0004FF0410C01E04FF0610C60440A38B1FB37
:102EF000F4F1A854521C09B1202AE5D3CDF808807A
:102F0000CDE90563CDE90052CDE903474B46524672
:102F100059467046FFF72DFF0FB0BDE8F08F2DE941
:102F2000FF4F8FB01CACDDE9239594E8030820AC7B
:102F300094E8C004002450EA010201D125F01005F4
:102F40006A050DF11C0802D550EA010217D032467D
:102F50003B46FDF787F9D2B20A2A01D2303206E0A9
:102F6000AB0601D5412300E061231A440A3A08F870
:102F70000420641C50EA010201D0202CE7D3CDE9E3
:102F80000084CDF808B0CDE90595CDE9036A0FAF0F
:102F900097E80F00FFF7EDFE13B0BDE8F08F9A42FF
:102FA00000D28854704770472DE9FF4F95B09B467B
:102FB0008946064600250FE2252877D100242746BA
:102FC000F84A0121059400E0044316F8013F203B34
:102FD00001FA03F01042F7D130782A2811D06FF0AF
:102FE0002F033078A0F13002092A16D8059A44F050
:102FF000020402EB820203EB42021044761C0590AD
:10300000EFE759F8042B0592002A03DA504244F402
:103010000054059044F00204761C30782E2816D116
:1030200016F8010F44F004042A280DD06FF02F0287
:103030003078A0F13003092B09D807EB870302EBA6
:103040004303C718761CF3E759F8047B761C3078E5
:103050006C280FD006DC4C2817D068280DD06A28C1
:1030600014D104E0742810D07A280FD10DE044F474
:1030700000140AE044F4801401E044F4401472782F
:10308000824202D104F58014761C761C30786628C2
:103090000BD013DC582877D009DC002875D04528E0
:1030A000F6D04628F4D047281AD19DE118E06328CD
:1030B00035D0642879D0652812D195E1702873D075
:1030C00008DC6728F1D069286FD06E280DD06F28F2
:1030D00006D1B5E073282CD0752875D0782874D027
:1030E0005A46179990476D1C75E1C4F302500228A7
:1030F00009D003280DD0D9F8001004280DD00D6098
:1031000009F1040967E1D9F80010EA17C1E9005292
:10311000F6E7D9F800100D80F2E70D70F0E719F826
:10312000041B8DF8001000208DF80100EA460120F4
:1031300003E059F804AB4FF0FF3061074FF0000196
:1031400002D40DE008F101018846B9420FDA80454A
:10315000F8DB1AF808100029F4D108E008F10101A1
:1031600088468142FADB1AF808100029F6D1059842
:103170005B46A0EB080721463846179A00F094FA00
:10318000284400EB080507E04DE029E10DE01AF8BE
:10319000010B5A4617999047B8F10108F7D25B46E0
:1031A00021463846179A13E142E00A220092C4F3FE
:1031B00002524FF0000A022A08D059F804CB032A21
:1031C0004FEAEC710AD00DE029E02AE009F107018D
:1031D00021F00702F2E802C1914609E00FFA8CFCE7
:1031E0004FEAEC71042A03D14FFA8CFC4FEAEC71E0
:1031F000002907DA0A460021DCF1000C61EB02012C
:103200002D2202E0220504D52B228DF80420012274
:1032100003E0E20701D02022F7E7904659E00A21B7
:1032200002E010220DE010214FF0000A00910BE0A7
:1032300010224FF0000A44F004040827009203E033
:1032400008224FF0000A0092C4F30252022A05D06D
:1032500059F804CB0021032A08D009E009F107013D
:1032600021F00702F2E802C1914605E01FFA8CFC4A
:10327000042A01D10CF0FF0C4FF00008220728D5DA
:10328000702806D0009B83F0100353EA0A0305D090
:103290000EE040228DF80420012208E05CEA0102E1
:1032A00006D030228DF804208DF8050002229046C9
:1032B000009B83F0080353EA0A030AD15CEA010287
:1032C00001D1620705D530228DF804204FF00108A6
:1032D0007F1E582804D034A003900EA802900DE061
:1032E00036A0F9E753466046009AFCF7BBFF8446D8
:1032F0000398825C0298401E029002705CEA010012
:10330000F0D1029806A9081A00F1200A600702D538
:1033100024F4803400E00127574502DDA7EB0A00C2
:1033200000E0002000EB0A01009005984144401A9B
:103330000590E00306D45B462146179A059800F0F5
:10334000B3F90544002706E001A85A46C05D179965
:1033500090476D1C7F1C4745F6DBE0030CD55B46B0
:103360002146179A059800F09FF9054404E03020A3
:103370005A46179990476D1C0099481E00900029E5
:10338000F5DC08E0029802995A460078491C02913F
:10339000179990476D1CBAF10001AAF1010AF1DCFE
:1033A00065E1000009280100303132333435363709
:1033B0003839616263646566000000003031323381
:1033C0003435363738394142434445460000000021
:1033D00000F058F90544761C307800287FF4ECADF5
:1033E00019B02846BDE8F08F620700D4062709F11E
:1033F000070222F0070CFCE80223E14603F0004834
:103400005FEA080C02D00FF2702C0DE05FEA045C5A
:1034100002D50FF2682C07E05FEAC47C02D00FF2FD
:10342000602C01E0AFF2700C4FF0FF3823F0004346
:10343000CDF850C065280CD006DC452809D04628B8
:103440001DD047283DD13DE0662818D067287ED1A1
:1034500038E00021112F01DB112000E0781CCDE9BC
:10346000000106A90EA8FFF7BBFBDDE90F010E9ACC
:1034700003910021009207F1010A04914DE04FF001
:1034800000400097CDE9011006A90EA8FFF7A8FBA0
:10349000DDE90F0203920E9B11990022DDF80CA0CA
:1034A0000093049211B9791C00EB010AB7EB0A00F2
:1034B00004D4C0F1FF3007F1010A0490AAEB070021
:1034C000019044E0012F00DA01270021112F01DDD6
:1034D000112000E03846CDE9000106A90EA8FFF74B
:1034E0007FFBDDE90F010E9A039100210491009208
:1034F000BA4621070CD40399514500DA8A46BAF13D
:10350000010F05DD009AAAF10101515C302908D0B4
:10351000B84202DA10F1040F06DA0121CDE90110F8
:1035200015E0AAF10101E9E7002805DC049901444E
:103530000491AAEB000102E0411C514500DD8A46DE
:103540000499401A401C01904FF00040029020075F
:1035500004D40198504501DBCDF8048000208DF89B
:103560004F0002980DF14F07B0F1004F25D02B20EE
:103570000E9002984FF0020800280CDA40420290A8
:103580002D200E9007E00A210298FDF7F5F8303162
:10359000029007F8011DB8F10001A8F10108F2DC62
:1035A00002980028EFD1791E0E980870307800F04C
:1035B000200040F0450007F8020D12A8C01B00F1E2
:1035C00007081498007800B1012000EB0A01019867
:1035D00001EBE07105984144401A401E0590E0035C
:1035E00006D45B462146179A059800F05DF805441D
:1035F0001498007818B15A46179990476D1CE0034B
:1036000024D55B462146179A059800F04DF80544ED
:103610001CE00498002807DBDDE90301884203DD94
:103620000098405C179901E0179930205A4690475E
:10363000049805F10105401C04900198401E01907A
:1036400004D12E205A46179990476D1CBAF10001FB
:10365000AAF1010ADDDC05E017F8010B5A461799BB
:1036600090476D1CB8F10001A8F10108F4DC5B463D
:103670002146179A0598ABE62D0000002B000000AC
:10368000200000002DE9F041044600251E461746A3
:10369000880404D405E039462020B0476D1C641E20
:1036A000F9D52846BDE8F0812DE9F0410446002512
:1036B0001E469046C80301D5302700E02027880425
:1036C00004D505E041463846B0476D1C641EF9D567
:1036D0002846BDE8F081000010B504460548806822
:1036E000FFF70EFA0449401E51F830102060A1F196
:1036F000140010BD58010020181D00200A68531C3A
:103700000B6010707047000070B50C480468FCF73F
:103710002BFD0546204625F01DFA04F1440025F056
:1037200095FD042084F83400204625F019FC284635
:10373000FCF71EFDBDE8704025F076B95C01002065
:103740002DE9FC411F460446DDE90831DDE90A6543
:10375000143040600060C4E90827C4E90A310A4611
:103760002321184625F0B0F8D4E90A014218D4E91B
:1037700008010E4B121F25F013F8E06184F8356044
:103780000020C4E90E052564206384F83400206716
:103790006067009023460190054A194604F14400F1
:1037A00025F068FD0020BDE8FC8100000937000815
:1037B000B537000870B50446FCF7D6FC05466FF037
:1037C0000100206304F1140025F05BF8204625F089
:1037D00087F92846FCF7CCFCBDE8704025F024B9F9
:1037E00010B5029C24F001044472C0E907120021C4
:1037F000C0E9093114304060006010BD143025F07C
:1038000049B870B50D46040011D08DB100F0B0FE7E
:1038100000280BD0616800690EF0B0F80646E16B35
:1038200028468847E1680844E060304670BDFEE7FE
:10383000FEE72DE9FF4114460E4605460A461F469F
:1038400021466846DDF828800CF091FD00281BD049
:10385000019861682268411A08FB01500099891A91
:103860000D18009831683844441A68460CF06DFD14
:10387000002107E0625C6B5C1A44FF2A00D9FF223A
:103880006254491C8142F5D3BDE8FF8110B50200A6
:103890004FF000000CD04B1E194200D0FEE70A4446
:1038A000521E9A43B2F5004F02D20C2A01D910469B
:1038B00010BD0C2010BD00002DE9F04F064691B060
:1038C000D6E90170804696F821B03568F0680F900F
:1038D000D6E906400E90D6E904A009900AA80FF098
:1038E00089F896F8220008B10020C3E0BAF1000F71
:1038F00005D0BBF1FD0F4FF0000065D28AE0BBF1AF
:10390000FD0F4FF0000017D21CE000260CE000BFB6
:1039100004EB460005EB46010088ADF804000AAA56
:1039200001980EF0E5FD761CBE42F1DB0F980544D0
:103930000E98044409F1010081464045E5DB11B0D1
:10394000BDE8F08F81464045F9DA002613E000BF5C
:1039500004EB46000AAA0088ADF804009DF80510A3
:1039600001FB0BF1080A8DF8050005EB46010198F3
:103970000EF0BEFD761CBE42EADB0F9805440E98A1
:10398000044409F10100DDE7002613E004EB4600E2
:103990000AAA0088ADF808009DF809001AF8061078
:1039A0004843000A8DF8090005EB460102980EF025
:1039B0009FFD761CBE42E9DB0F98099905440E98DD
:1039C0008A44044409F1010081464045DCDBB6E746
:1039D000002615E004EB46000AAA0088ADF80800AE
:1039E0009DF809001AF80610484300FB0BF0000C84
:1039F0008DF8090005EB460102980EF079FD761C62
:103A0000BE42E7DB0F98099905440E988A440444A6
:103A100009F1010081464045DADB90E700201BE018
:103A200004EB4900BAF1000F0088ADF808009DF8DA
:103A3000090023D01AF80910484300FB0BF0000CD2
:103A40008DF8090096F8222005EB49000AAB02998F
:103A500001F07AFD09F101008146B842E0DBBAF1DC
:103A6000000F01D009998A440F9805440E98044428
:103A70000398401C03904045D0DB60E700FB0BF04F
:103A8000000ADDE72DE9F04F064695B0D6E9017052
:103A9000804696F821B03568F0680E90D6E9064069
:103AA0000C90D6E904900A9096F8220020B110A854
:103AB0000EF0B4FF0020CCE0B9F1000F05D0BBF14F
:103AC000FD0F4FF0000063D286E0BBF1FD0F4FF019
:103AD000000019D21EE000BF4FF000094E460BE077
:103AE00004EB460005EB8901427814F816000EF04D
:103AF00045FE09F10109761CBE42F1DB0E98054432
:103B00000C9804440AF1010082464045E4DB15B0FC
:103B1000BDE8F08F82464045F9DA4FF000094E4685
:103B20000FE000BF04EB460005EB8901407800FB85
:103B30000BF0020A14F816000EF020FE09F101093C
:103B4000761CBE42EEDB0E9805440C9804440AF144
:103B50000100DFE74FF0000A56460FE004EB460095
:103B600019F8061040784843020A05EB8A0114F858
:103B700016000EF003FE0AF1010A761CBE42EDDBD0
:103B80000E980A9905440C98894404440BF10100ED
:103B900083464045DEDBBAE74FF0000A564611E0A7
:103BA00004EB460019F806104078484300FB0BF080
:103BB000020C05EB8A0114F816000EF0DFFD0AF185
:103BC000010A761CBE42EBDB0E980A9905440C985C
:103BD000894404440598401C05904045DCDB96E789
:103BE0000020039027E000BF14F81A100298B9F1E2
:103BF000000F61F3174061F30F2061F3070004EB3E
:103C00004A012AD0039B497819F80320514301FB4C
:103C10000BF1090C61F31F600290039896F82220C3
:103C200005EB800010AB029901F0B3FC0398401C37
:103C300003900AF101008246B842D5DBB9F1000FCA
:103C400001D00A9881440E9805440C9804440598C4
:103C5000401C05904045C3DB59E74A7802FB0BF254
:103C6000110AD7E72DE9F04F054687B0D5E901677E
:103C700090F821B000680090E8680290D5E906400D
:103C80000390D5E904900490686AC11700EB517164
:103C900021F00701A0EB010A95F8220008B10020ED
:103CA00027E1B9F1000F05D0BBF1FD0F4FF0000087
:103CB00070D2DFE0BBF1FD0F4FF000002ED233E0F9
:103CC0004FF0000845461FE008EB0A018B460098BC
:103CD00007F0D3FBC0EB00208DF8040004EB450097
:103CE00001A9427814F815000EF064FD9DF8040057
:103CF00059467F28009802D926F0E2FF01E002F041
:103D000085FE08F101086D1CB542DDDB02990098C3
:103D1000084400900398044409F101008146B84228
:103D2000CEDB07B0BDE8F08F8146B842F9DA4FF03C
:103D30000008454623E000BF08EB0A010191009806
:103D400007F09BFBC0EB00208DF8100004EB450052
:103D500004A9407800FB0BF0020A14F815000EF0DD
:103D600029FD9DF810007F28DDE9000102D926F029
:103D7000A7FF01E002F04AFE08F101086D1CB54200
:103D8000DADB02990098084400900398044409F192
:103D90000100C9E734E000BF4FF00008454623E0CA
:103DA00008EB0A010191009807F067FBC0EB0020C7
:103DB0008DF8140004EB450019F8051040784843CD
:103DC000020A14F8150005A90EF0F4FC9DF8140081
:103DD0007F28DDE9000102D926F072FF01E002F040
:103DE00015FE08F101086D1CB542D9DB0299009857
:103DF0000844009003980499044489440BF101009D
:103E00008346B842C8DB8CE74FF00008454625E002
:103E100008EB0A010191009807F02FFBC0EB00208E
:103E20008DF8140004EB450019F80510407848435C
:103E300000FB0BF0020C14F8150005A90EF0BAFCFB
:103E40009DF814007F28DDE9000102D926F038FF33
:103E500001E002F0DBFD08F101086D1CB542D7DB83
:103E60000099029808440090039804990444069825
:103E70008944401C0690B842C6DB52E700200590FA
:103E800027E000BF14F818100198B9F1000F61F392
:103E9000174061F30F2061F3070004EB48014978F4
:103EA0002BD019F80820514301FB0BF15FEA1141B7
:103EB00061F31F600190059895F8223000EB0A012C
:103EC000DDE9000201F0B5FB0598401C059008F102
:103ED00001008046B042D5DBB9F1000F01D0049952
:103EE0008944029900980844009003980444069875
:103EF000401C0690B842C1DB13E701FB0BF1090A35
:103F0000D6E700002DE9F04F064691B0D6E90170E2
:103F1000804696F821B03568F0680F90D6E90640E3
:103F20000D90D6E904900B9096F8220008B100207D
:103F3000C5E0B9F1000F05D0BBF1FD0F4FF0000057
:103F400062D285E0BBF1FD0F4FF0000018D21DE0FA
:103F50004FF000094E460BE004EB460005EB09016B
:103F6000427814F816000EF032FC09F10109761CB3
:103F7000BE42F1DB0F9805440D9804440AF101009C
:103F800082464045E4DB11B0BDE8F08F82464045F3
:103F9000F9DA4FF000094E460FE000BF04EB46008F
:103FA00005EB0901407800FB0BF0020A14F816003B
:103FB0000EF00DFC09F10109761CBE42EEDB0F98F4
:103FC00005440D9804440AF10100DFE74FF0000AB0
:103FD00056460FE004EB4600417819F806004143CD
:103FE0000A0A05EB0A0114F816000EF0F0FB0AF1BC
:103FF000010A761CBE42EDDB0F980B9905440D9823
:10400000894404440BF1010083464045DEDBBAE7F6
:104010004FF0000A564611E004EB460019F806106E
:104020004078484300FB0BF0020C05EB0A0114F842
:1040300016000EF0CCFB0AF1010A761CBE42EBDB47
:104040000F980B9905440D98894404440498401C2A
:1040500004904045DCDB96E70020039021E000BFA0
:1040600014F81A100098B9F1000F61F3174061F3CA
:104070000F2061F3070026D0039A19F8021001FB04
:104080000BF1090A61F31F600090039896F8222053
:104090002844009901F004FB0398401C03900AF1A6
:1040A00001008246B842DBDBB9F1000F01D00B986A
:1040B00081440F9805440D9804440498401C0490D2
:1040C0004045C9DB5FE76BF31F60DDE72DE9F04F8B
:1040D000804687B0D8E90170814698F821B0D8F8B9
:1040E0000040D8F80C000290D8E906500190D8E9B9
:1040F00004A0039098F8220008B100202AE1BAF148
:10410000000F05D0BBF1FD0F4FF0000066D28BE031
:10411000BBF1FD0F4FF000001AD21FE00026B046A1
:104120000EE000BF05EB480034F81610427815F891
:1041300018000EF0DBFA24F8160008F10108761CCE
:10414000BE42EFDB02980444019805440AF10100E5
:1041500082464845E2DB07B0BDE8F08F824648451D
:10416000F9DA0026B04610E005EB4800417815F872
:10417000180001FB0BF10A0A34F816100EF0B6FA1B
:1041800024F8160008F10108761CBE42ECDB029808
:104190000444019805440AF10100DFE70026B04617
:1041A00012E000BF05EB48001AF8061040784843BB
:1041B000020A34F8161015F818000EF097FA24F8D1
:1041C000160008F10108761CBE42EBDB0298039949
:1041D000044401988A4405440BF101008346484594
:1041E000DCDBB8E70026B04614E000BF05EB480072
:1041F0001AF806104078484300FB0BF0020C34F824
:10420000161015F818000EF071FA24F8160008F1CF
:104210000108761CBE42E9DB029803990444019828
:104220008A4405440098401C00904845DADB92E738
:1042300000263046009604947EE000BF15F810106A
:1042400098F82220C8088908012A1CD0022A40D0E8
:10425000032A80D1049A32F81620D30A43434FEA46
:10426000531C4FF6FF7303EACC23C2F3451C0CFB2F
:1042700001FC4FEA9C1102F01F0203EB4111424383
:1042800001EB52101BE0049A32F8162000EBD22307
:104290001F2B00D31F234FF6FF7C0CEAC323C2F36E
:1042A000451C61443F2900D33F2102F01F0203EB6C
:1042B0004111104489B21F2800D31F20084480B246
:1042C000BAF1000F22D0BBF1FD0F48D31AF8062037
:1042D00028E0049A32F81620C0EBD223002B00DC31
:1042E00000234FF6FF7C0CEAC323C2F3451CACEB62
:1042F0000101002900DC002102F01F0203EB411143
:10430000101A89B20028D9DC0020D7E70099BBF148
:10431000FD0F05EB410101D34A7803E0497801FB29
:104320000BF10A0A34F816100EF0C4F824F816003F
:104330000098001D761C0090BE42FFF67FAF0298E9
:10434000BAF1000F04440198054401D003998A444E
:104350000598401C05904845FFF66AAFFBE6009AB9
:104360001AF8061005EB42025278514301FB0BF19B
:104370000A0CD7E72DE9F34F064685B0D6E9017060
:10438000804696F821B03568F0680190D6E906407D
:104390000090D6E90490039096F8220008B100201E
:1043A000C8E0B9F1000F05D0BBF1FD0F4FF00000E0
:1043B00062D285E0BBF1FD0F4FF0000018D21DE086
:1043C0004FF000094E460BE004EB460005EB0901F7
:1043D000427814F816000EF0B7F90699761C894455
:1043E000BE42F1DB01980544009804440AF1010043
:1043F00082464045E4DB07B0BDE8F08F8246404589
:10440000F9DA4FF000094E460FE000BF04EB46001A
:1044100005EB0901407800FB0BF0020A14F81600C6
:104420000EF092F90699761C8944BE42EEDB0198A3
:104430000544009804440AF10100DFE74FF0000A48
:1044400056460FE004EB460019F806104078484342
:10445000020A05EB0A0114F816000EF075F9069928
:10446000761C8A44BE42EDDB01980399054400980E
:10447000894404440BF1010083464045DEDBBAE782
:104480004FF0000A564611E004EB460019F80610FA
:104490004078484300FB0BF0020C05EB0A0114F8CE
:1044A00016000EF051F90699761C8A44BE42EBDBE9
:1044B0000198039905440098894404440298401CDB
:1044C00002904045DCDB96E70020029024E000BF2C
:1044D00014F81A00B9F1000F60F3070160F30F211F
:1044E00060F3174104EB4A00407828D0029B19F88A
:1044F0000320504300FB0BF05FEA104060F31F61A4
:10450000029896F82220284401F0EEF806990298C5
:10451000084402900AF101008246B842D8DBB9F1A2
:10452000000F01D003998944019805440098044480
:104530000498401C414604908842C5DB5BE700FBC1
:104540000BF0000ADAE708444A1E401E904311426D
:1045500000D0FEE7704710B5402017F0A5FA040020
:1045600005D04022002117F0D0FB204610BDFEE709
:104570002DE9FC410D4604002AD055B304F1240076
:1045800080461CF090F9009008B3076961683846CE
:104590000DF0F4F9064629463846626817F0FAFA33
:1045A00004F1300017F0A6F9019098B10422694691
:1045B00017F0F0FA2046009907F05EFB042201A9EB
:1045C00017F0E8FA2146304662680DF0E7F907E097
:1045D000FEE7FEE7404600991CF02FF9002000900E
:1045E0000098BDE8FC8100002DE9F0410F46012153
:1045F000002504462E46C16309E01A491DF012FB4E
:1046000008B16D1C02E0E06B401CE063761C57F8BB
:10461000260010B101780029EFD1A06BA8421FD06D
:10462000206B002610B114F02FFC2663606B10B1D4
:1046300014F02AFC6663280117F036FA206338B1BB
:10464000680017F031FA606318B1216B11B102E014
:10465000FEE7FEE700256A00002117F056FBA56380
:10466000BDE8F081CC14010810B5044690F8540060
:10467000E26BC107616C04D121B14B1C18D0491EFB
:104680006164A9B90AB1C10712D02146144817F0D4
:10469000D6F900F027F8216909B1204688476169F9
:1046A00009B1204688472046BDE8104014F0ECBB15
:1046B000216C49426163002A10D0C10702D1A16B6D
:1046C00049426163411C61F3000084F85400E16ACF
:1046D000606A6162E062206B2263E06310BD0000EB
:1046E0000C5B002010B50A4C012084F8A40004F1F2
:1046F000AC0017F0DAF80028D4F8A80003D0BDE821
:1047000010401FF09DBBBDE810401FF087BB0000AC
:10471000605A00202DE9F0413D4D95F8A50038B1D3
:104720005FF0000085F8A5003948AC30074664E02A
:104730000120F7E7206D1FF00FFA616B08446063FA
:104740001FF010FA2065002085F8A40094F85400AA
:1047500095F8A510C0F340028A4254D061F341009D
:1047600084F8540041071ED4616B002941DB000727
:1047700009D4A16939B120468847616A0144616260
:10478000E16A0844E062204622F0C0F8E16809B11D
:104790002046884794F8540040F0040084F8540000
:1047A000204621F0D3FF606B002822DB216B88427A
:1047B00000DD6163216A20468847A16A0646B1424E
:1047C0000DD0A662626812B131462068904795F814
:1047D000A40088B9A2682AB131462046904795F8CE
:1047E000A40048B9D4E90C0181420CDB2046FFF754
:1047F0003BFF95F8A40030B1384617F056F8040096
:1048000098D1BDE8F0812146384617F060F8F6E708
:10481000605A002070B5044640680D4608B1FFF7A5
:10482000F9FF2268002A04D029462046BDE87040DE
:10483000104770BD70B50D6806460C46286838B143
:10484000296AC90204D5206021463046FFF7F2FFED
:10485000214630462560BDE87040FFF7DBBF0BF016
:1048600044BB0BF087BB00002DE9F04F074691B029
:10487000D7E90160814697F8210008903D68F86803
:104880000F90D7E906400E90D7E904B00A900BA824
:104890000EF0B0F897F8220008B10020D9E008988F
:1048A000BBF1000F04D0FD284FF0000071D29AE058
:1048B000FD284FF000001ED223E0002713E000BFC8
:1048C00004EB870BDBF800000DF0E2FD60F3070856
:1048D0009BF80310404661F30F2005EB47010BAA3C
:1048E0000DF006FE7F1CB742EADB0F9805440E98D8
:1048F00004440AF1010082464845DEDB11B0BDE800
:10490000F08F82464845F9DA002715E004EB870B63
:10491000DBF800000DF0BCFD60F307089BF8030016
:1049200008990BAA4843010A404661F30F2005EBA2
:1049300047010DF0DDFD7F1CB742E7DB0F98054412
:104940000E9804440AF10100DBE7002717E000BFDE
:1049500004EB8700079000680DF09AFD60F30708EC
:1049600007981BF807100BAAC0784843010A404675
:1049700061F30F2005EB47010DF0BAFD7F1CB74234
:10498000E6DB0F980A9905440E988B4404440AF11B
:10499000010082464845D8DBB0E7002719E000BF98
:1049A00004EB8700079000680DF072FD60F30708C4
:1049B00007981BF807100BAAC0784843089948438A
:1049C000010C404661F30F2005EB47010DF090FD0F
:1049D0007F1CB742E4DB0F980A9905440E988B447C
:1049E00004440AF1010082464845D6DB86E70020F0
:1049F00021E000BF04EB8A00029000680DF048FD42
:104A000060F3070802984146BBF1000FC07860F3DD
:104A10000F2122D01BF80A205043089A5043000C63
:104A200060F30F2197F8222005EB4A000BAB00F052
:104A30008BFD0AF101008246B042DBDBBBF1000FC7
:104A400001D00A998B440F9805440E9804440398AA
:104A5000401C03904845CADB50E7089A5043000ABF
:104A6000DEE700002DE9F04F064693B0D6E901706D
:104A7000804696F821B03568F0681190D6E9064076
:104A80001090D6E904A00B900CA80DF0C7FF96F883
:104A9000220008B10020C0E0BAF1000F05D0BBF140
:104AA000FD0F4FF0000065D28AE0BBF1FD0F4FF023
:104AB000000018D21DE000260DE000BF05EB860ABD
:104AC00004EB8600DAF8001000680CAA0DF0C8FDAF
:104AD000CAF80000761CBE42F0DB1198054410981D
:104AE000044409F1010081464045E4DB13B0BDE810
:104AF000F08F81464045F9DA002612E004EB86008B
:104B000005EB860A00680CAA010E01FB0BF1090AED
:104B100061F31F60DAF800100DF0A2FDCAF8000082
:104B2000761CBE42EADB119805441098044409F152
:104B30000100DEE7002613E004EB86001AF80620E9
:104B4000006805EB860B010E5143090A61F31F60F3
:104B5000DBF800100CAA0DF083FDCBF80000761CEA
:104B6000BE42E9DB11980B99054410988A4404442D
:104B700009F1010081464045DCDBB7E7002615E07E
:104B800004EB86001AF806200068010E514301FB71
:104B90000BF1090C61F31F6005EB860107910968B1
:104BA0000CAA0DF05DFD0799761C0860BE42E7DB9C
:104BB00011980B99054410988A44044409F10100A6
:104BC00081464045DADB91E7002018E004EB8900DC
:104BD000BAF1000F01684FEA116022D01AF80920DB
:104BE000504300FB0BF0000C60F31F6196F822208D
:104BF00005EB89000CAB00F0CCFC09F1010081460B
:104C0000B842E3DBBAF1000F01D00B998A44119846
:104C10000544109804440398401C03904045D3DB9E
:104C200064E700FB0BF0000ADEE700002DE9F04F1F
:104C3000054689B0D5E9016790F821B00068009079
:104C4000E8680290D5E906400390D5E90490049005
:104C5000686AC11700EB517121F00701A0EB010A4E
:104C600095F8220008B100201BE1B9F1000F05D032
:104C7000BBF1FD0F4FF0000071D2E2E0BBF1FD0F80
:104C80004FF000002FD234E0002522E004EB850B2A
:104C9000DBF800000DF0FCFB05EB0A0104908946EF
:104CA000009806F0EAFBC0EB00208DF804009BF8AA
:104CB000032001A904980DF07DFD9DF804004946EC
:104CC0007F28009802D925F0FBFF01E001F09EFE4D
:104CD0006D1CB542DADB02990098084400900398F5
:104CE000044408F101008046B842CDDB09B0BDE8BC
:104CF000F08F8046B842F9DA002525E004EB850004
:104D0000059000680DF0C4FB05EB0A01049089468C
:104D1000009806F0B2FBC0EB00208DF80400059867
:104D200001A9C07800FB0BF0020A04980DF042FDC7
:104D30009DF8040049467F28009802D925F0C0FF5D
:104D400001E001F063FE6D1CB542D7DB00990298CB
:104D5000084400900398044408F10100C9E734E0D6
:104D6000002526E004EB8500069000680DF090FB1E
:104D700005EB0A0105908B46009806F07EFBC0EB20
:104D800000208DF80400069819F80510C0784143FA
:104D90000A0A01A905980DF00DFD9DF80400594679
:104DA0007F28009802D925F08BFF01E001F02EFE4C
:104DB0006D1CB542D6DB0099029808440090039818
:104DC00004990444894408F101008046B842C7DBD5
:104DD0008CE7002529E000BF04EB85000790006800
:104DE0000DF056FB05EB0A0101910690009806F0C4
:104DF00044FBC0EB00208DF81400079819F805104B
:104E0000C078414301FB0BF10A0C05A906980DF08F
:104E1000D1FC9DF814007F28DDE9000102D925F0BE
:104E20004FFF01E001F0F2FD6D1CB542D4DB0099AB
:104E3000029808440090039804990444894408F1B6
:104E400001008046B842C4DB50E7002019E000BFF3
:104E500004EB8800B9F1000F02684FEA126024D019
:104E600019F80810484300FB0BF0000C60F31F62B8
:104E700095F8223008EB0A01009800F0DAFB08F1FF
:104E800001008046B042E3DBB9F1000F01D0049984
:104E900089440299009808440090039804440198BA
:104EA000401C0190B842D0DB20E700FB0BF0000A69
:104EB000DCE700002DE9F04F06468FB0D6E901701F
:104EC000804696F821B03568F0680D90D6E9064026
:104ED0000C90D6E904A0089096F8220008B10020B2
:104EE000B2E0BAF1000F05D0BBF1FD0F4FF00000AA
:104EF0005CD27DE0BBF1FD0F4FF0000016D21BE04D
:104F000000260BE004EB860ADAF800000DF0C0FA88
:104F10009AF80320A9190DF05AFC761CBE42F1DB69
:104F20000D9805440C98044409F101008146404560
:104F3000E6DB0FB0BDE8F08F81464045F9DA002688
:104F40000FE000BF04EB860ADAF800000DF0A0FACB
:104F50009AF80320A91902FB0BF2120A0DF037FC94
:104F6000761CBE42EEDB0D9805440C98044409F112
:104F70000100E1E700260FE004EB860BDBF8000000
:104F80000DF086FA9BF803101AF8062051430A0A1E
:104F9000A9190DF01CFC761CBE42EDDB0D9808999A
:104FA00005440C988A44044409F1010081464045B7
:104FB000E0DBBEE7002611E004EB860106910868FD
:104FC0000DF066FA06991AF80620C978514301FBDC
:104FD0000BF10A0CA9190DF0FAFB761CBE42EBDBB3
:104FE0000D98089905440C988A44044409F101007D
:104FF00081464045DEDB9CE7002017E004EB89009A
:10500000BAF1000F01684FEA116021D01AF80920A7
:10501000504300FB0BF0000C60F31F6196F8222058
:1050200005EB090000F03CFB09F101008146B842A4
:10503000E4DBBAF1000F01D008998A440D980544C9
:105040000C9804440298401C02904045D4DB70E761
:1050500000FB0BF0000ADFE72DE9F04F804687B038
:10506000D8E90170814698F821B0D8F80040D8F806
:105070000C000290D8E906500190D8E904A00390F2
:1050800098F8220008B100202FE1BAF1000F05D0F6
:10509000BBF1FD0F4FF0000060D283E0BBF1FD0FCC
:1050A0004FF0000018D21DE00026B0460CE000BF13
:1050B00005EB080034F81610C2780DF078FA24F8E1
:1050C000160008F10408761CBE42F1DB0298044485
:1050D000019805440AF1010082464845E4DB07B027
:1050E000BDE8F08F82464845F9DA0026B0460EE06A
:1050F00005EB0800C17801FB0BF10A0A34F8161021
:105100000DF055FA24F8160008F10408761CBE428A
:10511000EEDB02980444019805440AF10100E1E73E
:105120000026B04610E000BF05EB08001AF8062084
:10513000C17851430A0A34F816100DF038FA24F8F1
:10514000160008F10408761CBE42EDDB0298044408
:1051500001980544039882440BF1010083464845B9
:10516000DEDBBCE70026B04612E000BF05EB08001E
:105170001AF80620C178514301FB0BF10A0C34F8F0
:1051800016100DF014FA24F8160008F10408761C25
:10519000BE42EBDB02980399044401988A4405441B
:1051A0000098401C00904845DCDB98E700260096FC
:1051B00004948CE098F8220001281FD002284CD0DB
:1051C00003288CD1009A04982A44937830F816006A
:1051D000DB08C10A59435278C0F3451392084909C4
:1051E0005343C9029A0901EB4211009A00F01F00D3
:1051F000AA5CD208504301EB501024E004980099B7
:105200006A1830F816009178C30A03EBD1011F2900
:1052100000D31F214FF6FF7303EAC1235278C0F376
:10522000451101EB92013F2900D33F2100F01F02FD
:10523000009803EB411189B2285C02EBD0001F28D3
:1052400000D31F20084480B2BAF1000F2AD0BBF16E
:10525000FD0F4FD31AF806202FE0049800996B1821
:1052600030F816009978C20AA2EBD101002900DCBF
:1052700000214FF6FF7202EAC1225B78C0F34511AC
:10528000A1EB9301002900DC002102EB411100F0A9
:105290001F02009889B2285CA2EBD0000028D1DC64
:1052A0000020CFE70099BBF1FD0F294401D3CA7854
:1052B00003E0C97801FB0BF10A0A34F816100DF06F
:1052C000F9F824F816000098001D761C0090BE42E4
:1052D000FFF670AF0298BAF1000F0444019805443C
:1052E00001D0039882440598401C05904845FFF67C
:1052F0005DAFF4E6009A1AF806102A44D2785143BA
:1053000001FB0BF10A0CD8E72DE9F34F064685B0F7
:10531000D6E90170804696F821B03568F0680190B2
:10532000D6E906400090D6E90490039096F8220052
:1053300008B10020B8E0B9F1000F05D0BBF1FD0FB6
:105340004FF000005CD27DE0BBF1FD0F4FF000009C
:1053500016D21BE04FF000094E4609E004EB860030
:1053600005EB0901C2780DF058F90699761C8944BD
:10537000BE42F3DB01980544009804440AF10100A1
:1053800082464045E6DB07B0BDE8F08F82464045E7
:10539000F9DA4FF000094E460DE000BF04EB86003D
:1053A000C17801FB0BF10A0A05EB09010DF035F993
:1053B0000698761C8144BE42F0DB019805440098B3
:1053C00004440AF10100E1E74FF0000A56460DE0FF
:1053D00004EB860019F80620C17851430A0A05EB50
:1053E0000A010DF01AF90698761C8244BE42EFDBE2
:1053F0000198039905440098894404440BF1010085
:1054000083464045E0DBBEE74FF0000A56460FE01A
:1054100004EB860019F80620C178514301FB0BF11B
:105420000A0C05EB0A010DF0F8F80699761C8A447F
:10543000BE42EDDB01980399054400988944044479
:105440000298401C02904045DEDB9CE70020029061
:105450001CE000BF04EB8A00B9F1000F016827D0FF
:1054600002980A0E19F80000424302FB0BF2100CDE
:1054700060F31F61029896F82220284400F034F966
:1054800002990698084402900AF101008246B84247
:10549000E0DBB9F1000F01D003998944019805447C
:1054A000009804440498401C04904045CEDB6AE711
:1054B000080E00FB0BF0000ADAE7000010B5416CA3
:1054C00096B0044601B368460AF02CF821466846B7
:1054D0000AF0CAF80F4968460AF0B0F86846616CED
:1054E0000AF0A4F80122002168460AF0B7F80A4938
:1054F00068460AF0A5F8094968460AF090F8684637
:105500000AF0D4F816B010BD16B0BDE8104020F077
:10551000EDB8000071570208FFF500087357020844
:1055200008B5074816F0C1F90649886100210091C5
:105530000B460A46006809211BF0E2FD08BD000089
:10554000A81A00203000002030B415460A46014653
:10555000D4B2012D07D0022D13D0032D17D10D7811
:1055600065432C0A04E00D782C44FF2C00D3FF2463
:1055700064F30700120A62F30F2030BC1A460CF0E5
:10558000B7BF0D782C1B002CF2DC0024F0E730BCF8
:1055900070472DE9F04117460446C1F30746C1F3B1
:1055A0000725CAB2012F11D0022F2ED0032F2AD1E6
:1055B000A77877433E0A66F3174066786E43350A4C
:1055C00065F30F20257855432A0A12E0A7783E4458
:1055D000FF2E00D3FF2666F3174066783544FF2D73
:1055E00000D3FF2565F30F2025782A44FF2A00D336
:1055F000FF2262F30700090E61F31F6021681A465B
:105600000DF02EF82060BDE8F081A778BE1B002EBB
:1056100000DC002666F317406678751B002D00DC61
:10562000002565F30F202578AA1A002AE1DC002264
:10563000DFE72DE9F84380461E460F461546104623
:105640000CF026FF04463946404605F016FFC0EB35
:105650000020C0B28DF80000012E13D0022E17D00A
:10566000032E0DD16043000A2A0E69460DF0A2F800
:105670009DF8000039467F2840460ED925F020FBD2
:10568000BDE8F8832044FF2800DBFF20C0B2EBE731
:10569000001B0028FADC0020F8E701F0B7F9EFE77B
:1056A00070B5044616460D4608460CF0F1FE012E74
:1056B0000CD0022E11D0032E15D121784143080AB7
:1056C0002A0E2146BDE870400DF081B821780844CB
:1056D000FF2800DBFF20C0B2F2E72178081A00287B
:1056E000F9DC0020F7E770BD38B500230093CDB298
:1056F000C1F30724C1F30743012A11D0022A2AD09B
:10570000032A27D102786A43120A8DF800204278D2
:105710006243120A8DF8012082785A43120A12E07D
:1057200002782A44FF2A00D3FF228DF80020427815
:105730002244FF2A00D3FF228DF8012082781A44E8
:10574000FF2A00D3FF228DF802200A0E0146684688
:105750000CF063FF38BD0278521B002A00DC0022E7
:105760008DF800204278121B002A00DC00228DF800
:1057700001208278D21A002AE5DC0022E3E710B586
:105780000446406882080AD0496821F00301091DD7
:1057900008446060204600F042F8204610BDFEE755
:1057A0004068103120F00300884201D30120704787
:1057B000002070472DE9FC47054648680C4620F05C
:1057C000030001AA69461EF0F3FFDDE9007005EB56
:1057D000C71101EB80098046D9F8380060B164B187
:1057E000C4E9020504F10806C46030460421FEF74E
:1057F000AAFE864202D0FEE7FEE7FEE7C9F838407F
:105800000120296900FA07F21143296105EB87019C
:1058100000FA08F04A6902434A61BDE8FC8710B506
:10582000044600F087F8046010BD2DE9FC470646E9
:105830004FF000000D0000900746019042D00C464A
:10584000E9460DF10408802907D3084628F01EF820
:10585000411F01208840401E0444424649462046DC
:105860001EF0A6FF009C092C2CDA06EB8400019A9E
:1058700040694FF0FF3101FA02F210400CD1641C74
:105880003069A14008401DD027F0F8FF0446009081
:1058900006EB8000406978B127F0F0FF034606EB85
:1058A000C411019001EB8000876B5FB1786820F034
:1058B0000300A84201D2FEE7FEE739463046009ACF
:1058C00020F080FF3846BDE8FC8710B50446FFF79E
:1058D000A6FF416841F002014160606840F00100AC
:1058E000606010BD10B5044600F024F8416821F056
:1058F00002014160606820F00100606010BD70B579
:1059000006460D46084600F015F8040010D0207930
:10591000C0070BD0686880080BD02146304600F0E5
:105920003CF821462846FFF72AFF0546284670BD69
:10593000FEE7FEE7426800F1080122F00300001FC5
:105940000844910800D1FEE7704770B506460C0088
:105950004FF000001ED0F2B120791546C0071BD0D1
:1059600011462046FFF71CFF78B12946204600F07B
:1059700025F805462046FFF752FF6868294640F0A3
:10598000020068603046FFF715FF2046FFF7AAFFC8
:1059900004F1080070BDFEE7FEE77CB505464868E7
:1059A0000C4620F0030001AA69461EF001FFDDE964
:1059B00000232146284620F005FF7CBD2DE9F0415B
:1059C0000D46044600F10801281F0E18606806F114
:1059D000080720F00300401BA0F10408384604210A
:1059E000FEF7B1FD874200D0FEE7606820F00301BA
:1059F00008EB0500001D814200D0FEE7307900F081
:105A0000030040EA0800706020F003000C2800D278
:105A1000FEE7207900F00300284360603046FFF77E
:105A200054FF3046BDE8F08110B512F0F3FF0021BD
:105A300017F06DFB15F036F8044610A11CF0F2F8D3
:105A4000A0B10FA120461CF0EDF888B10DA12046B1
:105A50001CF0E8F870B10CA120461CF0E3F8002817
:105A60000AD10520BDE8104009F0EEBC0220F9E79C
:105A70000320F7E70420F5E710BD0000EE99B7001A
:105A8000EE988F00EE988A00EE98810038B50446B3
:105A900014F0D4FA054614F010FB0028204605D077
:105AA000616C216418F0B8FF012038BD12F040FD90
:105AB000002820461ED012F0ECFBD4E910018142F0
:105AC0000CD06064206C00906A46202120461AF0B9
:105AD00052F80128E9D1204618F09EFF284614F01C
