:020000040800F2
:100000003005002045010008E71900088D18000898
:10001000E5190008530200081D1D0008000000003B
:10002000000000000000000000000000EB190008C4
:100030000D03000800000000E9190008ED19000890
:100040005F0100085F0100085F0100085F01000810
:100050005F0100085F0100085F0100085F01000800
:100060005F0100085F0100085F0100085F010008F0
:100070005F0100085F0100085F0100085F010008E0
:100080005F0100085F0100085F0100085F010008D0
:10009000111D00085F0100085F0100085F010008F2
:1000A0005F0100085F0100085F0100085F010008B0
:1000B0005F0100085F0100085F0100085F010008A0
:1000C0005F0100085F0100085F0100085F01000890
:1000D0005F010008A91C00085F0100085F0100081B
:1000E0005F0100085F0100085F0100085F01000870
:1000F0005F0100085F0100085F0100085F01000860
:100100005F0100085F0100085F0100085F0100084F
:100110005F0100085F0100085F0100085F0100083F
:100120005F0100085F0100085F0100085F0100082F
:10013000DFF80CD000F06CF80048004755220008AA
:10014000300500200648804706480047FEE7FEE7E6
:10015000FEE7FEE7FEE7FEE7FEE7FEE7FEE7FEE777
:10016000591A000831010008202A04DB203A21FA3C
:1001700002F00021704721FA02F3D040C2F12002C0
:100180009140084319467047D2B201E000F8012BB4
:10019000491EFBD270470022F6E710B513460A4607
:1001A00004461946FFF7F0FF204610BD2DE9F05F29
:1001B0000546002092469B468846064681464024D6
:1001C0001BE02846414647462246FFF7CDFF5346EF
:1001D0005A46C01A914110D311461846224600F0E3
:1001E00029F82D1A67EB01084F462246012000210D
:1001F00000F020F817EB00094E41201EA4F1010485
:10020000DFDC484631462A464346BDE8F09F000001
:10021000064C074D06E0E06840F0010394E8070053
:1002200098471034AC42F6D3FFF786FF50230008FE
:1002300070230008202A04DB203A00FA02F1002093
:1002400070479140C2F1200320FA03F31943904014
:100250007047FEE738B5164814494160082101612E
:1002600000218160C16001210160017511A001F0D0
:1002700057FD1E4D00202854401C0828FBDB1CA005
:1002800001F04EFD00241EA0295D01F049FD641C13
:10029000082CF8DB1CA001F043FD05496B46134A0E
:1002A00001F1340000F045F838BD000001F00018FD
:1002B0008C0000200D0A0D0A2D2D2D2D2D2D2D2DFC
:1002C0002D2D2D2D2D2D2D2D2D2D43414E207465A1
:1002D00073742D2D2D2D2D2D2D2D2D2D2D2D2D2DC1
:1002E0002D2D2D2D0D0A0D0A000000000300002009
:1002F00043414E2073656E6420646174610D0A0091
:1003000020307825303278000D0A0000704790F8D0
:100310002020012A07D0022A05D0416A41F4802119
:10032000416201207047006842690A43426100202F
:100330007047F0B590F820500468A468012D05D0EE
:10034000022D03D0416A41F480214DE014F0406F4A
:1003500001D1E50045D5C4F301640125A5401D6028
:100360008D684FF4C0739DB1CE6835434E6845EA41
:10037000C605066803EB0417F5514FF4C27507680C
:1003800005EB04150E697E51097D012905D009E0B0
:100390000E88CD6845EA4655EBE701684E5946F4AC
:1003A00080764E511179D2F805504FF4C67641EA65
:1003B0000521056806EB0416A9511178D2F8012031
:1003C0004FF4C47541EA0221026805EB041551514E
:1003D000006803EB0411425842F001024250002031
:1003E000F0BD416A41F4001141620120F0BD0000FE
:1003F00010B590F820300268012B07D0022B05D0F1
:10040000416A41F480214162012010BDD2F800020E
:1004100040F00100C2F80002087D00F01F03012037
:100420009840D2F81C328343C2F81C32CB69B3B96E
:10043000D2F80C328343C2F80C328C894B6864F3D7
:100440001F434C6902EBC404C4F840320C890B68AA
:1004500064F31F434C6902EBC404C4F84432CB6913
:10046000012B16D1D2F80C320343C2F80C320C889F
:100470004B6864F31F434C6902EBC404C4F8403278
:100480000C89CB6864F31F434C6902EBC404C4F8C5
:1004900044328B69002BD2F804320FD053EA0003A8
:1004A000C2F804320B69002BD2F8143208D003438F
:1004B000C2F81432096A012904D008E08343EFE747
:1004C0008343F5E7D2F81C120143C2F81C12D2F89C
:1004D000000220F00100C2F80002002010BD7047A9
:1004E00070B590F82040012C05D0022C03D0416A51
:1004F00041F4802128E0046809B32469A40720D0CE
:100500004FF4D874056804EB01142D5915F0040557
:10051000956005682D591AD0ED08556005682C596D
:1005200004F00204D4604FF4DA74056804EB01149B
:100530002E5906F00F06082E0CD308250DE0E468AE
:10054000DCE7416A41F400114162012070BD6D0D8C
:100550001560E3E72D5905F00F05156105682D5964
:10056000C5F30725956105682C59240C54614FF497
:10057000DC72046802EB0112A4581C700468A458D1
:10058000240A5C700468A458240C9C700468A25867
:10059000120EDA704FF4DE72046802EB0112A458F6
:1005A0001C710468A458240A5C710468A458240CC3
:1005B0009C710468A258120EDA71006829B10169B1
:1005C00041F020010161002070BDC16841F02001AF
:1005D000C160F8E72DE9F05F054600680024466930
:1005E000D0F804908768D0F80CB0D0F810A0D0F8FC
:1005F0001880F10748D0F90714D001218160B807AD
:1006000003D5284600F0CEF90CE0780702D54FF468
:10061000006407E0380702D54FF4805402E0284612
:1006200000F0BFF9F80516D529684FF4807088608E
:10063000B80503D5284600F0B7F90CE0780502D5D7
:1006400044F4005407E0380502D544F4804402E045
:10065000284600F0A8F9F80316D529684FF4803031
:100660008860B80303D5284600F0A0F90CE07803B1
:1006700002D544F4004407E0380302D544F4803442
:1006800002E0284600F091F9300707D55FEACB6019
:1006900004D52968102044F40074C86070074FF036
:1006A000080707D55FEA0B7004D52868C76028469D
:1006B00000F05AF9B00706D52868C068800702D054
:1006C000284600F053F9700607D55FEACA6004D5E2
:1006D0002968102044F480640861B00607D55FEAF9
:1006E0000A7004D528680761284600F057F9F0061B
:1006F00006D528680069800702D0284600F04FF927
:10070000B00308D55FEAC96005D5296810204860A4
:10071000284600F045F9F00307D55FEA097004D5D3
:1007200028684760284600F042F9300446D55FEA61
:10073000497040D5F00504D55FEAC87001D044F097
:100740000104B00504D55FEA887001D544F00204C5
:10075000700504D55FEA487001D544F00404300503
:1007600029D518F0700F26D008F07000402815D059
:1007700006DC102809D020280AD0302816D10AE03B
:1007800050280ED0602811D10EE044F008040DE08E
:1007900044F010040AE044F0200407E044F0400470
:1007A00004E044F0800401E044F480742868816926
:1007B00021F070018161296804204860002C05D077
:1007C000686A204368622846FFF789FEBDE8F09F0B
:1007D00070B5040003D094F8200010B104E00120AB
:1007E00070BD204600F082F82068016841F00101E8
:1007F000016000F0B5FA0546052604E000F0B0FA05
:10080000401B0A2811D820684068C007F6D020682D
:10081000016821F00201016000F0A2FA05460BE038
:1008200000F09EFA401B0A2806D9606A40F40030A6
:10083000606284F82060D2E7206840688007EFD4C7
:10084000207E0128206801683DD021F080010160F0
:10085000607E01282068016838D021F040010160E5
:10086000A07E01282068016833D021F020010160BA
:10087000E07E0128206801682ED041F0100101605F
:10088000207F01282068016829D021F0080101603B
:10089000607F01282068016824D021F004010160F4
:1008A000D4E902010843D4E9041211430843616802
:1008B000491E08432168C86100206062012084F855
:1008C0002000002070BD41F08001C0E741F04001F0
:1008D000C5E741F02001CAE721F01001CFE741F060
:1008E0000801D4E741F00401D9E7000010B586B053
:1008F00000210091019102910391006817498842FB
:100900002AD11748C16941F00071C161C16901F084
:1009100000710491816941F0040181618069114C89
:1009200000F0040004904FF40060009069462046F7
:1009300000F00CF9A0140090022001900320039015
:100940006946204600F002F900221146142000F00A
:1009500073FA142000F062FA06B010BD0064004083
:1009600000100240000801407047000010B5084A1E
:10097000016891420AD1074B074A0021FFF7B0FDF9
:10098000002803D1034901200B39887010BD0000F5
:10099000006400400B000020A40000207047704756
:1009A000704770477047704770477047704770478F
:1009B00010B590F821100022022905D0042181638E
:1009C00080F82020012010BD01680B6823F00E0381
:1009D0000B6001680B6823F001030B6090F8403056
:1009E000C46B012101FA03F3636080F8211080F8E1
:1009F0002020104610BD00002DE9F05F90F8211076
:100A00000024022903D004218163012485E00168C8
:100A10000A6822F00E020A6001680A6822F00102E8
:100A20000A603F4E3E4FB215DFF8F4C0DFF8F09099
:100A3000DFF8ECA0DFF8E8B0DFF8E4E00168783F29
:100A400013011502ACF1640CA9F15009AAF13C0A9A
:100A5000ABF1280BAEF1140E4FF48018B14227D938
:100A6000B9420ED0614512D049451DD0514518D02C
:100A7000594518D0714501D1424615E0294EB14281
:100A800001D1012210E0274E1436B14201D11022CB
:100A90000AE0244E2836B14206D0224A3C32914226
:100AA00001D11A4600E02A461E49091F0A602BE0C0
:100AB000B94213D0614517D0494522D051451DD0C8
:100AC00059451DD0714501D142461AE0B14202D1CB
:100AD0004FF0807215E0134EB14201D1012210E0B7
:100AE000104E1436B14201D110220AE00D4E2836C4
:100AF000B14206D00B4A3C32914201D11A4600E085
:100B00002A46074980394A60012180F821100021D6
:100B100080F82010416B01B188472046BDE8F09F66
:100B2000800002400804024070B5044600F018F945
:100B30000546601C02D004480078044400F010F917
:100B4000401BA042FAD370BD140000202DE9F84FDD
:100B5000DFF8C8910024A9F1040B23460F2709F1FF
:100B6000040AABF1040ED1E00125A54006EA050216
:100B7000AA4276D1DFF8A8C14E68A6EB0C086645FC
:100B80002BD00DDC032E34D005DC36B3012E19D06A
:100B9000022E2FD11BE0112E16D0122E2AD119E0D1
:100BA000B8F5881F19D006DCB8F5803F15D0B8F528
:100BB000801F1FD111E0B8F5001F0ED0B8F5041F3B
:100BC00018D10AE0CB6815E0CB681B1D12E0CB689A
:100BD00008330FE0CB680C330CE08B682BB1012B92
:100BE0004FF0080303D0456104E0042302E00561EF
:100BF00000E00023FF2A01D8064601E000F10406C8
:100C00004FEA840501D9A5F12005D6F8008007FA3E
:100C100005FC28EA0C0803FA05F548EA0508C6F8B9
:100C200000804D68ED0070D53E4DAE6946F001067E
:100C3000AE61AD6924F0030605F0010500953A4D5B
:100C400006EB050CDCF80850A607360F07FA06F885
:100C500025EA0805DFF8D480404503D14FF00008AD
:100C600025E052E0DFF8C880404502D14FF001088E
:100C70001DE0DFF8C080404502D14FF0020816E0C9
:100C8000DFF8B480404502D14FF003080FE0DFF8F1
:100C9000AC80404502D14FF0040808E0DFF8A080A6
:100CA000404502D14FF0050801E04FF0060808FA70
:100CB00006F848EA0508CCF808804D68D9F80060C5
:100CC000ED024D4601D5164300E096432E604D6877
:100CD000DAF80060AD02554601D5164300E09643B0
:100CE0002E604D68DBF80060AD035D4601D516430C
:100CF00000E096432E604D68DEF80060ED03754617
:100D000001D5164300E096432E60641C0A6816461F
:100D1000E2407FF429AFBDE8F88F000008040140ED
:100D200000001110001002400000014000080140C6
:100D3000000C014000100140001401400018014067
:100D4000001C0140C26821EA02030A4043EA024152
:100D5000016170470AB1016170470904FBE70000B7
:100D60000148806870470000140000200248816834
:100D7000027811448160704714000020074810B5C4
:100D8000016841F010010160032000F075F80F20A8
:100D900000F006F800F024F8002010BD002002400A
:100DA00070B50D4D04464FF47A712878B1FBF0F020
:100DB0000A490968B1FBF0F000F000FB48B9102CBB
:100DC00007D200222146501E00F036F800206C6049
:100DD00070BD012070BD0000140000202000002024
:100DE0000C4808B5816941F001018161816901F018
:100DF00001010091C16941F08051C161C06900F0F9
:100E0000805000900448416821F0E06141F0007199
:100E1000416008BD0010024000000140002809DBCD
:100E200000F01F02012191404009800000F1E02004
:100E3000C0F8001170470000F0B40E4B1B680C4660
:100E4000C3F30223C3F10705042D00D90425191D9E
:100E5000072901D2002300E0DB1E012606FA05F176
:100E6000491E214099409E40761E16403143F0BCF9
:100E700000F066BF0CED00E0064900F007020868CC
:100E80004FF6FF03184040EA0220034A104308606F
:100E9000704700000CED00E00000FA052DE9F04776
:100EA0000F46050061D0434E306800F00700B8429D
:100EB00009D2306820F0070038433060306800F015
:100EC0000700B84251D128683B4C810712D5400732
:100ED00003D5606840F4E06060602878000703D5BF
:100EE000606840F4605060606068A96820F0F000BD
:100EF000084360602878C00728D06868012810D0AF
:100F00002168022810D0890700292EDA616821F0B3
:100F1000030101436160FFF723FF804641F28839F6
:100F20000DE021688903EFE78901EDE7FFF718FF7E
:100F3000A0EB0801494502D90320BDE8F0876068AD
:100F4000696800F00C00B0EB810FEFD1306800F061
:100F50000700B8420BD9306820F0070038433060F2
:100F6000306800F00700B84201D00120E5E728789A
:100F7000400705D56068E96820F4E06008436060D8
:100F80002878000706D56068296920F4605040EA97
:100F9000C100606000F038F86168084AC1F30311CD
:100FA000515CC8400649086006480068FFF7F8FE33
:100FB0000020C2E700200240001002403623000853
:100FC00020000020180000200448054900684968F6
:100FD000044AC1F30221515CC84070472000002040
:100FE000001002404623000804480549006849688B
:100FF000044AC1F3C221515CC84070472000002060
:1010000000100240462300080E4A51680E4801F0C5
:101010000C03042B11D0082B0FD10C48C1F38343D0
:10102000C903C05C0AD55168084AC1F34041921E09
:10103000515C054A5043B0FBF1F070470449484306
:10104000704700000010024000127A0026230008BA
:1010500000093D0030B585B00020029002200190CB
:10106000032003900B4C4FF480700090A0690D4654
:1010700040F00400A061A069694600F004000490FB
:101080000548FFF763FD606820F0E060284360607A
:1010900005B030BD00100240000801402DE9F84FB6
:1010A000040070D02078C04DC00749D06868C0F3F4
:1010B0008100012807D06868C0F38100022809D1A7
:1010C0006868C00306D52868800339D560680028A1
:1010D000E7D035E06068B0F5803F0BD010B1B0F5D7
:1010E000A02F11D0286820F480302860286820F4D0
:1010F000802002E0286840F480302860606890B169
:10110000FFF72EFE06460AE0286840F4802028609B
:10111000F0E700BFFFF724FE801B642873D828681F
:101120008003F7D50CE0FFF71BFE064605E000BF85
:10113000FFF716FE801B6428F0D828688003F7D4D8
:1011400020789A4E80074FF001094FF0000839D5FA
:10115000686810F00C0F07D06868C0F3810002289F
:1011600009D16868C00306D42868800714D52069AF
:10117000012808D110E02069B0B1C6F80090FFF74F
:10118000EFFD074605E00AE1FFF7EAFDC01B022874
:10119000C4D828688007F7D52868616920F0F8006E
:1011A00040EAC10028600DE0C6F80080FFF7D8FDD6
:1011B000074604E0FFF7D4FDC01B022823D82868A7
:1011C0008007F7D4207800072CD57948A169D9B1D8
:1011D000C0F80090FFF7C4FD074604E0FFF7C0FD2C
:1011E000C01B02280FD8686A8007F7D571484FF4F2
:1011F000FA510068B0FBF1F0009000BF0098411E6A
:101200000091FAD20EE080E0C0F80080FFF7A8FD60
:10121000074604E0FFF7A4FDC01B022875D8686AE2
:101220008007F7D42078400760D5E8690027C00020
:1012300008D4E86940F08050E861E869012700F0CF
:10124000805000905C480168C90513D4016883464A
:1012500041F480710160FFF783FD824606E000BF24
:10126000FFF77EFDA0EB0A0064284ED8DBF80000F3
:10127000C005F5D5E06801280AD008B1052813D0CB
:10128000286A20F001002862286A20F0040002E0A9
:10129000286A40F001002862E06841F2883B98B17A
:1012A000FFF75EFD82460BE0286A40F004002862EA
:1012B000EEE700BFFFF754FDA0EB0A0159455AD8ED
:1012C000286A8007F6D50CE0FFF74AFD824605E064
:1012D000FFF746FDA0EB0A0159454CD8286A800764
:1012E000F6D41FB1E86920F08050E861E06988B366
:1012F0006968C1F38101022944D00228C6F86080E0
:1013000004D0FFF72DFD044638E034E0FFF728FD58
:10131000074604E0FFF724FDC01B02282BD82868ED
:101320008001F7D4206AB0F5803F05D16868A168D4
:1013300020F4003008436860D4E908010843696874
:1013400021F4741108436860C6F86090FFF708FD47
:10135000044606E025E000BFFFF702FD001B02285F
:1013600009D828688001F7D51BE000BFFFF7F8FC1B
:10137000001B022802D90320BDE8F88F28688001ED
:10138000F4D40EE00128F7D06868226A00F48031B6
:10139000914204D1616A00F47010884201D00120AA
:1013A000EAE70020E8E700000010024000004242A7
:1013B00080044242200000200070004010B5401E12
:1013C000B0F1807F01D3012010BD4FF0E0246061B7
:1013D0000F21601700F0B4FC0020A06107202061FD
:1013E000002010BD70477047F8B5016804460868D2
:1013F000CA684B6910F00F0F4FF0000559D003F089
:10140000010602F49077374365D0C10705D0D105B6
:1014100003D5616C41F001016164410705D5D9072D
:1014200003D0616C41F002016164810705D5D907E1
:1014300003D0616C41F004016164010707D502F03B
:101440002001314303D0616C41F008016164616C9B
:1014500000293AD0800604D5900602D5204600F037
:101460002BFB20684069616CC0F38010090700D431
:1014700060B3204600F0F9FA20684069400621D5A3
:101480002068143050E8001F21F0400140E80012AD
:10149000002AF5D1E06BA8B16D494163E06BFFF71D
:1014A000ABFA002811D0E06B416B01B0BDE8F04011
:1014B000084783060FD593060DD52046BDE8F840B2
:1014C00000F0FABA2046FFF78EFFF8BD2046FFF77E
:1014D0008AFF6564F8BD266B2023012E7CD1C606E9
:1014E0007AD5D60678D508684868009048694FF0E4
:1014F0000206400640D5E16B086840680004000C15
:10150000E8D0A28D8242E5D9E085886920282DD0D7
:1015100020680C3050E8001F21F4807140E8001270
:10152000002AF5D12068143050E8001F21F0010195
:1015300040E80012002AF5D12068143050E8001F5E
:1015400021F0400140E80012002AF5D184F8423031
:10155000256320680C3050E8001F21F0100140E89E
:101560000012002AF5D1E06BFFF722FA6663A08D26
:10157000E18D401A81B22AE0A08DE18D401A81B23E
:10158000E08D0028A6D00029A4D022680C3252E8B1
:10159000000F20F4907042E80007002FF5D120687A
:1015A000143050E8002F22F0010240E80027002FFD
:1015B000F5D184F84230256320680C3050E8002FC4
:1015C00022F0100240E80023002BF5D1666320468C
:1015D000FFF708FFF8BDFFE705062BD5150629D54F
:1015E00094F841002128F5D1A068B0F5805F01D1C1
:1015F0002069B0B1206A411C2162216800784860EE
:10160000E08C401E0004000CE084E3D12068C16837
:1016100021F08001C1602068C16841F04001C160D3
:10162000D8E7206A0088C0F308004860206A801C60
:101630002062E5E74006CDD55006CBD5CA682046E6
:1016400022F04002CA6084F8413000F01EF9C1E780
:101650005B1A000870B5040004D094F8410000251E
:1016600010B106E0012070BD84F84050204600F023
:1016700023F8242084F841002068C16821F4005137
:10168000C160204600F07AFA2068016921F4904197
:1016900001612068416921F02A0141612068C16827
:1016A00041F40051C1606564202084F8410084F851
:1016B00042006563002070BD30B585B00024009401
:1016C0000194029403940068184988422CD1184868
:1016D000816941F480418161816901F48041049113
:1016E000816941F0040181618069124D00F00400BC
:1016F00004904FF4007000900220019003200390AA
:1017000069462846FFF722FA2815CDE90004694604
:1017100028460294FFF71AFA002211462520FFF707
:101720008BFB2520FFF77AFB05B030BD0038014068
:1017300000100240000801402DE9F84F044690F8DF
:1017400042009A4616460D46202802D00220BDE8E7
:10175000F88FB5B1AEB100206064222184F8421048
:101760002063FFF7FDFAA6858146E685A0684FF461
:1017700080582027404501D1206920B12E46002500
:1017800029E00120E3E7002625E04B460022202146
:101790002046CDF800A000F04DFA18B184F8427050
:1017A0000320D4E726B1A06840451AD038B108E03C
:1017B00020684068C0F3080025F8020B08E02069A3
:1017C00078B12068406800F07F0000BF06F8010B88
:1017D000E08D401EE085E08D0028D6D184F842706F
:1017E000B5E720684068F1E770472DE9F843044603
:1017F00090F84100984616460D46202802D0022057
:10180000BDE8F88385B17EB100206064212084F8B2
:101810004100FFF7A5FAA6848146E684A068202748
:10182000B0F5805F02D003E00120E9E7206910B144
:101830002E4600250EE000260CE08021204600F018
:10184000F9F9A8B9C6B116F8010B21684860E08C17
:10185000401EE084E08C4B464FF00002CDF8008043
:101860000028EAD14FF04001204600F0E3F940B1F2
:1018700084F841700320C3E735F8020BC0F3080079
:10188000E3E784F841700020BAE77047FEE7000004
:10189000114810B50F490160092141604FF04041E6
:1018A000816000214FF48022C0E90312920042615E
:1018B000017641768176C17601774177FEF788FF20
:1018C00008B172B6FEE7BDE8104002210248FEF7FB
:1018D0001EBD000000640040C0000020F0B585B0CF
:1018E00000242C480094019402940394816941F0EF
:1018F00010018161816901F010010491816941F059
:1019000004018161816901F004010491816941F060
:1019100020018161816901F020010491816941F018
:101920000801816180691C4D00F0080004900122CB
:1019300040212846FFF70EFA184E012210213046AA
:10194000FFF708FA0C20CDE900040294144C694614
:101950002046FFF7FBF8A0150090022001900390AD
:1019600069462046FFF7F2F801244020CDE9000443
:101970000327CDE9024769462846FFF7E7F810201C
:10198000CDE90004CDE9024769463046FFF7DEF8AD
:1019900005B0F0BD0010024000140140000C0140F1
:1019A0000008014010B50E4C0C480C2120604FF48B
:1019B000E13060600020A060E060C4E90401A06143
:1019C000E0612046FFF746FE08B172B6FEE72068E8
:1019D000C16841F03001C16010BD00000038014015
:1019E000E8000020FEE7FEE770477047FFF7BEB94A
:1019F00030B58FB028216846FEF7CDFB14210AA828
:101A0000FEF7C9FB01210804CDE90010002402946F
:101A100002250491CDE907504FF4E0100990684683
:101A2000FFF73CFB08B172B6FEE70F20CDE90A05CF
:101A30004FF48060CDE90C4002210AA80E94FFF714
:101A40002DFA08B172B6FEE700224FF0E0611046B1
:101A5000FFF700FB0FB030BD704710B5406A0021A2
:101A6000C185C184FFF7BFFC10BD01680C3151E88E
:101A7000002F22F4907241E80023002BF5D1016879
:101A8000143151E8002F22F0010241E80023002B1D
:101A9000F5D1016B012909D101680C3151E8002F02
:101AA00022F0100241E80023002BF5D1202180F81C
:101AB000421000210163704708B590F842102229B6
:101AC00001D0022008BD82684FF480539A4201D1B0
:101AD000016921B1816A9A421BD04AB10AE00268C9
:101AE000816A5268C2F308020A80816A891C08E090
:101AF000026972B10268526802F07F020A70816A5C
:101B0000491C8162C18D491E0904090CC18503D09D
:101B10001BE002685268F1E70168CA6822F02002FF
:101B2000CA600168CA6822F48072CA6001684A69A2
:101B300022F001024A61202180F842100021416315
:101B4000026B012A03D0FFF74FFE002008BD01639E
:101B500001680C3151E8002F22F0100241E8002307
:101B6000002BF5D101680A68D20602D50A684968D7
:101B70000091818DFFF736FCE7E7000070B5044661
:101B800000680169E26821F4405111430161216953
:101B9000A0680843616908432168CA6841F20C6380
:101BA0009A430243CA6020684169A26921F44071E6
:101BB000114341611E492068884202D1FFF714FA9F
:101BC00001E0FFF701FA00EBC00101EB00126068D1
:101BD00064218000B2FBF0F3B3FBF1F36FF0180661
:101BE0007343B2FBF0F5B2FBF0F605EB830532234D
:101BF00003EB0515B5FBF1F5B6FBF1F605F0F005C5
:101C000005EB0615B2FBF0F6B2FBF0F0B0FBF1F01D
:101C10006FF01802504306EB800003EB0010B0FB9E
:101C2000F1F0216800F00F002844886070BD0000CA
:101C3000003801402DE9F843984617460D46044602
:101C4000089E24E0701C22D0FFF78AF8A0EB080061
:101C5000B0421AD8CEB12068C168490717D5802D87
:101C600015D0402D13D00168C94309070FD401686E
:101C70000025406800902046FFF7F7FE08206064CA
:101C800084F840500120BDE8F8830320FBE720687A
:101C9000006835EA000004D00020B842D2D000200D
:101CA000F1E70120F9E70000F8B5154D2868006854
:101CB0004FF00006C043800612D4134C1149002394
:101CC000207801220144401C20702846FFF734FD93
:101CD0002078642800D3267029686FF020000860FF
:101CE00028680168C943C90605D4016840680749E6
:101CF000009001200870BDE8F8400148FFF774BB70
:101D0000E800002028000020010000200000002042
:101D10000148FEF75FBC0000C0000020FEE70000A5
:101D20000FB4054B10B503A9044A029800F028F837
:101D300010BC5DF814FB00003D22000824000020C8
:101D40000907090E002804DB00F1E02080F80014E8
:101D5000704700F00F0000F1E02080F8141D70477C
:101D600002E008C8121F08C1002AFAD17047704764
:101D7000002001E001C1121F002AFBD170470000C2
:101D80002DE9FF4F8DB00F460546002606E02528B9
:101D90000BD0DDE90F1290476D1C761C28780028C7
:101DA000F5D111B03046BDE8F08F0024A246A1461F
:101DB0000122EC4900E0044315F8013F203B02FA00
:101DC00003F00842F7D128782A2810D06FF02F02AC
:101DD0002878A0F13001092914D80AEB8A0102EB16
:101DE000410144F0020400EB010A6D1CF0E701CF51
:101DF0005FEA000A03D544F40054CAF1000A44F033
:101E000002046D1C28782E2817D115F8010F44F014
:101E100004042A280ED06FF02F022878A0F1300198
:101E200009290AD809EB890102EB410100EB0109FC
:101E30006D1CF2E757F8049B6D1C28786C280FD0B6
:101E400006DC4C2817D068280DD06A2814D104E08D
:101E5000742810D07A280FD10DE044F400140AE061
:101E600044F4801401E044F440146978814202D1C2
:101E700004F580146D1C6D1C2A786E2A1FD00CDCB2
:101E8000632A31D004DC002A8BD0582A11D1A3E078
:101E9000642A68D0692A0CD165E0732A2ED004DC4C
:101EA0006F2A73D0702A04D19BE0752A6FD0782AEC
:101EB0006ED01046DDE90F129047761C50E1C4F356
:101EC0000250022806D0032809D0042801CF09D0E7
:101ED000066045E101CFF117C0E9006140E101CFA3
:101EE00006803DE106703BE117F8040B8DF8000019
:101EF00000208DF80100EB46012003E057F804BBF9
:101F00004FF0FF3061074FF0000102D40DE008F1FF
:101F10000101884649450FDA8045F8DB1BF80810B7
:101F20000029F4D108E008F1010188468142FADB7A
:101F30001BF808100029F6D1DDE90F23AAEB0800F1
:101F40008146214600F036F9304400EB080604E0F3
:101F5000DDE90F121BF8010B9047B8F10108F7D229
:101F600021464846F7E00A21C4F302534FF0000B24
:101F70000891022B04D001CFC117032B09D00AE02E
:101F8000FF1D27F00707F7E8020108E032E01FE035
:101F900020E000B2C117042B01D140B2C117031ECB
:101FA00071F1000307DA4FF0000CD0EB0C006CEB82
:101FB00001012D2302E0230504D52B238DF82430C5
:101FC000012303E0E30701D02023F7E7984658E018
:101FD0000A2110E010210EE010204FF0000B0890B5
:101FE0000CE010214FF0000B44F004044FF00809FE
:101FF000089103E008214FF0000B0891C4F302534D
:10200000022B04D001CF0021032B06D006E0FF1DD8
:1020100027F00707F7E8020103E080B2042B00D1A4
:10202000C0B24FF0000823072BD5702A07D0DDF887
:1020300020C08CF0100C5CEA0B0C05D00EE04023A5
:102040008DF82430012308E050EA010306D0302344
:102050008DF824308DF8252002239846DDF820C025
:102060008CF0080C5CEA0B0C0BD150EA010301D197
:10207000630706D530238DF824304FF00108A9F10D
:102080000109582A04D038A20B9208AA0A920BE040
:102090003AA2F9E75B46089AFEF788F80B9B9B5C2F
:1020A0000A9A521E0A92137050EA0102F2D10A985B
:1020B000ADEB000000F1200B600702D524F4803462
:1020C00001E04FF00109D94502DDA9EB0B0000E06A
:1020D000002000EB0B0141440890AAEB010AE00349
:1020E00006D4DDE90F232146504600F063F806448C
:1020F0004FF0000908E009A911F80900DDE90F1205
:10210000904709F10109761CC145F4DBE0030CD5C9
:10211000DDE90F232146504600F04CF8064404E068
:10212000DDE90F1230209047761C0899481E089070
:102130000029F5DC08E00A980A990078491C0A9100
:10214000DDE90F129047761CBBF10001ABF1010BEA
:10215000F1DC21465046DDE90F2300F019F8064472
:102160006D1C1BE609280100303132333435363717
:1021700038396162636465660000000030313233D3
:102180003435363738394142434445460000000073
:102190002DE9F041044600251E461746880404D464
:1021A00005E039462020B0476D1C641EF9D528464D
:1021B000BDE8F0812DE9F041044600251E46904619
:1021C000C80301D5302700E02027880404D505E0A6
:1021D00041463846B0476D1C641EF9D52846BDE817
:1021E000F081000000B58BB001210020CDE9051081
:1021F0000290039000900190079108910490694625
:102200000548FEF7F5F8010004D004A0FFF788FDAB
:1022100072B6FEE70BB000BDC000002043414E2067
:1022200046696C74657220736574204661696C211F
:10223000636F64653A25640D0A00000013B54FF022
:10224000FF33012269460248FFF7CFFA00981CBD10
:10225000E8000020FEF792FDFFF7CAFBFFF73EFB08
:10226000FFF7A0FBFFF714FB4FF47A70FEF75CFC5E
:10227000FFF7B8FFFDF7EEFF184D0026A87880B1F4
:10228000AE7017A0FFF74CFD144F00240B3719A0B8
:10229000395DFFF745FD641C082CF8DB14A0FFF73F
:1022A0003FFD2878012813D12E70697813A0FFF71D
:1022B00037FD0024184F04E0395D18A0FFF730FD0A
:1022C000641C68788442F7DB09A0FFF729FD6E7073
:1022D00010211348FEF736FDD0E700000000002073
:1022E00043414E207265636569766520646174615F
:1022F0000D0A000020307825303278006C656E675A
:102300007468206F6620727820646174613A2025B9
:1023100064210D0A00000000280000202563000051
:10232000000C0140010202030405060708090A0B1C
:102330000C0D0E0F10100000000000000000010244
:10234000030406070809000000000102030400005E
:10235000702300080000002028000000601D000815
:10236000982300082800002008050000701D0008C0
:10237000000000000000000000000000000000005D
:10238000000000000100000010000000000000003C
:0823900000127A0000000000B9
:0400000508000131BD
:00000001FF
