:020000040800F2
:100000008086002045010008731F0008B119000810
:10001000711F0008D1020008A9220008000000009A
:10002000000000000000000000000000771F000832
:10003000D302000800000000751F0008791F0008A7
:100040005F0100085F0100085F0100085F01000810
:100050005F0100085F0100085F0100085F01000800
:100060005F0100085F0100085F0100085F010008F0
:100070005F0100085F0100085F0100085F010008E0
:100080005F0100085F0100085F0100085F010008D0
:100090005F0100085F0100085F0100085F010008C0
:1000A0005F0100085F0100085F0100085F010008B0
:1000B000811F00085F0100085F0100085F01000860
:1000C0005F0100085F0100085F0100085F01000890
:1000D0005F0100089D2200085F0100085F01000821
:1000E0005F0100085F0100085F0100085F01000870
:1000F0005F0100085F0100085F0100085F01000860
:100100005F0100085F0100085F0100085F0100084F
:100110005F0100085F0100085F0100085F0100083F
:100120005F0100085F0100085F0100085F0100082F
:10013000DFF80CD000F0BAF8004800470D33030890
:10014000808600200648804706480047FEE7FEE715
:10015000FEE7FEE7FEE7FEE7FEE7FEE7FEE7FEE777
:100160007D1F0008310100082DE9F05F05460020E1
:1001700092469B4688460646814640241BE0284618
:1001800041464746224600F051F853465A46C01AA7
:10019000914110D311461846224600F077F82D1AE7
:1001A00067EB01084F4622460120002100F06EF85F
:1001B00017EB00094E41201EA4F10104DFDC484684
:1001C00031462A464346BDE8F09F2DE9F041002420
:1001D000061B254671F1000605DA01240027D0EB45
:1001E000070067EB0101161E73F1000605DA002710
:1001F000D2EB0702012567EB0303FFF7B5FF864645
:100200000E4617469C46AC4204D00025D0EB050EA6
:1002100065EB010624B10020D2EB000760EB030C74
:10022000704631463A466346BDE8F081202A04DB39
:10023000203A21FA02F00021704721FA02F3D0405F
:10024000C2F12002914008431946704710B5431A85
:10025000934209D28318881803E010F8011D03F8AF
:10026000011D521EF9D210BD40EA01039B0703D0C5
:1002700009E008C9121F08C0042AFAD203E011F8E5
:10028000013B00F8013B521EF9D210BD202A04DBCD
:10029000203A00FA02F1002070479140C2F1200399
:1002A00020FA03F31943904070470000064C074DB5
:1002B00006E0E06840F0010394E807009847103436
:1002C000AC42F6D3FFF738FF682E0408882E0408E6
:1002D000FEE7704772B6FEE710B4B3F5804F18BF63
:1002E0006FF0704105D000BF40F8221010BC002014
:1002F0007047D1F818C00B688C6843EA0C03D1F83A
:1003000004C089894FEA0C1C4CEA042C43EA0C0314
:1003100043EA014150F82230DFF808C003EA0C0339
:100320001943E1E70000F0CF0A6850F8223023F0CB
:10033000010340F822308B68082B0CBF40220022BA
:10034000D1F804C04CEA0303D1F80CC04CEA020215
:100350001A430B691A434B691A43CB691A430B6A58
:100360001A434B6A1A438B6A1A43CB6A1A430B6BC4
:100370001A438B691A434B6B09681A43044B50F8B4
:1003800021C02CEA03031A4340F8212000207047C3
:100390007FFF0F0010B4D1E9003C43EA0C13D1F801
:1003A00008C08C894FEA0C2C4CEA044C43EA0C033D
:1003B000B1F810C0094C00EB820004EB0C5C43EA7E
:1003C0000C0391F814C0640104EB0C6C896943EAD6
:1003D0000C031943416010BC002070470000F0FF7F
:1003E00090F821200021022A05D00422826380F89F
:1003F0002010012070470268136823F00E03136079
:100400000268136823F00103136090F84030D0F8BD
:100410003CC0012202FA03F3CCF8043080F821201A
:1004200080F82010084670472DE9F05F90F8211001
:100430000024022903D004218163012477E00168AC
:100440000A6822F00E020A6001680A6822F00102BE
:100450000A60384A0168384BDFF8E0C0384D394E41
:10046000394FDFF8E880DFF8E890DFF8E8A0DFF840
:10047000E8B0DFF8E8E0914225D999420ED0614515
:1004800010D0A94212D0B14215D0B94216D0414580
:1004900008BF4FF4801113D0494501D101210FE06D
:1004A000514501D110210BE0594502D14FF4807123
:1004B00006E0714502D14FF4805101E04FF48031E4
:1004C000274A116029E0994213D0614515D0A9420D
:1004D00017D0B1421AD0B9421BD0414508BF4FF4E2
:1004E000801118D0914208BF4FF0807113D0494558
:1004F00001D101210FE0514501D110210BE05945F7
:1005000002D14FF4807106E0714502D14FF4805161
:1005100001E04FF48031134A5160012180F821102D
:10052000002180F82010416B002918BF8847204621
:10053000BDE8F09F80000240080002401C0002401D
:100540003000024044000240580002406C0002406B
:10055000080402401C0402403004024044040240EB
:10056000040402400000024070B5044600F020F987
:100570000546B4F1FF3F02D004480078044400F07F
:1005800017F9401BA042FAD370BD00000C000020F8
:1005900000230A689C46002A08BF70472DE9F84FDF
:1005A000784EDFF8DC914FF001080F2706F1040EBA
:1005B0000A6808FA03F42240A2427CD14D68A5F1F2
:1005C000805AAAF5881A4D4500F0C98074DC032DC5
:1005D00008BF4FF0000C1BD00DDC002D6DD0012D9D
:1005E00008BFD1F80CC013D0022D04BFD1F80CC045
:1005F0000CF1080C0CE0112D04BFD1F80CC00CF16B
:10060000040C05D0122D04BFD1F80CC00CF10C0C59
:10061000B2F5807F34BF0546051D4FEA830428BF2D
:10062000203CD5F800A007FA04FB2AEA0B0A0CFAD2
:1006300004F44AEA04042C604C6814F0805F74D01F
:10064000514CA56945F00105A561A46904F00104B8
:10065000009423F0030404F1804505F58035D5F8B6
:1006600008A04FEA83744FEA147407FA04FB2AEADD
:100670000B0AA0F1804BBBF5843B2CD0A0F1804B42
:10068000BBF5863B08BF4FF0010B24D0A0F1804B97
:10069000BBF5883B08BF4FF0020B1CD0A0F1804B8C
:1006A000BBF58A3B08BF4FF0030B14D0A0F1804B81
:1006B000BBF58C3B02E038E03EE050E008BF4FF075
:1006C000040B08D0A0F1804BBBF58E3B0CBF4FF064
:1006D000050B4FF0060B0BFA04F444EA0A04AC6075
:1006E0004C6814F4801F346814BF1443944334607E
:1006F0004C6814F4001FDEF8004014BF1443944308
:10070000CEF800404C6814F4003F204C256814BF1C
:100710001543954325604C6814F4803F1C4C2568B4
:1007200014BF2A4325EA020222600A685B1CDA40F1
:100730007FF43EAFBDE8F88FBAF5881F0FD007DC15
:10074000BAF5803F18BFBAF5801F7FF461AF06E0AD
:10075000BAF5001F18BFBAF5041F7FF459AFD1F8DE
:1007600008C0BCF1000F08BF4FF0040C3FF450AFBD
:10077000BCF1010F4FF0080C0CBF0461446147E766
:100780000000111008040140001002400404014060
:1007900000040140C26821EA0203114043EA01411A
:1007A00001617047002A08BF090401617047000019
:1007B00001488068704700000C00002002488168F2
:1007C00002781144816070470C000020074810B582
:1007D000016841F010010160032000F08BF80F2048
:1007E00000F006F800F024F8002010BD00200240C0
:1007F00070B50D4D04464FF47A712878B1FBF0F0D6
:100800000A490968B1FBF0F000F0C8FB48B9102CA8
:1008100007D200222146501E00F03AF800206C60FA
:1008200070BD012070BD00000C00002018000020E9
:100830000D4881B0816941F001018161816901F058
:1008400001010091C16941F08051C161C06900F0AE
:10085000805000900548416821F0E06141F000714E
:10086000416001B0704700000010024000000140EC
:100870000028B8BF704700F01F01012202FA01F101
:100880004009800000F1E020C0F80011704700002E
:10089000174B10B41B68C3F30223C3F1070CBCF160
:1008A000040F88BF4FF0040C1C1D072C34BF00231D
:1008B000DB1E012404FA0CFCACF1010C0CEA010172
:1008C000994004FA03F35B1E1A40114300284FEAD3
:1008D0000111A1BF00F1E02080F8001410BC7047A6
:1008E00000F00F0000F1E02080F8141D10BC7047EC
:1008F0000CED00E0074900F007000A684FF6FF031F
:100900001A4042EA002040F0FD7040F0806008602C
:10091000704700000CED00E0002804BF0120704784
:100920002DE9F047DFF8788105460E46D8F800003B
:1009300000F00700B0420CD2D8F8000020F0070009
:100940003043C8F80000D8F8000000F00700B042BB
:1009500063D12868534C10F0020F14D010F0040F2C
:1009600003D0606840F4E0606060287810F0080F01
:1009700003D0606840F4605060606068A96820F04F
:10098000F00008436060287810F0010F32D06868EA
:1009900001281FD02168022821D011F0020F3CD07D
:1009A000616821F0030108436060FFF701FF07461B
:1009B0006068696800F00C00B0EB810F18BF41F26D
:1009C000883917D0FFF7F4FEC01B48450BD9032028
:1009D000BDE8F087216811F4003FE1D11DE011F07E
:1009E000007FDDD119E06068696800F00C00B0EBB1
:1009F000810FE7D1D8F8000000F00700B0420FD90E
:100A0000D8F8000020F007003043C8F80000D8F8FC
:100A1000000000F00700B04202D00120BDE8F087DE
:100A2000287810F0040F05D06068E96820F4E060D1
:100A300008436060287810F0080F06D060682969C4
:100A400020F4605040EAC10060606168164801F01F
:100A50000C02042A14D0082A12D11448C1F383428C
:100A600011F4803F805C04BF1149484308D061689D
:100A7000104AC1F34041515C0B4A5043B0FBF1F0C6
:100A800061680D4AC1F30311515CC8400B4908600D
:100A90000B480068FFF7ACFE0020BDE8F0870000BF
:100AA000002002400010024000127A00F6C803083D
:100AB00000093D00F4C8030806C903081800002017
:100AC000100000200448054900684968044AC1F341
:100AD0000221515CC84070471800002000100240FD
:100AE00016C903080448054900684968044AC1F367
:100AF000C221515CC840704718000020001002401D
:100B000016C90308002804BF012070472DE9F84FDB
:100B100004460078E84D10F0010F59D0686800F0E5
:100B20000C00042808D0686800F00C0008280CD1DC
:100B3000686810F4803F08D0286810F4003F47D060
:100B40006068002800F0B28142E06068B0F5803F44
:100B500004BF286840F480300AD010B1B0F5A02F4F
:100B600011D0286820F480302860286820F4802084
:100B700028606068D0B1FFF71BFE0646286810F4B5
:100B8000003F08D024E0286840F4802028602868CE
:100B900040F48030ECE7FFF70BFE801B642800F286
:100BA0003681286810F4003FF5D011E0FFF700FE11
:100BB0000646286810F4003F0AD000BFFFF7F8FD92
:100BC000801B642800F22381286810F4003FF5D1CF
:100BD0002078BA4E10F0020F4FF0010B4FF00008D2
:100BE00045D0686810F00C0F14D0686800F00C0055
:100BF000082804BF686810F4803F0BD0206918B340
:100C0000C6F800B0FFF7D4FD0746286810F0020FC1
:100C100009D011E0286810F0020F1CBF20690128DC
:100C20000AD000F043B9FFF7C3FDC01B02287DD8EE
:100C3000286810F0020FF6D02868616920F0F800EB
:100C400040EAC100286012E0C6F80080FFF7B0FD5E
:100C50000746286810F0020F09D000BFFFF7A8FD73
:100C6000C01B022862D8286810F0020FF6D1207845
:100C700010F0080F35D09248A169F9B1C0F800B062
:100C8000FFF796FD0746686A10F0020F09D100BF12
:100C9000FFF78EFDC01B022848D8686A10F0020FCB
:100CA000F6D0884801684FF4FA50B1FBF0F000909C
:100CB00000BF0098411E0091FAD212E0C0F80080F7
:100CC000FFF776FD0746686A10F0020F09D000BFF3
:100CD000FFF76EFDC01B022828D8686A10F0020FCB
:100CE000F6D1207810F0040F79D0E8694FF0000AAF
:100CF00010F0805F09D1E86940F08050E861E86950
:100D00004FF0010A00F080500090DFF8BC91D9F854
:100D1000000010F4807F19D1D9F8000040F48070F1
:100D2000C9F80000FFF744FD074600E06FE0D9F87E
:100D3000000010F4807F09D1FFF73AFDC01B642842
:100D400065D8D9F8000010F4807FF5D0E06801285C
:100D500004BF286A40F0010009D008B1052813D06B
:100D6000286A20F001002862286A20F00400286226
:100D7000E06841F28837D0B1FFF71AFD8146286A52
:100D800010F0020F08D023E0286A40F00400286227
:100D9000286A40F00100EAE7FFF70AFDA0EB09002E
:100DA000B84234D8286A10F0020FF5D010E0FFF7EF
:100DB000FFFC8146286A10F0020F09D0FFF7F8FC0B
:100DC000A0EB0900B84222D8286A10F0020FF5D132
:100DD000BAF1000F03D0E86920F08050E861E069C3
:100DE000F0B3696801F00C01082950D00228C6F858
:100DF00060800FD0FFF7DCFC0446286810F0007F0D
:100E000057D000BFFFF7D4FC001B02283AD90320BB
:100E1000BDE8F88FFFF7CCFC0746286810F0007F8C
:100E200009D000BFFFF7C4FCC01B0228EFD8286818
:100E300010F0007FF6D1206AB0F5803F05D16868D8
:100E4000A16820F4003008436860D4E90801084331
:100E5000696821F4741108436860C6F860B000E066
:100E600027E0FFF7A5FC0446286810F0007F20D19A
:100E7000FFF79EFC001B0228C9D8286810F0007FED
:100E8000F6D016E0286810F0007FBBD111E00128F1
:100E900008BFBDE8F88F6868226A00F4803191428B
:100EA00004D1616A00F47010884202D00120BDE8CC
:100EB000F88F0020BDE8F88F001002400000424289
:100EC00080044242180000200070004070B51546B2
:100ED0000E46040019BFA069B0F5807F012070BDE7
:100EE00094F8410030B94FF0000084F840002046EB
:100EF00000F01EF804F108012068FFF715FA3146EA
:100F0000A2682068FFF746FAD4E901022946236B5C
:100F1000FFF7E2F9A168206850F8212042F00102B1
:100F200040F82120012084F84100002070BD00001D
:100F300030B585B0002000900190029003901348D6
:100F4000016800291CBF05B030BD012101601048B7
:100F5000416941F4807141614069022400F480706C
:100F600004904FF68070CDE900040325694603958F
:100F70000848FFF70DFB4CF6B370CDE90004694655
:100F800003950548FFF704FB05B030BD04000020C1
:100F9000001002400018014000140140411EB1F150
:100FA000807F24BF012070474FF0E0204161054A57
:100FB000F02182F8141D00218161072101610020C8
:100FC000704700000FE000E07047704790F83C2049
:100FD000012A04BF0220704730B4012380F83C305E
:100FE000022280F83D2002685468D2F808C00D68DB
:100FF00024F070042C4354600268A2F18044B4F5DC
:1010000096341CBFA2F18044B4F59A3411D0B2F1E9
:10101000804F1CBFA2F18044B4F5806409D0A2F1D6
:101020008044B4F500641CBFA2F18044B4F5406470
:1010300005D149682CF0800C41EA0C01916080F8E0
:101040003D30002180F83C1030BC08467047002835
:1010500004BF0120704710B5044690F83D0028B940
:10106000002084F83C00204600F01EF8022084F89E
:101070003D00211D206800F089FF012084F8460012
:1010800084F83E0084F83F0084F8400084F8410072
:1010900084F8420084F8430084F8440084F8450052
:1010A00084F83D00002010BD08B50068B0F1804F05
:1010B00018BF08BD0948C16941F00101C161C0699B
:1010C000002200F00100009011461C20FFF7E0FB19
:1010D000BDE808401C20FFF7CBBB00000010024019
:1010E00090F83D1001291CBF01207047022180F8B3
:1010F0003D100168CA6842F00102CA600068A0F1B0
:101100008041B1F596311CBFA0F18041B1F59A3113
:1011100011D0B0F1804F1CBFA0F18041B1F58061CA
:1011200009D0A0F18041B1F500611CBFA0F1804160
:10113000B1F5406104D1816801F00701062903D0AF
:10114000016841F0010101600020704790F83C20E7
:101150000023012A0DBF02204FF0010C80F83CC093
:10116000704770B4022280F83D200268946824F031
:10117000770424F47F4494600A68502A43D00CDC3E
:10118000202A75D004DC002A18BF102A0FD18BE06A
:10119000302A6DD0402A6DD009E0602A4DD0702AE7
:1011A0000ED0B2F5805F03D0B2F5005F19D00123F5
:1011B00080F83DC0002180F83C1070BC1846704794
:1011C000D1E901450268C968966844EA012126F41C
:1011D0007F4629433143916001688A6842F0770273
:1011E0000FE0D1E901450268C968966844EA012127
:1011F00026F47F4629433143916001688A6842F4AE
:1012000080428A60D4E702684C68C968156A166A29
:1012100026F001061662966925F00A0526F0F0060A
:1012200046EA01112C439161146201688A6822F038
:10123000700242F057028A60BAE702684C68C968D7
:10124000156A166A26F010061662966925F0A00542
:1012500026F4704646EA013145EA041491611462AD
:1012600001688A6822F0700242F067028A609FE794
:101270001AE0FFE702684C68C968156A166A26F02A
:1012800001061662966925F00A0526F0F00646EA80
:1012900001112C439161146201688A6822F0700286
:1012A00042F047028A6083E701688C6824F070048A
:1012B000224342F007028A607AE770472DE9F04145
:1012C00004460068C66805694FF0000715F0020F74
:1012D00018BF16F0020F13D06FF002010161012058
:1012E00020772068806910F0030F204602D0FFF7B6
:1012F000E4FF04E000F08CF8204600F08AF827773D
:1013000015F0040F18BF16F0040F14D021686FF009
:1013100004000861022020772068806910F4407F73
:10132000204602D0FFF7C9FF04E000F071F8204624
:1013300000F06FF8277715F0080F18BF16F0080FA8
:1013400014D021686FF0080008610420207720681D
:10135000C06910F0030F204602D0FFF7AEFF04E093
:1013600000F056F8204600F054F8277715F0100FDB
:1013700018BF16F0100F14D021686FF0100008612C
:10138000082020772068C06910F4407F204602D0F2
:10139000FFF793FF04E000F03BF8204600F039F837
:1013A000277715F0010F18BF16F0010F06D021683E
:1013B0006FF001000861204600F02CF815F0800F56
:1013C00018BF16F0800F06D021686FF0800008610A
:1013D0002046FFF7F9FD15F0400F18BF16F0400F3B
:1013E00006D021686FF040000861204600F038F810
:1013F00015F0200F14BF16F0200FBDE8F0816FF03C
:101400002000216808612046BDE8F041FFF7DDBDFE
:101410007047704710B5044640210D48FFF7BAF9F0
:101420000C4920680968884218BF10BD0A48018825
:10143000491C89B20180B1F5FA7F18BF10BD0021A7
:101440000180BDE8104010210448FFF7A3B9000057
:10145000001401403801002000000020000C014071
:101460007047704770470000F8B501680446086887
:10147000CA684B6910F00F0F4FF020064FF00005BF
:1014800060D003F0010C02F490775CEA07077CD08F
:1014900010F0010F18BF12F4807F03D0616C41F08F
:1014A0000101616410F0040F18BF13F0010F03D0A5
:1014B000616C41F00201616410F0020F18BF13F07B
:1014C000010F03D0616C41F00401616410F0080F5A
:1014D0001CBF02F0200151EA0C0103D0616C41F005
:1014E00008016164616C002908BFF8BD10F0200F8D
:1014F0001EBF12F0200F204600F0A4FD20684069B6
:10150000616CC0F3801011F0080F08BF002857D09D
:10151000206800F10C0151E8000F20F4907041E8C0
:101520000002002AF4D1206800F1140151E8000FF4
:1015300020F0010041E80002002AF4D1206B0128CC
:1015400015D10AE010F0200F18BF12F0200F3CD088
:101550002046BDE8F84000F075BD20680C3050E82A
:10156000001F21F0100140E80012002AF5D184F894
:10157000426025632068406910F0400F1CD020684D
:1015800000F1140151E8000F00E01EE020F04000DF
:1015900041E80002002AF2D1E06B68B1734941636F
:1015A000E06BFEF741FF002808BFF8BDE06B416B20
:1015B00001B0BDE8F04008472046FFF753FFF8BDF3
:1015C0002046FFF74FFF6564F8BD236B012B7CD1EC
:1015D00010F0100F18BF12F0100F76D0086848688E
:1015E000009048694FF0020710F0400F45D0E16BC2
:1015F000086840680004000C1CBFA28D824298BF9E
:10160000F8BDE085886920282ED020680C3050E88D
:10161000001F21F4807140E80012002AF5D12068F3
:10162000143050E8001F21F0010140E80012002AA8
:10163000F5D1206800F1140151E8000F20F04000BE
:1016400041E80002002AF4D184F842602563206852
:101650000C3050E8001F21F0100140E80012002A71
:10166000F5D1E06BFEF7BCFE6763A08DE18D401AFB
:1016700081B22046FFF7F5FEF8BDA08DE18D401A3E
:1016800081B2E08D002814BF0029F8BD206800F168
:101690000C0252E8000F20F4907042E80003002B87
:1016A000F4D1206800F1140050E8002F22F001026C
:1016B00040E80023002BF4D184F8426025632068C1
:1016C00000F10C0252E8000F00E00AE020F01000E8
:1016D00042E80003002BF2D167632046FFF7C1FE0A
:1016E000F8BD10F0800F18BF12F0800F2DD094F8C5
:1016F0004100212818BFF8BDA068B0F5805F04BF85
:1017000020690028206A18D000F1010121622168B7
:1017100000784860E08CA0F101000004000CE08437
:1017200018BFF8BD2068C16821F08001C160206841
:10173000C16841F04001C160F8BD0088C0F30800F5
:101740004860206A801C2062E4E710F0400F14BF5C
:1017500012F0400FF8BD2046CA6822F04002CA606D
:1017600084F8416000F023F9F8BD0000352000083E
:10177000002804BF0120704770B5044690F841006E
:10178000002520B984F84050204600F023F824209A
:1017900084F841002068C16821F40051C1602046EE
:1017A00000F0B8FC2068016921F4904101612068D3
:1017B000416921F02A0141612068C16841F400516A
:1017C000C1606564202084F8410084F842006563AC
:1017D000002070BD30B585B00024009401940294BF
:1017E00003940068A0F18041B1F59C311CBF05B0A5
:1017F00030BD1748816941F480418161816901F4FC
:1018000080410491816941F0040181618069114D39
:1018100000F0040004904FF400700090022001904A
:101820000320039069462846FEF7B2FE2815CDE94D
:101830000004694628460294FEF7AAFE00221146DB
:101840002520FFF725F82520FFF712F805B030BD59
:101850000010024000080140704700002DE9F84FD9
:10186000044690F841001D461646884620281CBFB5
:101870000220BDE8F88FB8F1000F12BF002E012042
:10188000BDE8F88F4FF0000BC4F844B04FF02100D2
:1018900084F84100FEF78CFFA6848146E684A068A8
:1018A000B0F5805F07BF2069002846464FF000086A
:1018B00008BF0026E08C4FF0200A00285ED0206888
:1018C0008027006837EA00004DD000BFB5F1FF3F28
:1018D00044D0FEF76DFFA0EB0900A8425BD8002DB5
:1018E00059D02068C16811F0040F18BF802F35D07F
:1018F000402F1CBF016811F0080F2FD0016840680D
:101900000090206800F10C0151E8000F20F4907065
:1019100041E80002002AF4D1206800F1140050E8E8
:10192000001F21F0010140E80012002AF4D1206BD1
:1019300001280AD1206800F10C0151E8000F20F0C5
:10194000100041E80002002AF4D184F842A0C4F853
:1019500030B00820606484F840B01CE02068006863
:1019600037EA0000B2D1DEB1216816F8010B4860F9
:10197000E08C401EE084E08C0028A0D14B46002281
:1019800040212046009500F02BFC002804BF84F87D
:1019900041A0BDE8F88F84F841A00320BDE8F88F8E
:1019A00038F8020B2168C0F308004860E0E7704790
:1019B000FEE700002DE9F05F00224FF48051DC4883
:1019C000FEF7F0FE6420FEF7CFFDDA4C0022022184
:1019D0002046FEF7E7FE6420FEF7C6FD0122022145
:1019E0002046FEF7DFFE7820FEF7BEFD0420A504AA
:1019F00028800520FEF7B8FDCF4C2088208820885D
:101A00004FF6FF7101EA00202188022308430026D7
:101A10000127A0F51341413908BFBE4605D0A0F506
:101A2000054152390CBF9E46B646C448BEF1000F70
:101A300080F801E014D0C120032112224FF0CF0B17
:101A40004FF030094FF0ED0A4FF0810C4FF02C08A9
:101A5000BEF1010F05D0BEF1020F7CD000F055B9E8
:101A6000FEE7A5F800B026802080A4F80090A5F835
:101A700000A04FF06409A4F8009021802280A4F80F
:101A800000C04FF0E80CA5F800C04FF0850CA4F89A
:101A900000C04FF0100BA4F800B04FF07A0CA4F87F
:101AA00000C04FF0CB0CA5F800C04FF0390CA4F8E3
:101AB00000C0A4F8008026804FF0340CA4F800C0C9
:101AC0002380F7232B8020232380EA232B8026806A
:101AD0002680C0232B801B23238028802280C522C0
:101AE0002A803F2222803C222280C7222A80912203
:101AF000228036222A80482222803A222A805522B9
:101B00002280B1222A80268018222280B6222A80B2
:101B10000A222280A2222280F2222A8026802622E5
:101B20002A802780E0222A800F22228031232380EE
:101B30004FF02B0CA4F800C04FF00C0EA4F800E0FE
:101B40004FF00E0CA4F800C04FF00809A4F8009064
:101B50004FF04E0A00E037E0A4F800A04FF0F10A81
:101B6000A4F800A04FF0370AA4F800A04FF0070A2D
:101B7000A4F800A0A4F800B02180A4F800C04FF0A1
:101B8000090BA4F800B026804FF0E10BA5F800B0D7
:101B90002680A4F800C04FF0140CA4F800C02180E7
:101BA00011212180A4F800A02380208048202080DB
:101BB000A4F800902280A4F800E023803620208042
:101BC000228029202880A0E0A5F800B0268020806F
:101BD000A4F80090A5F800A04FF0640AA4F800A0B3
:101BE00021802280A4F800C0E8212980852121805D
:101BF0001021218078212180CB2129803921218049
:101C0000A4F800802680342121802380F7212980B8
:101C100020212180EA21298026802680C021298058
:101C20002121218028804FF0110EA4F800E0C5206A
:101C300028804FF02D0BA4F800B0332020803620F0
:101C4000288026803A20288055202080B1202880B6
:101C500026804FF0170AA4F800A0B62028800A209A
:101C60002080A2202080F62028802780A4F80090E1
:101C7000F22028802680262028802780E0202880C7
:101C8000D020208026802380072121804FF00B0C5C
:101C9000A4F800C04FF01A0CA4F800C04FF0310CAB
:101CA000A4F800C04FF0540CA4F800C04FF0400C52
:101CB000A4F800C04FF02909A4F8009022802280E7
:101CC0002280A4F800A0E1222A80208026802380A0
:101CD00021800520208025202080A4F800B0442009
:101CE0002080452020801C20208018212180162162
:101CF000218020801D202080A5F800E09620FEF79E
:101D000033FCA5F80090A5F800802A2028802680C2
:101D100026802680EF2020802B2028802680268089
:101D200027803F202080A5F80080BDE8F09F0000BC
:101D30000014014000180140000002601C00002057
:101D400000B587B0174800214FF02042069102608D
:101D5000154AC0E901211022C160C0E90412816165
:101D6000C16113020162C0E90913C16201634163E9
:101D700081630F20FF210090CDE90101CDE903022D
:101D800011200590002269460648FFF79FF80028B9
:101D900018BFFEF79FFA0548C16941F48061C1612F
:101DA00007B000BDF0000020040100A000000140C9
:101DB0002DE9F04786B000263F480096019602962E
:101DC0000396816941F010018161816901F0100180
:101DD0000491816941F040018161816901F0400114
:101DE0000491816941F020018161816901F0200144
:101DF0000491816941F004018161816901F004016C
:101E00000491816941F00801816180692B4F00F0E4
:101E10000800049000224FF400513846FEF7C2FC3F
:101E2000DFF89C800022B9144046FEF7BBFC01227B
:101E300040214046FEF7B6FCDFF8889001221021D1
:101E40004846FEF7AFFCDFF880A001220221504691
:101E5000FEF7A8FC01247814CDE9000403256946A7
:101E60003846CDE90245FEF793FB2003CDE9000497
:101E700069464046CDE90245FEF78AFB4020CDE9A0
:101E80000004CDE9026569464046FEF781FB10205B
:101E9000CDE90004CDE9026569464846FEF778FBC6
:101EA0000220CDE9000469465046CDE90245FEF71F
:101EB0006FFB06B0BDE8F087001002400010014043
:101EC00000140140000C01400018014010B586B01C
:101ED00000241848009401940294039404944FF051
:101EE0008041059401604721C0E9011440F2E731C7
:101EF000C0E9031480218161FFF7A9F8002818BF09
:101F0000FEF7E8F94FF48050009069460948FFF762
:101F10001DF9002818BFFEF7DDF9049404A905484F
:101F20000594FFF753F8002818BFFEF7D3F906B061
:101F300010BD0000380100200C4810B50A490160AE
:101F40004FF4E1314160002181600C22C160C0E9A1
:101F500004128161C161FFF70BFC002808BF10BDAE
:101F6000BDE81040FEF7B6B90038014080010020FE
:101F7000FEE7FEE770477047FEF720BC70470000A1
:101F80000148FFF79BB9000038010020F0B4026857
:101F9000234B244C244D254EDFF894C0984218BFA3
:101FA000604508D0B0F1804F18BFA04203D0A842CE
:101FB00018BFB04204D14F6822F0700247EA020213
:101FC000984218BF604508D0B0F1804F18BFA042BA
:101FD00003D0A84218BFB04204D1CC6822F44072AA
:101FE00044EA02024C6922F0800242EA04020260E2
:101FF0008A68C2620A688262984212BF60450969B3
:1020000001634FF001014161016911F0010F04BF4B
:10201000F0BC7047016921F001010161F0BC70471B
:10202000002C01400004004000080040000C00406B
:102030000034014010B5406A0021C185C184FFF71A
:1020400011FA10BD08B590F8421022291CBF0220D9
:1020500008BD8268B2F5805F04BF01690029816A0A
:1020600018D0B2F5805F1DD0002A04BF0269002A93
:1020700018D00268526802F07F020A70816A01F18A
:1020800001018162C18DA1F101010904090CC18521
:102090000BD025E002685268C2F308020A80816A08
:1020A000891CEEE702685268E7E70168CA6822F017
:1020B0002002CA600168CA6822F48072CA6001689E
:1020C0004A6922F001024A61202180F84210002171
:1020D0004163026B012A08BF016303D0FFF7BCFB19
:1020E000002008BD016801F10C0252E8001F21F038
:1020F000100142E80013002BF4D101680A6812F0C5
:10210000100F02D00A6849680091818DFFF7A9F984
:10211000E6E7000070B5044600680169E26821F452
:102120004051114301612169A0680843616901437D
:102130002068C26822F4037222F4A0521143C160E5
:1021400020684169A26921F440711143416120680E
:10215000A0F18041B1F59C313CD0FEF7B3FC00BF4B
:1021600000EBC00101EB001260681C498000B2FB6B
:10217000F0F3A1FB0353B2FBF0FC5B096FF0180511
:102180006B430CEB830C322303EB0C1CA1FB0C5CAC
:102190004FEA5C1C0CF0F005B2FBF0FCA1FB0C6CF0
:1021A0004FEA5C1C05EB0C1CB2FBF0F5B2FBF0F047
:1021B000A1FB002040096FF01802504305EB80009E
:1021C00003EB0010A1FB00102168C0F34310604432
:1021D000886070BDFEF786FCC2E700001F85EB51EA
:1021E000F8B504460068069E1F4600680D4631EAB1
:1021F000000050D0B6F1FF3F48D0FEF7D9FAC01B1F
:10220000B0422CD85EB32068C16811F0040F18BF2B
:10221000802D3BD0402D1CBF016811F0080F35D038
:1022200001684FF0000240680090206800F10C0146
:1022300051E8000F20F4907041E80003002BF4D126
:10224000206800F1140151E8000F20F0010041E87E
:102250000003002BF4D1206B01280DD101E00320F5
:10226000F8BD206800F10C0151E8000F20F01000CB
:1022700041E80003002BF4D1202084F842002263BF
:102280000820606484F840200120F8BD20680068C0
:1022900035EA0000AED10020F8BD00000148FFF78C
:1022A000E3B8000080010020FEE70A6802600B79B5
:1022B0000371704702E008C8121F08C1002AFAD152
:1022C00070477047002001E001C1121F002AFBD1B6
:1022D000704700002DE9F04F83B04FF03005DDE985
:1022E0001186DDE90C74DDE90EA9DDF840C016F0B9
:1022F000020F1DD1B8F1000F18BF16F0010F06D064
:1023000006F00C0B5BEA0A0B18BFA8F10108644544
:102310003EBF202C3D55641CF9D300BF16F0010FC1
:1023200018BFA04504D9202C3CBF3D55641CF5D3F3
:1023300016F0100F35D016F4806F0CD15CB16445E7
:1023400018BF444507D1641E05D0B9F1100F08BF6E
:10235000641E07D002E0B9F1100F03D0B9F1020FEB
:1023600013D019E016F0200F07D0202C35D24FF0F3
:10237000580C07F804C0641C0EE0202C2DD24FF03E
:10238000780C07F804C0641C06E0202C25D24FF01E
:10239000620C07F804C0641C202C3CBF3D55641C33
:1023A0001BD2202C19D2BAF1000F05D04FF02D0C02
:1023B00007F804C0641C10E016F0040F05D04FF0BD
:1023C0002B0C07F804C0641C07E016F0080F04D0BB
:1023D0004FF0200C07F804C0641CCDE900318246A0
:1023E0001546914616F0030F0CD1A346444509D279
:1023F0002A46DDE900316D1C2020D0470BF1010B8E
:10240000C345F5D344B12A466D1C641EDDE9003195
:10241000385DD047002CF6D116F0020F1CBFA5EB9B
:102420000900804509D92A46DDE900316D1C2020CC
:10243000D047A5EB09008045F5D803B02846BDE894
:10244000F08F9A4238BF8854704770472DE9F041A9
:1024500084B00E46054604002ED0002E39D004F17B
:1024600024002AF0B3F80090002846D0D0F810805D
:10247000616840460AF032FE0746314640466268CF
:1024800023F070F904F1300022F095FF019000284C
:102490002CD00422694623F065F9009804220169D2
:1024A000E06A084401A9001F23F05CF92146384680
:1024B00062680AF09DFE20E021A0009019A21DA1F3
:1024C000CDE901120022264B1146032023F046F8E5
:1024D000FEE71BA0009013A222A1CDE90112002269
:1024E0001F4B1146032023F039F8FEE704F12400C6
:1024F000009929F067FF002000900098002804BF91
:1025000004B0BDE8F081696800690AF0E7FD07469C
:10251000E16B30468847E9680844E86004B0384613
:10252000BDE8F0814E554C4C20706F696E74657239
:10253000000000006C727520213D204E554C4C006F
:10254000417373657274656420617420657870727C
:10255000657373696F6E3A202573202825732900EF
:102560007F0904086B657920213D204E554C4C00B5
:102570002DE9F14F8AB00A98406801900A98806866
:1025800000900A9890F821A00568C06805900A9804
:10259000D0E9064004900A98D0E9046006900A98B1
:1025A000406AC11700EB517121F00701401A0290F7
:1025B0000A9890F822100120002972D0002103917E
:1025C00000990029DCBF0BB0BDE8F08F4FF0000B85
:1025D0000198D946002852DD14F81900002E60F346
:1025E000174860F30F2860F3070804EB49004078B0
:1025F00004BF00FB0AF0000A05D016F80910484392
:1026000000FB0AF0000C60F31F680A9902980BEBBC
:10261000000791F822C04046CDF820C00CF07AFBAC
:102620000246F81707EB507005EBE00120F00703B6
:102630000978A7EB030CCCF1070C21FA0CF101F09F
:102640000101C1EB0121DDF820C0C9B28DF81C10D9
:10265000BCF1010F00F0BE81BCF1020F00F0BF81A0
:10266000BCF1030F04BF4A434FEA122E00F0BE81B3
:10267000019809F101090BF1010B8145ACDB002E3A
:102680001CBF069806440598009905440498044424
:102690000398401C0390884298DB0BB0BDE8F08F94
:1026A000FFE7002E6DD04FF0000103910099BAF1C1
:1026B000FD0FC0F026810029DCBF0BB0BDE8F08F14
:1026C0000022019800284DDDDDE901833146671CB9
:1026D0002046944602EB030E0EEB0C02D31702EBDE
:1026E000537305EBE30999F800A023F00709A2EB67
:1026F0000902C2F107092AFA09F202F00102C2EB4B
:10270000022202F0FF0A8DF81CA03A7811F801BBF2
:1027100002FB0BF2120A0ED0FD2A28BF027808D263
:1027200090F800B00BFB02FBC2F1FF020AFB02B201
:10273000120A8DF81C209DF81C204FF0010A7F2AF8
:1027400005EBE3020AFA09F913788CBF43EA09039F
:1027500023EA09031370801CBF1CB8F101080CF1B7
:10276000010CB9D1059800990544049804440698D1
:1027700006440398401C03908142A1DC0BB0BDE8E5
:10278000F08FBAF1FD0F5AD300994FF000080029DD
:10279000CEBF86460BB0BDE8F08F0021019800281F
:1027A00041DDDDE901C6631C2046002201EB060A7B
:1027B0000AEB0206F11706EB517105EBE10797F8FA
:1027C000009021F00707F61BC6F1070729FA07F664
:1027D00006F00106C6EB062606F0FF098DF80C9000
:1027E0001E7876B1FD2E28BF067808D290F800B08A
:1027F0000BFB06FBC6F1FF0609FB06B6360A8DF891
:102800000C609DF80C6005EBE1017F2E0E780EFA4E
:1028100007F78CBF3E43BE430E70801C521C9B1CAE
:10282000BCF1010CC4D1059808F1010805440498D5
:10283000044400984045B0DC0BB0BDE8F08F00992F
:102840004FF0000E0029DCBF0BB0BDE8F08F002177
:102850000198002849DDDDE9016204F1010C204600
:10286000002301EB020900BF09EB0301CA1701EBCA
:10287000527205EBE20797F8008022F00707C91BA8
:10288000C1F1070728FA07F101F00101C1EB0121AD
:1028900001F0FF088DF80C809CF8001001FB0AF194
:1028A000090A0ED0FD2928BF017808D290F800B09F
:1028B0000BFB01FBC1F1FF0108FB01B1090A8DF817
:1028C0000C109DF80C104FF001087F2905EBE20178
:1028D00008FA07F70A788CBF3A43BA430A70801C9B
:1028E0005B1C761E0CF1020CBED105980EF1010E98
:1028F00005440498044400987045A8DC0BB0BDE87A
:10290000F08F0029DCBF0BB0BDE8F08F00220198EA
:10291000002850DDDDE9018394461A443146671CE6
:10292000204608926244D31702EB537305EBE30988
:1029300099F800B023F00709A2EB0902C2F10709D8
:102940002BFA09F202F00102C2EB022202F0FF0BA5
:102950008DF81CB03A7811F801EB02FB0EF202FB85
:102960000AF2120C0ED0FD2A28BF027808D290F885
:1029700000E00EFB02FEC2F1FF020BFB02E2120AB4
:102980008DF81C209DF81C204FF0010B7F2A05EBD1
:10299000E3020BFA09F913788CBF43EA090323EA2F
:1029A00009031370801CBF1CB8F101080CF1010C65
:1029B00018BF089AB6D105980099054404980444B4
:1029C000069806440398401C039081429EDC0BB09D
:1029D000BDE8F08F0A44FF2AA8BFFF2203E08A1A4D
:1029E000002AD8BF002202F0FF0E00BF5FEA186283
:1029F0000DD0FD2A28BF8DF81CE008D2C2F1FF0CD3
:102A00000EFB02F201FB0C21090A8DF81C109DF847
:102A10001C10A7EB03027F2905EBE001C2F10703BD
:102A200009784FF0010202FA03F28CBF114321EA48
:102A3000020205EBE0008CBF0170027018E6000096
:102A400010B584B0402022F0E3FD040006D04022FF
:102A5000002122F0FFFF04B0204610BD0DA0009021
:102A600005A209A1CDE901120022124B1146032053
:102A700022F074FDFEE700004F7574206F66206D34
:102A8000656D6F727900000072657320213D204EE4
:102A9000554C4C00417373657274656420617420F9
:102AA00065787072657373696F6E3A20257320289C
:102AB000257329009D0904082DE9F041914E96F8EF
:102AC000A50000280CBF0120002086F8A50006F113
:102AD000AC0022F049FC04001ABF4FF000080127A7
:102AE000BDE8F081206D2EF059FF616B08446063F2
:102AF0002EF068FF206586F8A48094F8540096F8BC
:102B0000A510C0F340028A4200F0F28061F3410058
:102B100084F8540010F0040F65D1616B0029C0F2F5
:102B2000DF8010F0080F09D1A16939B1204688472C
:102B3000616A01446162E16A0844E062204632F061
:102B400085FBE16800291CBF2046884794F85400A3
:102B500040F0040084F854006068002804BFA068B6
:102B6000002840D006F1AC0022F0FEFB05003AD070
:102B7000A54231D0686B002804DA95F8540010F0B3
:102B8000080F29D029682068814225D1686818B3C8
:102B90006168884220D1294606F1AC0022F0ACFCE5
:102BA000696900291CBF2846884728461CF086FF13
:102BB00086F8A47006F1AC0022F0D6FB0028D6F807
:102BC000A80006D02FF02CF906F1AC0022F0CCFBC7
:102BD00007E02FF0B1F8F7E7294606F1AC0022F044
:102BE000D7FB0500C4D1606B002879DB216B8842DC
:102BF000C8BF08466063216A204688470546A06A28
:102C0000A8420ED0A562626812B12946206890479A
:102C100096F8A400002866D1A26832B12946204661
:102C2000904796F8A40000285DD1D4E90C018142B8
:102C30005EDB94F8540010F0010F02D0606C48B1D4
:102C400031E0606C30B1B0F1FF3F1CBF411E6164E8
:102C500029D0F3E7E06B20B194F8540010F0010F95
:102C600021D0214606F1AC0022F046FC86F8A47083
:102C700006F1AC0022F078FB0028D6F8A8000FD0AF
:102C80002FF0CEF821692046002918BF884720463A
:102C90006169002918BF884720461CF00FFF1FE01C
:102CA0002FF04AF8EEE7206C41426163E06BB8B167
:102CB00094F8540010F0010F02D1A06B41426163FF
:102CC00094F8540027EA000161F3000084F85400EE
:102CD000E26A606A6262E062E26B206B2263E06338
:102CE00096F8A40020B106F1AC0022F03DFB04E010
:102CF000214606F1AC0022F04BFB04007FF4F2AE5B
:102D0000BDE8F081C801002070B5044640680D465A
:102D1000002818BFFFF7F8FF2268002A08BF70BD1F
:102D200029462046BDE87040104770B50E6805463C
:102D30000C46306800281CBF316A11F4801F04D093
:102D4000206021462846FFF7F0FF266068680028CB
:102D50001CBF2146FFF7D8FF2A68002A08BF70BDB4
:102D600021462846BDE87040104707F00CBD07F02B
:102D70005CBD00002DE9F14F88B00898D0E90180D2
:102D80000090089890F821A00468C0680390089803
:102D9000D0E9065002900898D0E904700490089891
:102DA000406AC11700EB517121F00701A0EB010B44
:102DB000089890F82210002965D00021019100990F
:102DC0000029DCBF09B0BDE8F08F00BF4FF000095B
:102DD000B8F1000F46DD00BF05EB8900002F006849
:102DE00000F0C68117F80910020E514301FB0AF1E9
:102DF0005FEA114161F31F600899079009EB0B0628
:102E000091F822C0CDF818C00BF084FFF11706EB43
:102E1000517104EBE10221F007031278A6EB030CD9
:102E2000CCF1070C22FA0CF202F00102C2EB0222F2
:102E3000DDF818C0D2B28DF81420BCF1010F00F0FB
:102E40009C81BCF1020F00F09D81BCF1030F04BF17
:102E500050434FEA102E00F09B8100BF09F1010999
:102E6000C145B9DB002F1CBF0498074403980099A3
:102E70000444029805440198401C01908842A5DB57
:102E800009B0BDE8F08F002F64D04FF00001019130
:102E90000099BAF1FD0FC0F00C810029DCBF09B028
:102EA000BDE8F08F0026B8F1000F44DD05EB860980
:102EB000D9F800000BF02EFF06EB0B01CA1701EB4F
:102EC000527C04EBEC022CF0070C1378A1EB0C0104
:102ED000C1F1070123FA01FC0CF0010CCCEB0C2C26
:102EE0000CF0FF0C8DF814C017F806A099F80390A9
:102EF0000AFB09F95FEA19290ED0B9F1FD0F28BFC5
:102F00008DF8140008D2C9F1FF0A00FB09F00CFB90
:102F10000A00000A8DF814009DF814007F284FF075
:102F2000010000FA01F08CBF184323EA0000107082
:102F3000761C4645BADB0398009904440298054480
:102F4000049807440198401C01908842AADB09B00C
:102F5000BDE8F08FBAF1FD0F53D300994FF000098F
:102F60000029DCBF09B0BDE8F08F0026B8F1000FE2
:102F70003BDD00BF05EB860738680BF0CBFE06EBA8
:102F80000B01CA1701EB527C04EBEC022CF0070C8E
:102F90001378A1EB0C01C1F1070123FA01FC0CF03D
:102FA000010CCCEB0C2C0CF0FF0C8DF804C0FF785E
:102FB00067B1FD2F28BF8DF8040007D2C7F1FF0AC3
:102FC00078430CFB0A00000A8DF804009DF8040009
:102FD0007F284FF0010000FA01F08CBF184323EA6C
:102FE00000001070761C4645C4DB039809F1010906
:102FF00004440298054400988145B6DB09B0BDE859
:10300000F08F0021019100990029DCBF09B0BDE8D3
:10301000F08F0026B8F1000F3EDD00BF05EB8607FC
:1030200038680BF077FE06EB0B01CA1701EB527CF8
:1030300004EBEC022CF0070C1378A1EB0C01C1F1AE
:10304000070123FA01FC0CF0010CCCEB0C2C0CF06A
:10305000FF0C8DF810C0FF7807FB0AF73F0A0CD071
:10306000FD2F28BF8DF8100007D2C7F1FF09784364
:103070000CFB0900000A8DF810009DF810007F2855
:103080004FF0010000FA01F08CBF184323EA000062
:103090001070761C4645C1DB0398009904440298E1
:1030A00005440198401C01908842B2DB09B0BDE89C
:1030B000F08F0029DCBF09B0BDE8F08F0026B8F121
:1030C000000F46DD05EB8609D9F800000BF022FE63
:1030D00006EB0B01CA1701EB527C04EBEC022CF05F
:1030E000070C1378A1EB0C01C1F1070123FA01FCD5
:1030F0000CF0010CCCEB0C2C0CF0FF0C8DF814C078
:1031000017F806E099F803900EFB09F909FB0AF994
:103110005FEA19490ED0B9F1FD0F28BF8DF81400F0
:1031200008D2C9F1FF0E00FB09F00CFB0E00000AEB
:103130008DF814009DF814007F284FF0010000FA6C
:1031400001F08CBF184323EA00001070761C46453E
:10315000B8DB039800990444029805440498074496
:103160000198401C01908842A8DB09B0BDE8F08FAF
:10317000010E01FB0AF1090A3CE61044FF28A8BF32
:10318000FF2003E0101A0028D8BF002000F0FF0E37
:103190000798000E0DD0FD2828BF8DF814E008D246
:1031A000C0F1FF0C0EFB00F002FB0C00000A8DF8D2
:1031B00014009DF81400A6EB03027F2804EBE10045
:1031C000C2F1070300784FF0010202FA03F28CBF4C
:1031D0001043904304EBE10108703FE630B4002354
:1031E000CDB2C1F30724C1F3074C012A20D0022A33
:1031F00034D0032A1CBF30BC704702786A43120ADD
:1032000062F3070342786243120A62F30F23827863
:1032100002FB0CF2120A62F31743090E04BF30BC22
:103220007047FD292FD30370190A4170190C48E02B
:1032300002782A44FF2A28BFFF2262F3070342785C
:103240002244FF2A28BFFF2262F30F2382786244C0
:10325000FF2A28BFFF2262F31743DEE70278521BE2
:10326000002AD8BF002262F307034278121B002A0B
:10327000D8BF002262F30F238278A2EB0C02002A4F
:10328000D8BF0022E7E703F0FF0C0478C1F1FF028A
:103290000CFB01FC04FB02CC4FEA1C2C80F800C0A4
:1032A000C3F3072C0CFB01FC44781B0C04FB02CC81
:1032B0004FEA1C2C80F801C05943837803FB0211AC
:1032C000090A817030BC704730B54A6883B022F07B
:1032D0000302802A06D24FEAE27C002302EB9C72B2
:1032E00092100AE0B2FA82F3C3F12003A3F1060CB4
:1032F00022FA0CF282F02002DB1F00EBC31C0CEB65
:103300008204D4F838C0BCF1000F18D0002921D0B5
:10331000C1E902C0CCF80C1001F10B0501F1080C59
:1033200025F00305AC4520D019491AA0CDE90001CC
:1033300000221F4B1146032022F010F9FEE71DA1C9
:1033400014A0CDE900010022194B1146032022F000
:1033500005F9FEE723A10FA0CDE900010022144BDF
:103360001146032022F0FAF8FEE7A1630121D0F80C
:1033700010C001FA03F44CEA040CC0F810C000EBD2
:103380008300914043691943416103B030BD00009F
:10339000E8260408417373657274656420617420C3
:1033A00065787072657373696F6E3A2025730000DB
:1033B000A912040863757272656E74202626202295
:1033C00066726565206C6973742063616E6E6F74DC
:1033D00020686176652061206E756C6C20656E7466
:1033E00072792200626C6F636B2026262022636153
:1033F0006E6E6F7420696E736572742061206E75D5
:103400006C6C20656E74727920696E746F207468BC
:10341000652066726565206C697374220000000087
:1034200030B54FF0000283B05FEA010C144663D060
:10343000802909D3B1FA81F3C3F11A03012505FAF2
:1034400003F35B1E0CEB0301802904D2CB1701EBC5
:10345000937189100AE0B1FA81F2C2F12002931F40
:10346000D940D21F81F02001092A45DA00EB8203FE
:103470005D694FF0FF3303FA01F1294010D1521C6E
:10348000016903FA02F2114036D0CA43521C1140BE
:10349000B1FA81F1C1F11F0200EB82014969E9B182
:1034A000CB435B1C1940B1FA81F1C1F11F0300EB62
:1034B000C21101EB83018C6B002C1DD0616821F0DF
:1034C0000301614515D20EA11448CDE90001002287
:1034D000134B1146032022F041F8FEE711A10F48DB
:1034E000CDE9000100221E4B1146032022F036F8E0
:1034F000FEE7214631F09EFD03B0204630BD0000BE
:10350000626C6F636B5F73697A6528626C6F636B63
:1035100029203E3D2073697A65000000943300083D
:1035200016130408736C5F6D6170202626202269D3
:103530006E7465726E616C206572726F72202D20E0
:103540007365636F6E64206C6576656C2062697468
:103550006D6170206973206E756C6C220000000034
:103560008112040870B5064682B00D46084600F088
:103570008FF8040012D0606810F0010F3FD0696826
:1035800031F0030115D020F00300214680281BD222
:10359000C317002200EB937083101EE01FA12A487E
:1035A000CDE900010022294B1146032021F0D6FF6E
:1035B000FEE727A12448CDE900010022234B114654
:1035C000032021F0CBFFFEE7B0FA80F2C2F1200227
:1035D000931FD84080F02003D21F304631F02AFDDF
:1035E0006968284631F003020CD062682C4622F04C
:1035F0000302121D1144416000F04AF8046002B059
:10360000284670BD20491048CDE9000100221F4B1B
:103610001146032021F0A2FFFEE700006E657874DA
:1036200020262620226E657874207068797369637D
:10363000616C20626C6F636B2063616E2774206223
:1036400065206E756C6C220094330008E512040846
:1036500021626C6F636B5F69735F6C617374286266
:103660006C6F636B29202626202270726576696F45
:10367000757320626C6F636B2063616E27742062C8
:1036800065206C617374220090260308C712040839
:1036900000B500F10802406883B030F00301A1F1E9
:1036A000040010441CBF03B000BD05490548CDE926
:1036B00000010022044B1146032021F04FFFFEE7DA
:1036C00018230308943300085812040830B500F199
:1036D00008030A1F9C18426804F1080322F0030C37
:1036E000ACEB0102DD1C25F00305121F83B0AB42D9
:1036F0000AD0214921A0CDE900010022264B114624
:10370000032021F02BFFFEE753181B1D9C450AD018
:1037100022A11AA0CDE9000100221F4B114603206F
:1037200021F01CFFFEE7237903F003031A436260D4
:1037300022F003020C2A0AD2284910A0CDE9000188
:103740000022154B1146032021F008FFFEE7027905
:1037500002F00302114341602046FFF799FF046025
:10376000416841F002014160606840F00100606022
:1037700003B0204630BD0000742604084173736511
:103780007274656420617420657870726573736902
:103790006F6E3A2025730000BB120408626C6F63E1
:1037A0006B5F73697A6528626C6F636B29203D3D9E
:1037B0002072656D61696E5F73697A65202B207375
:1037C000697A65202B20626C6F636B5F686561644A
:1037D00065725F6F7665726865616400E025040854
:1037E00000281CBFC01C20F0030070471CF066B905
:1037F000C01C21F00DBF0000F0B50446006816465D
:103800001346D0F824C083B00F4600222046E0477C
:10381000012802D002280CD02BE0A0681FA1CDE91E
:10382000001700220290294B1146032021F096FE3A
:1038300030E020683146026A20469047050021D0DA
:10384000206832462946436920469847284609F0B1
:1038500029FCA26931469047284609F0E9FB206817
:1038600033460022D0F824C039462046E0470228DB
:10387000DFD0206832463946036903B02046BDE8F0
:10388000F0401847124800220090124B11460320C6
:1038900021F064FE03B00020F0BD0000646174619B
:1038A00020257020697320746F6F206C61726765CA
:1038B00020746861742065786365656473206D6148
:1038C000782073697A652028257529008207040805
:1038D000F4D40008610704082DE9F04F0C4685B0C8
:1038E0000646002123F06CFF60B13046002184229F
:1038F00024F0E4FF07004FF00000DFF88094009010
:1039000008D030E005B02046BDE8F04F202200216D
:1039100022F0A0B8304624F0E5F90021842224F0FA
:10392000CDFF5FEA000800F0D280304600218922F6
:1039300024F0C4FF8246304600218A2224F0BEFFD4
:1039400005464FEA800B0BF1040021F061FE0746AB
:1039500008EB8A015A4621F005FF6FF0604047F8F6
:1039600025000120009000206FF0604157F82020D2
:103970008A4218BF401CF9D16061800021F048FEE6
:1039800060606069800021F043FEE06060694FF094
:103990000008002841D957F82800DFF8E4A348457B
:1039A00036D10025304623F058FF00282CD929466F
:1039B000304623F005FF8346F24925F021F9B0B9DE
:1039C00058468A22002124F079FF01280FD1584659
:1039D0008922002124F072FF404508D1584624F086
:1039E000E9F8504503DB584624F0E4F882463046B7
:1039F0006D1C23F032FFA842D9D8BAF1000FA4BF42
:103A0000E06840F828A003DAE168002041F82800C7
:103A1000606908F101084045BDD80025A8460300AB
:103A20001DD0DFF864C339460022CCF1000B00BF83
:103A300051F8040B6045A4BF284400EB0B050BDADA
:103A4000484504D1E06850F82200804404E0D4F8EE
:103A50000CA080444AF82200521C5B1EE8D130467C
:103A60000021142224F02AFF8246304623F09CFFD6
:103A70006169C1F101010AFB0100B0EB080100F12D
:103A80007881C14B0020C3F1000C15E057F82020CD
:103A90009A4210DB02EB0C0801FB08F205EBD57A29
:103AA00002EB6A0292FBF5F2D4F80CA0A5EB080534
:103AB000891A4AF82020401C6269824201D9002DEF
:103AC000E4D1009800281CBF38461BF0F7FF3046B1
:103AD0000021852224F0F2FE07004FF00000009044
:103AE00027D1304624F0FEF80021852224F0E6FE9E
:103AF0005FEA00087ED030460021862224F0DEFEF8
:103B0000824630460021872224F0D8FE05464FEA3F
:103B1000800B0BF1040021F07BFD07465A4608EBB1
:103B20008A0121F01FFE6FF0604047F82500012058
:103B30000090304623F06FFF0190394600206FF06F
:103B4000604200BF51F82030934218BF401CF9D1A9
:103B50002061800021F05CFD20602069800021F060
:103B600057FDA06020690025002842D957F825009C
:103B7000DFF80CA2484538D14FF00008304623F05A
:103B80006CFE00282DD94146304623F019FE8346AD
:103B90007C4925F035F8B0B958468722002124F039
:103BA0008DFE01280FD186220021584624F086FE82
:103BB000A84208D1584624F07DFF504503DB584603
:103BC00024F078FF8246304608F1010823F045FED4
:103BD0004045D8D8BAF1000FA4BFA06840F825A08E
:103BE00003DAA168002041F8250020696D1CA84275
:103BF000BCD800E054E00025A84603001DD0DFF843
:103C000088C139460022CCF1000B00BF51F8040BEB
:103C10006045A4BF284400EB0B050BDA484504D1EE
:103C2000A06850F82200804404E0D4F808A0804442
:103C30004AF82200521C5B1EE8D1304600211522B2
:103C400024F03CFE2169C1F10102019900FB021040
:103C5000B0EB08017ED44C4B0020C3F1000C14E003
:103C600057F820209A420FDB624401FB02F805EB73
:103C7000D57908EB690898FBF5F8D4F80890AD1AE7
:103C8000A1EB080149F82080401C2269824201D939
:103C9000002DE5D1009800281CBF38461BF00EFF10
:103CA00030460021152224F009FE804630460021CE
:103CB000142224F003FE074600212722304624F078
:103CC000FDFDC0B201280CBF4FF001094FF0000903
:103CD00030460021012224F0F1FD8346002102221A
:103CE000304624F0EBFD6FF0404A0546D34505BF52
:103CF000708D10F4006F4FF0000B4FF0010B304649
:103D000023F089FE049030460021822224F0D6FD63
:103D1000C2B22369A0682168CDE90030CDE902195B
:103D200043465946049803F03DF8A061554505BF48
:103D3000708D10F4806F00250125304623F034FE8D
:103D4000804630460021832224F0B8FDC2B24FF0F5
:103D5000000C00E00FE060696368E1688DE80B101B
:103D60003B462946404603F01DF8E06105B0BDE83A
:103D7000F08F002185E600216DE700009AFFFF1F0C
:103D8000010000E0010006009BFFFF1F01207047BB
:103D900070B582B004461BF01FFA064620461BF0A1
:103DA000DFF90546304623F09DFF0446302D2AD02A
:103DB0000B2D1CBF02B070BD1DF034FD20B1007A88
:103DC000012804BF02B070BD6946304624F010F8E7
:103DD00094F8300010F00C0F30461BD023F01BFE7F
:103DE000054620460021272224F068FDC0B20128A4
:103DF000009805EBD5710CBFC0EB610000EB6100D2
:103E000090FBF5F50FE0E16A02B00022BDE87040DA
:103E10002CF008B823F0C8FD019900EBD07201EB3B
:103E2000620191FBF0F5002D1DDBE06A0026A8423F
:103E300018BF01261DF0F6FC28B1012229462046B4
:103E40002BF0F0FF04E00022294620462BF0EAFF89
:103E5000002E04BF02B070BD00222021204627F0B2
:103E60002EF902B070BD0025DFE700B590F86420A0
:103E700085B002F001028A4204BF05B000BD0029EE
:103E800090F864100CBF21F0010141F0010180F8AD
:103E90006410016D0091416D0191816D0291C16DC0
:103EA0000391C16A009A4B691A440092019A896988
:103EB00011440191C16A029A496911440291C16A8F
:103EC000039A896911440391694625F040FA05B0C7
:103ED00000BD08B5084611460BF08AF80090BDF801
:103EE00000009DF8021040EA014008BD2DE9F04FA6
:103EF000088C83B00D46C0F30720D1F848A00BF022
:103F0000ACF80446288D6B6A1FFA80FC4FEACC009F
:103F1000B0FBF4F0072101EBC0011A0CC9080091B5
:103F200002FB00F999B20CFB02F80E2345480CF095
:103F300019FD07000CD0286A3E6910F4002F10D03C
:103F4000DAF8200042460169304621F00BFC32E0ED
:103F50003D48002200903D4B1146032021F0FEFA1F
:103F60001FE0287C012801D0F8B124E0DAF8000035
:103F700000900020024601900C210DF1040B0098E6
:103F80001BF0D6FF50B95B464246314600981BF005
:103F9000A7FE002804BF019840450CD038460CF01D
:103FA00087FD03B00020BDE8F08FE8684246016954
:103FB000304621F0D7FB288CC0F307200E283AD0DA
:103FC00006EB0800A0F1010806EB0900A0F1010BC7
:103FD0000120A040401E002200F0FF0EB9F1000FAA
:103FE00018BF002627D900BF98F8000020FA02F079
:103FF00010EA0E0308BF00200FD018462146082CF7
:104000000BD200BFC1F1080C03FA0CFC21444CEAAE
:104010000000C9B2C0B20829F4D38BF8000010190F
:10402000C2B2082A24BF0022A8F10108761CABF115
:10403000010B4E45D8D3CAF81C70EF6203B00120C3
:10404000BDE8F08FC0020020A867000864060408DD
:104050002DE9F047D1F84880086A84B0D8F800907C
:10406000C0F307250E46072D08BF02210CD0082DEE
:1040700008BF042108D0092D08BF102104D00A2D43
:104080000CBF4FF4807100218F00C0F3C0400028A6
:1040900018BFD8F8200017D004693463072D08BF73
:1040A00002200CD0082D08BF042008D0092D08BF1D
:1040B000102004D00A2D0CBF4FF4807000207063D4
:1040C00004B00120BDE8F087307C012807D000282B
:1040D0000CBFF0680020DFD004B0BDE8F0873846A0
:1040E00021F096FA04000AD00020024603900C2129
:1040F0000DF10C0A48461BF01BFF70B11AE0114A83
:1041000011A102F120000090CDE901120022124B12
:104110001146032021F022FAFEE753463A46214693
:1041200048461BF0DDFD002802BF0398B842C8F8DE
:104130000440B2D020461BF0C1FC04B00020BDE812
:10414000F0870000A867000870616C6574746520D2
:10415000213D204E554C4C004806040800B583B064
:1041600028B10268D26903B05DF804EB10470DA0D6
:10417000009005A208A1CDE901120022114B1146C1
:10418000032021F0EBF9FEE74E554C4C20706F698F
:104190006E746572000000006C727520213D204E27
:1041A000554C4C00417373657274656420617420D2
:1041B00065787072657373696F6E3A202573202875
:1041C00025732900BF09040870B505461AF0C8FF19
:1041D000044628461BF08EF8352C18BF70BDD0F869
:1041E000F802002808BF70BDBDE870402DF018BE71
:1041F00038B504460A48007860B10092888983B2D5
:10420000088982B288881FFA80FC0888614680B2DB
:1042100032F0BCFD2046BDE838400BF059BA000032
:10422000E000002070B50546C0690E4600281CBF9E
:10423000002070BD0122002130460DF0CBF90400B2
:1042400016D030460DF0D4FF90B10220A06404F1E6
:104250003800EC61C5E90160217928460B2941D27B
:10426000DFE801F040090F151B21352D27313B00F8
:104270004FF0FF3070BD04F10802E16C17F03CFC18
:1042800030E004F10802E16C16F096FB2AE004F13C
:104290000802E16C16F03AFE24E004F10802E16C39
:1042A00017F04AFE1EE004F10802E16C17F024FE4C
:1042B00018E004F10802E16C0FF0ECFC12E0E16C94
:1042C00017F066FE0EE0E16C19F03AFE0AE004F128
:1042D0000802E16C17F03AFE04E004F10802E16C18
:1042E00018F042FEE969032088640020E8610DF0BF
:1042F0000FF9012070BD2DE9F04F0546A2F57F4072
:10430000A1B091468A46FF3804BF21B0BDE8F08FC6
:10431000AB46EC6AB4F82880984504D02385608DBC
:1043200040F00800608520464FF480215A2224F096
:10433000C5FA074620464FF480215C2224F0BEFADD
:10434000064638461BF0B0FB0746E86A00281CBF4B
:10435000002123F035FA8069B91909FB010006EB49
:10436000D671A0EB61001D903844711E08441F9067
:10437000DBF82C0041691C91C0691E9068460FF063
:104380002FF86A464FF48021204624F0F3FD1CAA42
:10439000694650460EF0C8FDA4F82880608D20F0D4
:1043A0000800608521B0BDE8F08F2DE9F04F05468B
:1043B000A2F57F40A5B090460E46FF3804BF25B059
:1043C000BDE8F08FEC6A278D9F4204D02385608D75
:1043D00040F00800608503A80DF07EFB03AA4FF4AF
:1043E0008021204624F0FAFC4FF480215C222046F4
:1043F00024F064FA1190E86A002804BF25B0BDE8F3
:10440000F08F002123F0DCF9050004BF25B0BDE8E2
:10441000F08F0B981BF048FB119AA969024408FB26
:10442000021119911199199A01EBD171A2EB610155
:10443000119A19911144401E08441B90606918900C
:10444000E0691A9018AA06F1180120A806F0D8FB16
:10445000B0B118360DF1800C96E8000F9CE80F0003
:1044600086E80F002846183E1FF096FD0A9005F1D9
:10447000140203A930460DF0FCFA183686E8000F46
:104480002785608D20F00800608525B0BDE8F08F9D
:104490002DE9F04FADF5117D05461AF09DFE04465D
:1044A00028461AF009FF8A9002A9204623F0EAFA6A
:1044B00000216822204624F001FA054600216922E5
:1044C000204624F0FBF90246294602A806F08BFBA1
:1044D00002A806F083FB289002A806F070FB279044
:1044E000D4E90C02B2EB000908BF4FF0010994F8BF
:1044F0007030C3F3C201012905D0022906D0DDE9DD
:10450000271C8C4502DB4FF0010801E04FF000084A
:1045100003F00703012B08D1002806DA002A04DD86
:10452000A16B814208BF012000D000202C902046C2
:104530000021122224F0C2F9899020460021132282
:1045400024F0BCF9889020460021102224F0B6F90E
:10455000879020460021112224F0B0F901900299A1
:10456000E16303992164049961640599A164E16B95
:1045700089986FF001050144E163616C8898091A1C
:104580006164216C879801442164A16C0198091A27
:10459000A164B8F1000F04F13C000ED006F00FFB4F
:1045A000042818DA2798A16900EBD07005EB6000A9
:1045B0000844011DA16420640DE006F00FFB0428EF
:1045C00009DA2898616900EBD07005EB60000844B7
:1045D000011D6164E06304F13C0006F0FFFA074648
:1045E00004F13C0006F0EBFAB8F1000F05D004F13D
:1045F0003C0604F14405D44805E00746D34804F1DD
:10460000400604F148052D90E26EB2F1FF3F12D052
:10461000616E206BA36E091A181A7943784391FBD7
:10462000F9F190FBF9F0401A5043C21700EB126009
:1046300001EB202B05E0A16B206B081A784390FB5F
:10464000F9FBE06DB0F1FF3F12D0636D226B991A58
:10465000A36D79439A1A7A4391FBF9F192FBF9F22F
:10466000521A5043C21700EB126001EB202A05E0FA
:10467000D4E90B10081A784390FBF9FA2046002180
:10468000272224F01BF9C0B2B8F1000F01D0012895
:1046900000D0002094F84C10814208BF002107D0C0
:1046A00030462E4601210546CAF1000ACBF1000B27
:1046B000B8F1000F06D03068504428603068584484
:1046C000306008E02868A0EB0A00401C30602868D1
:1046D000A0EB0B0028602C9850B3206B404278432D
:1046E00090FBF9F0B8F1000F13D029B133682A46D6
:1046F000181A3146401C03E03368324629461844F4
:104700002B68834202DD0B60106020E013600860BC
:104710001DE021B12B682A463146184404E02B687D
:104720003246181A2946401C33688342EEDDEAE718
:104730002D9904F13C008847012808DC00221F2144
:10474000204626F0BCFC0DF5117DBDE8F08FE06B36
:104750003E90206C3F90606C4090A06C419006A809
:104760000EF03EFE06AA4FF40031204624F002FC73
:10477000204600210C2224F0A1F80646DDE927108E
:104780008842A8BF0846B6EB600F7BDC04F13C0012
:10479000DDF8349006F022FA054604F13C0006F0FC
:1047A0000EFA854204F13C0002DA06F017FA01E045
:1047B00006F005FAB9EB600F67DC9DF847000025AD
:1047C000B8F1000F00F0070002D0022802D002E08A
:1047D000012800D101251298002818BF01250127C2
:1047E000899800240028A4BF8898002805DB8798B2
:1047F0000028A4BF0198002802DA27466DB94DE0D1
:104800004E4502DC274645B948E0324602A93EA89B
:1048100006F01CFAB8B32746B5B3702206A942A821
:10482000FBF714FD8DF850418DF860418DF828415B
:104830008DF843413EAA42A98A980EF075FB00BF4D
:104840008DF88440702206A922A8FBF7FFFC8DF8A2
:10485000E0400DF1F80A8DF8D0408DF8F4409AE868
:104860000F000DF50C7A8AE80F004DB3B8F1000F78
:104870001DD00299899808448C9004998898081A48
:104880008E901CE05BE001E008E05AE055F001008A
:104890001CBF8DF860408DF87040D1D13EAA06A9AA
:1048A0008A980EF041FB0DF5117DBDE8F08F03995C
:1048B000879808448D9005990198081A8F9029943B
:1048C0008CAA10218A980DF0CFFC80468CAA22A9D0
:1048D0000EF02AFB5EA80EF022FB4FB102AF97E864
:1048E0000F0065AF87E84F005EA940460EF0DFFA83
:1048F0004DB13EAD95E80F0065AD85E80F025EA9AC
:1049000040460EF0D4FA6BA80CF02CFF8CAA6BA9D1
:10491000CDF8C8818A980DF023FC702206A922A840
:10492000FBF794FC8DF8C3408DF8A8403EAA22A95D
:104930008A980EF0F9FA0DF5117DBDE8F08F46105A
:1049400024E74FEA600938E7DDAB0008BFAB000899
:10495000F0B591B01D4616460C0007464CD02079A4
:10496000092849D2DFE800F00519194819484848D4
:10497000190068460BF048FDE07D8DF82800A08AFC
:10498000ADF82000A07D8DF8220001200990694635
:104990003846E26816F010F82EE0A3680DF1300CEE
:1049A0000FCB8CE80F000CA806F018F90E210CF0C4
:1049B00033FC0C99401E08440E902C2200216846BE
:1049C00021F048F8A08AADF81500A07D8DF81700F9
:1049D000E07D8DF814002068016906910CA908910A
:1049E0000089694680B20990A068009002208DF885
:1049F0001C0038460FF06AFC002E12BF002D11B0CB
:104A0000F0BD2A4611B031463846BDE8F04017F0F7
:104A100073B800002DE9F04FADF5157D05461AF08D
:104A2000DBFB044628461AF047FC00F1180204900C
:104A300004F1140118A806F0E3F8002804BF0DF5EE
:104A4000157DBDE8F08F04980AAD18300FC885E8D1
:104A50000F0018AD049895E80E10183080E80E107D
:104A600020460021302223F029FF8C90204600218F
:104A7000102223F023FF8E9020460021112223F0E4
:104A80001DFF8F9020460021122223F017FF8D90EA
:104A900020460021132223F011FF9390208D002542
:104AA00016902585608D40F0080161854EA80EF0B6
:104AB00097FC4EAA4FF4A021204624F05BFA39A8B7
:104AC0000DF00AF839AA4FF4A021204624F086F907
:104AD00016982085608D002720F00801204661850A
:104AE00023F0D2FA0146A2698E980E951044411A1D
:104AF0008C980844401ECDE91050204623F0BEFAA1
:104B0000929020462722294623F0D8FEC0B20128E1
:104B10000CBF4FF001094FF000094FF00008206B67
:104B2000002840F2AD81A06B119950F82800491C73
:104B3000421E0F91114411911B9A0F99914200F35B
:104B40009F81B9F1000F09D0E2699399521A9299A5
:104B5000521A8C99511A491E0E9108E062698D997A
:104B60000A449299521A8C991144491E1091E16A93
:104B70000025002940F27E8100EBD07007904010A4
:104B8000CDF85000606B4FF0000A50F82700002865
:104B900018BF90F800A0B9F1000F0AD00E98401E7F
:104BA0001090E06B109950F82500081A401C0E90E8
:104BB00009E01098401C0E90E06B0E9950F825000B
:104BC0000844401E1090E06A0026401E854238BF0F
:104BD00004211FD2606BBA1950F8220000281CBFB4
:104BE000007810F0010F15D005EB0602E06B01EB29
:104BF0008202B9F1000F80581DBF0E9A101A0E9054
:104C0000109A04BF10441090761CE06A7219401E7E
:104C10008242DFD3199911988842C0F222810E98FE
:104C20001C900F981D9010981E9011981F909DF841
:104C3000810110F0040F0BD063698D991C9A1944FF
:104C40008A4205DD5F9901EBD171A2EB61011C91F4
:104C500010F0020F0BD0A3698E991D9A19448A4255
:104C600005DD5F9901EBD171A2EB61011D9110F09F
:104C7000080F10D0E36993991E9A591A491E914260
:104C800009DD5F9901F0010201EBD17102EB6101D5
:104C90001E9A11441E9110F0010F10D0226A8F98B5
:104CA0001F99101A401E884209DD5F9800F001012B
:104CB00000EBD07001EB60001F9908441F90616CFD
:104CC0000020414504BF216CA9427DD1218D11F006
:104CD000400F03D111F0200F18BF202011F0020F58
:104CE00018BF40F0020011F0040F18BF40F004009C
:104CF00011F0080F18BF40F00800002875D020857B
:104D0000608D40F0080161856AA80EF069FB24A857
:104D10000CF0E2FE6AAA4FF4A021204624F02AF902
:104D200024AA4FF4A021204624F058F81698208594
:104D3000608D20F008016185CDE96C85CDE926857F
:104D40001CAA6AA904980EF0EFF8606B50F82700CF
:104D500000287DD020464FF4A021122223F0AEFD82
:104D6000019020464FF4A021132223F0A7FD0290CA
:104D700020464FF4A021102223F0A0FD15902046DC
:104D80004FF4A021112223F099FD0E9A0199CAF344
:104D9000400A11448691109A02994FF0000B511A63
:104DA00088910F9A1599114487911199081A899041
:104DB000BAF1000F18BF4FF0010B86A805F00EFFE7
:104DC0003299CDF808B000E00FE0CDE90010606B3B
:104DD000339B419A50F8270000F108018AA82BF074
:104DE000E9FABAF1000F1AD10AE070224EA96AA8B6
:104DF00020F0B8FC542239A924A820F0B3FC9BE78A
:104E00000F9A07998B9802EB610100EBD070A1EB30
:104E100060018791149901EB6000104489900EAAFB
:104E200018A920A805F0ECFE90B10DF1800A0498B5
:104E30009AE80E10183080E80E10606B86AA24A93C
:104E400050F8270008302B9004980CF012FE00E078
:104E500007E00DF1600A04989AE80E10183080E817
:104E60000E10B819471CA819451CE06AA8423FF665
:104E700089AE00BF206B08F101088045FFF453AEF6
:104E80000AAC049894E80E10183080E80E100DF566
:104E9000157DBDE8F08F2DE9F84304461AF09CF922
:104EA000804620461AF018FA0646C06C4068B0F5F5
:104EB000A02F18BFBDE8F883304619F033FA054635
:104EC000304619F029FA044655EA040008BFBDE847
:104ED000F883F06C00278668072E52DA002D18BF81
:104EE00085F820700CB184F828704FF400423146E8
:104EF000404607F0D9FC28B354B140462CF036FDAB
:104F00000090BDF8000020849DF8020084F8220083
:104F100075B1662085F8200040462CF027FD0090F2
:104F2000BDF80000A5F821009DF8020085F82300D7
:104F3000404607F0B7FCB04204D1002D1CBFB220A0
:104F400085F820004FF480423146404607F0ACFC23
:104F5000002814BF002CBDE8F8834FF0FF0084F850
:104F6000280040462CF002FD0090BDF8000020848F
:104F70009DF8020084F82200606A401C6062BDE86F
:104F8000F88340223146404607F08EFC0028ACD022
:104F9000002D18BF85F82070002CA6D0A3E70000D4
:104FA000F0B583B00F4604000FD004F1300020F0BC
:104FB000DBF9050021D0286861680669304608F0F1
:104FC0008DF808F0C1F888B90CE019A0009011A282
:104FD00014A1CDE9011200221D4B1146032020F03F
:104FE000BDFAFEE7A269394630469047294604F1EA
:104FF000300020F0CDF90500DDD104F1240027F0C8
:1050000091F904F1300020F09BF90020E06003B03A
:10501000F0BD00004E554C4C20706F696E74657287
:10502000000000006C727520213D204E554C4C0054
:105030004173736572746564206174206578707261
:10504000657373696F6E3A202573202825732900D4
:10505000D4090408F0B583B01646040031D0002905
:105060003CD004F1240027F0EBF9050004BF03B0A5
:10507000F0BD2F69A269314638469047E16B38464A
:105080008847E168091AE1603846616808F026F847
:1050900007462869E16A0844294650F8046C04F17F
:1050A000240027F0F9FB384607F0C2FF314604F12F
:1050B000300020F021FA03B03046BDE8F0401AF08D
:1050C000FDBC14A000900CA20FA1CDE9011200229A
:1050D000184B1146032020F041FAFEE70DA0009086
:1050E00005A215A1CDE901120022124B11460320A1
:1050F00020F034FAFEE700004E554C4C20706F69EA
:105100006E746572000000006C727520213D204EA7
:10511000554C4C0041737365727465642061742052
:1051200065787072657373696F6E3A2025732028F5
:1051300025732900860904086B657920213D204EDE
:10514000554C4C002DE9F05F0C469A461646054634
:1051500020210A9F23F04DFDA8B1032F28461BD024
:1051600022F07EFF4FF00009C846C0B1032F6FF058
:1051700060464FF0000722D0012876D0022875D073
:10518000032875D09FE01AEB040F48BFCAF1000452
:10519000301B48BF3446AAE022F05AFFE2E7BAF1DA
:1051A000000FA8BF002E51DA002CB8BFA41E002C9F
:1051B000C8BFA41CE01704EB9070841046E00128DF
:1051C0001FD0022825D003282AD1284600211222E8
:1051D00023F074FB834628460021132223F06EFB44
:1051E000074605F11400D5F814A005F0F7FCA0EB74
:1051F0000B00C01B00EBD0700AEB600101EB0B074A
:105200000EE028460021122223F058FB6969471856
:1052100006E028460021132223F050FBE9690F1A0B
:1052200000236FF06042791C284600F019F9B04263
:1052300008BF4FF0010800233A462E49284600F0E7
:105240000FF9B04202D100BF4FF0010959EA08003E
:105250004DD0002CB8BFA41E002CC8BFA41CE01762
:1052600004EB90708010BDE8F09F1DE024E0FFE7A4
:1052700028460021102223F021FB834628460021E6
:10528000112223F01BFB074605F11400D5F818A0E6
:1052900005F095FCA0EB0B00C01B00EBD0700AEBF7
:1052A000600101EB0B070EE028460021102223F0DD
:1052B00005FBA969471806E028460021112223F0C2
:1052C000FDFA296A0F1A00236FF06042394628461A
:1052D00000F04AF9B04208BF4FF0010800233A46F7
:1052E0000449284600F040F9B042AFD1ACE720466F
:1052F000B9E70000010000E00879052818BF06287A
:1053000022D1C86C826B002A04BFC26B002A25D14F
:10531000C26A002A04BF026BB2F5807F05D1426BDE
:10532000B2F5807F08BF002300D00123826E002ADF
:1053300018BF01221A4211D1008CC0F307201AB104
:105340000E2818BF142809D091F85100642805D3FD
:10535000642081F85100012081F85000002070473E
:1053600070B504461CF05EFA40B1207E10F0020FCA
:105370001CBF012070BD10F0010F27D1206880688C
:10538000002814BF00F10805002501222146284607
:105390001AF066F8012806BF217E11F0020F70BDD9
:1053A00020684FF0000102684FF0010082B1D3681D
:1053B000002B08BF1268F9D0E160D368214610467F
:1053C0009847217E012011F0010F01D0002070BD0F
:1053D000217E11F0020F18BF70BD00222146284621
:1053E0001AF03EF80546012804BF207E10F0020F97
:1053F00033D1206822F076FC06002ED0207E10F0FB
:10540000040F2AD12089282818BF29281BD04FF43F
:105410008041206823F0EDFBF8B1208913381F2864
:1054200011D2DFE800F01A1010101A1A1A1A1A1AFC
:105430001A1A1A10101A1010101A1A1A1A1010101C
:10544000101A1A101A0020462660FFF789FF054639
:10545000012804BF207E10F0020F284670BD000016
:105460002DE9FF4F81B09B46044622F0F1FD5FEA33
:10547000000A71D06FF0604600211222204623F00E
:105480001DFA074620460021132223F017FA009048
:10549000204622F0E2F95FEA00094FF000055BD0F8
:1054A000A0683049006850F82580404623F0A8FBEA
:1054B000002846D14FF48051404623F09AFB002843
:1054C0003FD0BAF1010F06D0BAF1020F08D0BAF1FD
:1054D000030F0BD035E06069D8F81480C1191CE0C7
:1054E000E1690098D8F81C80091A16E008F1140048
:1054F00005F074FBD8F8141000EBD07001EB6008D5
:1055000004F1140005F06AFBC11B0098081A00EBB7
:10551000D070616907EB60000144029A08EB0B0050
:105520009042A4BF039A82420BDB401A0028CCBFF2
:1055300001464142002ECCBF324672429142B8BF72
:1055400006466D1C4D45ABD36FF0604086421EBFD2
:10555000704205B0BDE8F08F6FF0604005B0BDE867
:10556000F08F0000010004002DE9FF4F81B09B4641
:10557000044622F075FD5FEA000A71D06FF06046C4
:1055800000211022204623F099F9074620460021E9
:10559000112223F093F90090204622F05EF95FEA91
:1055A00000094FF000055BD0A0683049006850F852
:1055B0002580404623F024FB002846D14FF480513B
:1055C000404623F016FB00283FD0BAF1010F06D069
:1055D000BAF1020F08D0BAF1030F0BD035E0A06981
:1055E000D8F81880C1191CE0216A0098D8F82080EA
:1055F000091A16E008F1140005F0E1FAD8F81810BD
:1056000000EBD07001EB600804F1140005F0D7FA4C
:10561000C11B0098081A00EBD070A16907EB60006D
:105620000144029A08EB0B009042A4BF039A824205
:105630000BDB401A0028CCBF01464142002ECCBFF4
:10564000324672429142B8BF06466D1C4D45ABD3FF
:105650006FF0604086421EBF704205B0BDE8F08F1B
:105660006FF0604005B0BDE8F08F0000010004005D
:105670002DE9FF4F83B09046DDE910A40F460021CD
:105680000122039823F01AF905460021022203980B
:1056900023F014F9FA7812F0020F0CD012F0010F77
:1056A0006FF0404102D08D4202D008E0884208D11C
:1056B00022F00200F870F87810F0010F01D078485D
:1056C00000E078480190F87810F0010F0CBFDFF887
:1056D000D091DFF8D0914FF0000BC4F804B0C4F8BB
:1056E00008B0C4F814B0C4F800B0C4F80CB0C4F8E2
:1056F00010B045464146039822F062F8060000F0DB
:10570000A680454505D04FF4001123F072FA002819
:105710006FD16549304623F073FA00286AD13046CC
:105720000021812223F0CAF810F0FF0B63D06069DA
:10573000401C6061A1685144A160217E11F0010FFD
:1057400069D000EB4000C100206927F0FBF8009011
:10575000002841D0606900EB4001009800EBC100D7
:105760004FF0000140F8186CF87810F0010F304647
:105770000CBF0622042223F0A1F8616901EB41026B
:10578000009901EBC20141F8140CF8784FF00001C8
:1057900010F0010F304614BF0522072223F08EF8C7
:1057A000616901EB4102009901EBC20141F8100C63
:1057B000606900EB4001009800EBC100002140F857
:1057C00008BC606900EB4002009800EBC20040F8A2
:1057D000041C009820611EE03CA0009033A237A179
:1057E000CDE901120022414B114603201FF0B6FE05
:1057F000FEE72CE01BE0019930468847F97811F06C
:10580000020F04D0A1680A1806998A421FDCA16819
:1058100050440844A0603046C84701462068814291
:10582000C4BF3046C8472060E068401CE060F8789C
:1058300010F0040F14BF4FF0FF300120451906D4BB
:105840002946039821F0BCFF06007FF45AAFA068F8
:105850000028C4BFA0EB0A00A0606069002814BF44
:105860000698A0686060BEB1454515D10398806870
:10587000006850F82560F878C0F38000002814BF55
:105880006D1E6D1C46B13046C847206001993046F8
:10589000884760600120E06007B02846BDE8F08FCF
:1058A000BB8A0208BB7B0208010006004F7574200A
:1058B0006F66206D656D6F72790000006E65775FB1
:1058C00064736320213D204E554C4C004173736539
:1058D0007274656420617420657870726573736991
:1058E0006F6E3A202573202825732900ED050408E2
:1058F0002DE9F34FB1B000217D22319822F0DEFF77
:105900004FF0010A9DF837102AEA000262F3000105
:10591000820862F34101C00860F382018DF83710FC
:1059200000217E22319822F0C9FF8DF83400002139
:105930007F22319822F0C2FF8DF8350000218022AD
:10594000319822F0BBFF8DF83600002127223198D4
:1059500022F0B4FFC0B2012818BF002023909DF8A8
:1059600037004FF0000110F0010F31981AD01422C7
:1059700022F0A4FF4FEA00079DF837004FF0000126
:1059800010F0010F319814BF1522142222F096FF57
:1059900024909DF8370010F0010F319807D022F0C5
:1059A0003AF806E0152222F089FF0746E4E721F0E5
:1059B000FBFF319C1490002529461022204622F03E
:1059C0007DFF064620463022294622F077FF80469A
:1059D00020462946342222F071FF10F0020F18BF32
:1059E0004644319880693418319822F04DFB201AD2
:1059F000319C2190002520461222294622F05EFF8C
:105A0000064620462946302222F058FF804620468E
:105A10002946342222F052FF10F0040F18BF4644EA
:105A2000319840693418319822F028FB201A2290CE
:105A30009DF837009DF8366010F0010F14BF21A8C3
:105A400022A8209000210122319822F037FF2690D1
:105A500000210222319822F031FF25909DF8370075
:105A600010F0010F0CD025996FF04042914204D103
:105A70003199498D11F4806F0CD010F0010F0AD1CB
:105A800026996FF04042914205D13199498D11F428
:105A9000006F00D10026239949B110F0010F06D103
:105AA000002E08BF012602D0012E08BF00260025C7
:105AB0002C46A846A946002E77D09DF8370010F056
:105AC000040F08BF002203D031988068008D421E69
:105AD0000DF1140B10E000BFCDF82C902498CDE907
