:020000040800F2
:100000009015002045010008E3140008851300083E
:10001000E1140008070200086D1800080000000045
:100020000000000000000000000000002B15000888
:100030000902000800000000291500082D1500081D
:100040005F0100085F0100085F0100085F01000810
:100050005F0100085F0100085F0100085F01000800
:100060005F0100085F0100085F0100085F010008F0
:100070005F0100085F0100085F0100085F010008E0
:100080005F0100085F0100085F0100085F010008D0
:100090005F0100085F0100085F0100085F010008C0
:1000A0005F0100085F0100085F0100085F010008B0
:1000B0005F0100085F0100085F0100085F010008A0
:1000C0005F0100085F0100085F0100085F01000890
:1000D0005F010008051800085F0100085F010008C3
:1000E0005F0100085F0100085F0100085F01000870
:1000F0005F0100085F0100085F0100085F01000860
:100100005F0100085F0100085F0100085F0100084F
:100110005F0100085F0100085F0100085F0100083F
:100120005F0100085F0100085F0100085F0100082F
:10013000DFF80CD000F02AF800480047C919000881
:10014000901500200648804706480047FEE7FEE776
:10015000FEE7FEE7FEE7FEE7FEE7FEE7FEE7FEE777
:10016000B515000831010008D2B201E000F8012BFA
:10017000491EFBD270470022F6E710B513460A4627
:1001800004461946FFF7F0FF204610BD064C074D08
:1001900006E0E06840F0010394E807009847103457
:1001A000AC42F6D3FFF7C8FFE484000804850008DA
:1001B00070B5044600688168C943C90717D18168D2
:1001C00021F00101816000F01BFB05460AE000BF41
:1001D00000F016FB401B022804D920688068C04349
:1001E000C00706D020688068C043C007F0D0002058
:1001F00070BDA06A40F01000A062E06A40F001000B
:10020000E062012070BDFEE770470000F8B50024F1
:10021000009490F824202546012A12D0012280F86B
:1002200024204A681F23072A0DD20668776B521EC6
:1002300002EB820293409F430B6893401F43776316
:1002400019E00220F8BD06680D2A0AD2376BD21FCA
:1002500002EB820293409F430B6893401F43376336
:1002600009E0F76A0D3A02EB820293409F430B6864
:1002700093401F43F7620A68072306680A2A0AD3D5
:10028000F7680A3A02EB420293409F438B6893401F
:100290001F43F76008E0376902EB420293409F4337
:1002A0008B6893401F4337610A68102A01D0112AD6
:1002B00020D1124B02689A4217D193681B0219D4BD
:1002C000936843F4000393600968102912D10C4924
:1002D0000C4A0968B1FBF2F101EB8101490000E031
:1002E000491E00910029FBD104E0816A41F0200100
:1002F0008162012480F824502046F8BD002401408A
:100300001400002040420F002DE9F04104004FF09E
:1003100000057FD0A06A002628B9E66284F8246030
:10032000204600F081F82046FFF742FFA16AC90687
:1003300000D420B1A06A40F01000A0626AE0A16A77
:1003400021F4885141F00201A162334923688B42B4
:10035000E16904D1B1F5402F01D14FF40021277B91
:100360004FF4807C41EA470261680A43A168614515
:1003700008D0012906D0002194F814E0BEF1010F45
:1003800002D00AE06146F7E7C7B1A76A47F0200745
:10039000A762E76A47F00107E7625F6827F46947E9
:1003A0000F435F60236899681C4F3940114399607F
:1003B000A16861450BD0012909D00CE0DFF860E0AD
:1003C000A7690EEB47370F4347F40061E5E7218A41
:1003D0000D05A5F580152168CB6A23F470032B4326
:1003E000CB62216889680F4B1940914208D1E662BF
:1003F000A16A21F0020141F00101A162BDE8F08192
:10040000A06A20F0020040F01000A062E06A40F014
:100410000100E0620120F1E7003C0140FDF7E1FF4F
:1004200000E0FFFFFE0E1FFF08B500680649884286
:1004300008D10648816941F400718161806900F446
:100440000070009008BD0000002401400010024030
:1004500010B590F821100022022905D004218163F3
:1004600080F82020012010BD01680B6823F00E03E6
:100470000B6001680B6823F001030B6090F84030BB
:10048000C46B012101FA03F3636080F8211080F846
:100490002020104610BD00002DE9F05F90F82110DB
:1004A0000024022903D004218163012485E001682E
:1004B0000A6822F00E020A6001680A6822F001024E
:1004C0000A603F4E3E4FB215DFF8F4C0DFF8F090FF
:1004D000DFF8ECA0DFF8E8B0DFF8E4E00168783F8F
:1004E00013011502ACF1640CA9F15009AAF13C0A00
:1004F000ABF1280BAEF1140E4FF48018B14227D99E
:10050000B9420ED0614512D049451DD0514518D091
:10051000594518D0714501D1424615E0294EB142E6
:1005200001D1012210E0274E1436B14201D1102230
:100530000AE0244E2836B14206D0224A3C3291428B
:1005400001D11A4600E02A461E49091F0A602BE025
:10055000B94213D0614517D0494522D051451DD02D
:1005600059451DD0714501D142461AE0B14202D130
:100570004FF0807215E0134EB14201D1012210E01C
:10058000104E1436B14201D110220AE00D4E283629
:10059000B14206D00B4A3C32914201D11A4600E0EA
:1005A0002A46074980394A60012180F8211000213C
:1005B00080F82010416B01B188472046BDE8F09FCC
:1005C000800002400804024070B5044600F018F9AB
:1005D0000546601C02D004480078044400F010F97D
:1005E000401BA042FAD370BD080000202DE9F84F4F
:1005F000DFF8C8910024A9F1040B23460F2709F165
:10060000040AABF1040ED1E00125A54006EA05027B
:10061000AA4276D1DFF8A8C14E68A6EB0C08664561
:100620002BD00DDC032E34D005DC36B3012E19D0CF
:10063000022E2FD11BE0112E16D0122E2AD119E036
:10064000B8F5881F19D006DCB8F5803F15D0B8F58D
:10065000801F1FD111E0B8F5001F0ED0B8F5041FA0
:1006600018D10AE0CB6815E0CB681B1D12E0CB68FF
:1006700008330FE0CB680C330CE08B682BB1012BF7
:100680004FF0080303D0456104E0042302E0056154
:1006900000E00023FF2A01D8064601E000F104062D
:1006A0004FEA840501D9A5F12005D6F8008007FAA4
:1006B00005FC28EA0C0803FA05F548EA0508C6F81F
:1006C00000804D68ED0070D53E4DAE6946F00106E4
:1006D000AE61AD6924F0030605F0010500953A4DC1
:1006E00006EB050CDCF80850A607360F07FA06F8EB
:1006F00025EA0805DFF8D480404503D14FF0000813
:1007000025E052E0DFF8C880404502D14FF00108F3
:100710001DE0DFF8C080404502D14FF0020816E02E
:10072000DFF8B480404502D14FF003080FE0DFF856
:10073000AC80404502D14FF0040808E0DFF8A0800B
:10074000404502D14FF0050801E04FF0060808FAD5
:1007500006F848EA0508CCF808804D68D9F800602A
:10076000ED024D4601D5164300E096432E604D68DC
:10077000DAF80060AD02554601D5164300E0964315
:100780002E604D68DBF80060AD035D4601D5164371
:1007900000E096432E604D68DEF80060ED0375467C
:1007A00001D5164300E096432E60641C0A68164685
:1007B000E2407FF429AFBDE8F88F00000804014053
:1007C000000011100010024000000140000801402C
:1007D000000C0140001001400014014000180140CD
:1007E000001C0140C26821EA02030A4043EA0241B8
:1007F000016170470AB1016170470904FBE700001D
:1008000001488068704700000800002002488168A5
:10081000027811448160704708000020074810B535
:10082000016841F010010160032000F075F80F200D
:1008300000F006F800F024F8002010BD002002406F
:1008400070B50D4D04464FF47A712878B1FBF0F085
:100850000A490968B1FBF0F000F07CFB48B9102CA4
:1008600007D200222146501E00F036F800206C60AE
:1008700070BD012070BD00000800002014000020A1
:100880000C4808B5816941F001018161816901F07D
:1008900001010091C16941F08051C161C06900F05E
:1008A000805000900448416821F0E06141F00071FF
:1008B000416008BD0010024000000140002809DB33
:1008C00000F01F02012191404009800000F1E0206A
:1008D000C0F8001170470000F0B40E4B1B680C46C6
:1008E000C3F30223C3F10705042D00D90425191D04
:1008F000072901D2002300E0DB1E012606FA05F1DC
:10090000491E214099409E40761E16403143F0BC5E
:1009100000F0ADBF0CED00E0064900F007020868EA
:100920004FF6FF03184040EA0220034A10430860D4
:10093000704700000CED00E00000FA052DE9F843D7
:1009400005460078354CC00754D0E0690026C00049
:1009500008D4E06940F08050E061E069012600F0D1
:10096000805000902E480168C90512D40168804665
:1009700041F480710160FFF743FF074605E000BFC7
:10098000FFF73EFFC01B642823D8D8F80000C0053D
:10099000F6D5206A10F4407021D0A98801F4407186
:1009A00081421CD0206A1F49012220F440700A6055
:1009B00000220A602062C00711D0FFF721FF07461E
:1009C00041F2883808E000BFFFF71AFFC11B41451C
:1009D00002D90320BDE8F883206A8007F4D5206A95
:1009E000696820F44070084320621EB1E06920F07D
:1009F0008050E0612878800705D56068A96820F4F8
:100A00004040084360602878C00605D56068696981
:100A100020F48000084360600020DBE70010024003
:100A200000700040400442422DE9F0470F460500A7
:100A300061D0434E306800F00700B84209D23068F8
:100A400020F0070038433060306800F00700B842FB
:100A500051D128683B4C810712D5400703D5606807
:100A600040F4E06060602878000703D5606840F4D7
:100A7000605060606068A96820F0F0000843606022
:100A80002878C00728D06868012810D0216802287B
:100A900010D0890700292EDA616821F00301014393
:100AA0006160FFF7ADFE804641F288390DE02168B4
:100AB0008903EFE78901EDE7FFF7A2FEA0EB08014C
:100AC000494502D90320BDE8F0876068696800F0F5
:100AD0000C00B0EB810FEFD1306800F00700B84296
:100AE0000BD9306820F0070038433060306800F0E0
:100AF0000700B84201D00120E5E72878400705D576
:100B00006068E96820F4E0600843606028780007C6
:100B100006D56068296920F4605040EAC100606031
:100B200000F03EF86168084AC1F30311515CC84007
:100B30000649086006480068FFF782FE0020C2E709
:100B400000200240001002403E290008140000204E
:100B50000C000020014800687047000014000020CD
:100B60000448054900684968044AC1F30221515C00
:100B7000C840704714000020001002404E290008B1
:100B80000448054900684968044AC1F3C221515C20
:100B9000C840704714000020001002404E29000891
:100BA0000E4A51680E4801F00C03042B11D0082B9B
:100BB0000FD10C48C1F38343C903C05C0AD5516807
:100BC000084AC1F34041921E515C054A5043B0FBB4
:100BD000F1F070470449484370470000001002409C
:100BE00000127A002E29000800093D0030B585B0BA
:100BF0000020029002200190032003900B4C4FF440
:100C000080700090A0690D4640F00400A061A069CA
:100C1000694600F0040004900548FFF7E7FC6068AF
:100C200020F0E0602843606005B030BD0010024055
:100C3000000801402DE9F84F040070D02078C04D25
:100C4000C00749D06868C0F38100012807D06868F0
:100C5000C0F38100022809D16868C00306D528685E
:100C6000800339D560680028E7D035E06068B0F5CA
:100C7000803F0BD010B1B0F5A02F11D0286820F420
:100C800080302860286820F4802002E0286840F442
:100C900080302860606890B1FFF7B2FD06460AE038
:100CA000286840F480202860F0E700BFFFF7A8FD27
:100CB000801B642873D828688003F7D50CE0FFF701
:100CC0009FFD064605E000BFFFF79AFD801B6428E4
:100CD000F0D828688003F7D420789A4E80074FF028
:100CE00001094FF0000839D5686810F00C0F07D0E3
:100CF0006868C0F38100022809D16868C00306D47F
:100D00002868800714D52069012808D110E02069DF
:100D1000B0B1C6F80090FFF773FD074605E00AE1A1
:100D2000FFF76EFDC01B0228C4D828688007F7D5DE
:100D30002868616920F0F80040EAC10028600DE0F1
:100D4000C6F80080FFF75CFD074604E0FFF758FD9A
:100D5000C01B022823D828688007F7D42078000712
:100D60002CD57948A169D9B1C0F80090FFF748FDAA
:100D7000074604E0FFF744FDC01B02280FD8686A4D
:100D80008007F7D571484FF4FA510068B0FBF1F0D5
:100D9000009000BF0098411E0091FAD20EE080E062
:100DA000C0F80080FFF72CFD074604E0FFF728FDA0
:100DB000C01B022875D8686A8007F7D420784007DE
:100DC00060D5E8690027C00008D4E86940F0805089
:100DD000E861E869012700F0805000905C480168F4
:100DE000C90513D40168834641F480710160FFF79F
:100DF00007FD824606E000BFFFF702FDA0EB0A00F8
:100E000064284ED8DBF80000C005F5D5E06801285D
:100E10000AD008B1052813D0286A20F00100286202
:100E2000286A20F0040002E0286A40F001002862ED
:100E3000E06841F2883B98B1FFF7E2FC82460BE0A4
:100E4000286A40F004002862EEE700BFFFF7D8FCF4
:100E5000A0EB0A0159455AD8286A8007F6D50CE05C
:100E6000FFF7CEFC824605E0FFF7CAFCA0EB0A01C3
:100E700059454CD8286A8007F6D41FB1E86920F09C
:100E80008050E861E06988B36968C1F38101022993
:100E900044D00228C6F8608004D0FFF7B1FC0446B5
:100EA00038E034E0FFF7ACFC074604E0FFF7A8FCAD
:100EB000C01B02282BD828688001F7D4206AB0F51F
:100EC000803F05D16868A16820F40030084368605D
:100ED000D4E908010843696821F474110843686083
:100EE000C6F86090FFF78CFC044606E025E000BFE2
:100EF000FFF786FC001B022809D828688001F7D577
:100F00001BE000BFFFF77CFC001B022802D9032076
:100F1000BDE8F88F28688001F4D40EE00128F7D0EE
:100F20006868226A00F48031914204D1616A00F459
:100F30007010884201D00120EAE70020E8E70000B5
:100F4000001002400000424280044242140000208F
:100F50000070004010B5401EB0F1807F01D3012029
:100F600010BD4FF0E02460610F21601700F07FFC9E
:100F70000020A06107202061002010BD704770474D
:100F8000F8B5016804460868CA684B6910F00F0F8D
:100F90004FF0000559D003F0010602F49077374373
:100FA00065D0C10705D0D10503D5616C41F00101C1
:100FB0006164410705D5D90703D0616C41F0020196
:100FC0006164810705D5D90703D0616C41F0040144
:100FD0006164010707D502F02001314303D0616C41
:100FE00041F008016164616C00293AD0800604D5A3
:100FF000900602D5204600F00DFB20684069616C28
:10100000C0F38010090700D460B3204600F0DBFA7B
:1010100020684069400621D52068143050E8001F40
:1010200021F0400140E80012002AF5D1E06BA8B1A0
:101030006D494163E06BFFF72FFA002811D0E06B98
:10104000416B01B0BDE8F040084783060FD5930619
:101050000DD52046BDE8F84000F0DCBA2046FFF789
:101060008EFFF8BD2046FFF78AFF6564F8BD266B4A
:101070002023012E7CD1C6067AD5D60678D50868FD
:101080004868009048694FF00206400640D5E16B81
:10109000086840680004000CE8D0A28D8242E5D9BF
:1010A000E085886920282DD020680C3050E8001F8A
:1010B00021F4807140E80012002AF5D12068143034
:1010C00050E8001F21F0010140E80012002AF5D18C
:1010D0002068143050E8001F21F0400140E8001261
:1010E000002AF5D184F84230256320680C3050E89E
:1010F000001F21F0100140E80012002AF5D1E06B3A
:10110000FFF7A6F96663A08DE18D401A81B22AE04F
:10111000A08DE18D401A81B2E08D0028A6D0002973
:10112000A4D022680C3252E8000F20F4907042E8FC
:101130000007002FF5D12068143050E8002F22F06E
:10114000010240E80027002FF5D184F842302563E2
:1011500020680C3050E8002F22F0100240E80023F5
:10116000002BF5D166632046FFF708FFF8BDFFE7C7
:1011700005062BD5150629D594F841002128F5D16F
:10118000A068B0F5805F01D12069B0B1206A411C30
:101190002162216800784860E08C401E0004000C49
:1011A000E084E3D12068C16821F08001C16020683B
:1011B000C16841F04001C160D8E7206A0088C0F3EF
:1011C00008004860206A801C2062E5E74006CDD513
:1011D0005006CBD5CA68204622F04002CA6084F887
:1011E000413000F0CEF8C1E7B715000870B5040033
:1011F00004D094F84100002510B106E0012070BD34
:1012000084F84050204600F023F8242084F8410060
:101210002068C16821F40051C160204600F05CFAEA
:101220002068016921F4904101612068416921F041
:101230002A0141612068C16841F40051C1606564C0
:10124000202084F8410084F842006563002070BDCE
:1012500030B585B000240094019402940394006892
:10126000184988422CD11848816941F48041816134
:10127000816901F480410491816941F00401816137
:101280008069124D00F0040004904FF4007000904B
:10129000022001900320039069462846FFF7A6F933
:1012A0002815CDE90004694628460294FFF79EF907
:1012B000002211462520FFF70FFB2520FFF7FEFA3D
:1012C00005B030BD00380140001002400008014068
:1012D0002DE9F84F044690F842009A4616460D460E
:1012E000202802D00220BDE8F88FB5B1AEB10020B1
:1012F0006064222184F842102063FFF781FAA685FA
:101300008146E685A0684FF480582027404501D1EA
:10131000206920B12E46002529E00120E3E70026C0
:1013200025E04B46002220212046CDF800A000F009
:101330002FFA18B184F842700320D4E726B1A068D0
:1013400040451AD038B108E020684068C0F3080072
:1013500025F8020B08E0206978B12068406800F0A9
:101360007F0000BF06F8010BE08D401EE085E08D98
:101370000028D6D184F84270B5E720684068F1E7CC
:1013800070477047FEE700003EB500241148009406
:10139000019402940E498460016004730475012570
:1013A00005614FF460214460C161FEF7ADFF08B1F3
:1013B00072B6FEE71020CDE90005694602940548A3
:1013C000FEF724FF002801D072B6FEE73EBD000004
:1013D0000024014018010020F0B585B000242C48FD
:1013E0000094019402940394816941F01001816199
:1013F000816901F010010491816941F0040181616A
:10140000816901F004010491816941F02001816149
:10141000816901F020010491816941F00801816135
:1014200080691C4D00F008000490012240212846EC
:10143000FFF7E0F9184E012238213046FFF7DAF9BC
:101440000C20CDE900040294144C69462046FFF7B5
:10145000CDF8A01500900220019003906946204627
:10146000FFF7C4F801244020CDE900040327CDE9AB
:10147000024769462846FFF7B9F83820CDE900044D
:10148000CDE9024769463046FFF7B0F805B0F0BD38
:101490000010024000140140000C0140000801400F
:1014A00010B50E4C0C480C2120604FF4E130606008
:1014B0000020A060E060C4E90401A061E061204672
:1014C000FFF794FE08B172B6FEE72068C16841F0EC
:1014D0003001C16010BD000000380140480100200B
:1014E000FEE7FEE710B50C4B0C4A0D490D4800F025
:1014F000DBFB0C4800F0C7FF00210A4800F0D3FFD7
:10150000084800F0AFFA4FF47A70FFF75DF8BDE8D5
:101510001040044800F098BE5121000849250008F9
:10152000808300088400002070477047FFF76EB981
:1015300030B595B028216846FEF71DFE14210AA893
:10154000FEF719FE18210FA8FEF715FE0121080469
:10155000CDE900100025029502240491CDE9074051
:101560004FF4E01009906846FFF764FB08B172B6CB
:10157000FEE70AA90F2081E831004FF48060CDE931
:101580000D0502210AA8FFF74FFA08B172B6FEE76F
:101590004FF4004011900F940FA8FFF7CFF908B156
:1015A00072B6FEE700224FF0E0611046FFF71EFB27
:1015B00015B030BD704710B5406A0021C185C184A7
:1015C000FFF7DDFC10BD01680C3151E8002F22F45B
:1015D000907241E80023002BF5D10168143151E8E5
:1015E000002F22F0010241E80023002BF5D1016B0E
:1015F000012909D101680C3151E8002F22F01002B5
:1016000041E80023002BF5D1202180F84210002171
:101610000163704708B590F84210222901D00220DA
:1016200008BD82684FF480539A4201D1016921B10B
:10163000816A9A421BD04AB10AE00268816A526804
:10164000C2F308020A80816A891C08E0026972B14B
:101650000268526802F07F020A70816A491C816246
:10166000C18D491E0904090CC18503D01BE0026825
:101670005268F1E70168CA6822F02002CA60016876
:10168000CA6822F48072CA6001684A6922F00102C5
:101690004A61202180F8421000214163026B012A37
:1016A00003D0FFF76DFE002008BD016301680C3117
:1016B00051E8002F22F0100241E80023002BF5D161
:1016C00001680A68D20602D50A6849680091818DCE
:1016D000FFF754FCE7E7000070B5044600680169B5
:1016E000E26821F44051114301612169A068084377
:1016F000616908432168CA6841F20C639A43024356
:10170000CA6020684169A26921F4407111434161B6
:101710001E492068884202D1FFF732FA01E0FFF744
:101720001FFA00EBC00101EB001260686421800029
:10173000B2FBF0F3B3FBF1F36FF018067343B2FBA7
:10174000F0F5B2FBF0F605EB8305322303EB05154C
:10175000B5FBF1F5B6FBF1F605F0F00505EB061566
:10176000B2FBF0F6B2FBF0F0B0FBF1F06FF0180254
:10177000504306EB800003EB0010B0FBF1F0216852
:1017800000F00F002844886070BD00000038014060
:101790002DE9F843984617460D460446089E24E076
:1017A000701C22D0FFF72CF8A0EB0800B0421AD82A
:1017B000CEB12068C168490717D5802D15D0402DBE
:1017C00013D00168C94309070FD401680025406898
:1017D00000902046FFF7F7FE0820606484F8405030
:1017E0000120BDE8F8830320FBE72068006835EAA4
:1017F000000004D00020B842D2D00020F1E7012040
:10180000F9E70000F8B5154D286800684FF00006AC
:10181000C043800612D4134C1149002320780122C2
:101820000144401C20702846FFF752FD20786428B0
:1018300000D3267029686FF02000086028680168CE
:10184000C943C90605D401684068074900900120D2
:101850000870BDE8F8400148FFF792BB480100203E
:10186000200000200100002000000020FEE7090702
:10187000090E002804DB00F1E02080F80014704716
:1018800000F00F0000F1E02080F8141D704702E026
:1018900008C8121F08C1002AFAD1704770470020FB
:1018A00001E001C1121F002AFBD170472DE9F04170
:1018B0004FF0E025074600246E69FFF74BF90A490F
:1018C000B0FBF1F2A8697A43A9698142FCD002D247
:1018D000A0EB010002E0A6EB010318440444084613
:1018E0009442F1D3BDE8F08140420F0000224C2128
:1018F00000F0FCBF00224D2100F0F8BF01684A7BD8
:101900002D2100F0F3BF10B5044601224C2100F058
:10191000EDFF2046BDE81040FFF7F0BF01224D214A
:1019200000F0E4BF10B5044611B1FFF7F7FF01E086
:10193000FFF7E0FF2046FFF7E1FF2046FFF7E3FF58
:101940002046BDE81040FFF7D1BF70B50C460546F4
:1019500001F08001FFF7E6FF04F040012846FFF7A1
:10196000E1FF04F020012846FFF7DCFF04F010013E
:101970002846FFF7D7FF04F008012846FFF7D2FFFB
:1019800004F004012846FFF7CDFF04F002012846C9
:10199000FFF7C8FF04F001012846FFF7C3FF284600
:1019A000FFF7BCFF2846FFF7A9FF2846FFF7ABFF6C
:1019B0002846FFF7B3FF2846FFF7A0FF2846BDE8FB
:1019C0007040FFF793BF0000FEF728FFFFF7B0FD60
:1019D000FFF702FDFFF764FDFFF7D6FCFFF782FD7E
:1019E0001C4C0027651CDFF87080E61C4FF47A79E8
:1019F0002078401CC0B22070092800D927702078B8
:101A0000164930302870164800F0FFF800211448BD
:101A100000F0F3F80F4B3222DB1C6421104800F079
:101A2000BDF801210E4800F0E8F80A4B32225B1C99
:101A300064210B4800F0B2F8094800F0D5F8287886
:101A4000307040214046FEF7CDFE4846FEF7BCFD13
:101A5000CEE70000020000200014014056290008D3
:101A60008400002001680A7C90F83810406B5143D4
:101A7000C900FEF780BB2DE9F041044690F87000E4
:101A80001F4615460E4630B1012809D002280CD059
:101A9000032815D10FE0E16D20468847284408E06F
:101AA000E16D20468847301A09E0E16D20468847FD
:101AB000281A85B204E0E16D20468847304486B29A
:101AC00039460027204600F0E5FAA4F864600100DA
:101AD000A4F8665003D0204600F00CFA87B23846CE
:101AE000BDE8F08138B50024009400F001F838BD5D
:101AF0003FB581B0044690F88C00089900283AD090
:101B0000BDF81000002836D0012811D9022902D0D2
:101B1000032907D00CE0BDF80820101A401CADF8CE
:101B2000080005E0BDF80C20101A401CADF80C00B0
:101B300011F0010521D0B4F84810BDF80800814229
:101B400019D8B4F84A10814215D9B4F84E30B4F817
:101B50004C2004A90DF10C0000F03EF900280AD039
:101B60000095206BBDF81030BDF80C208568BDF8DD
:101B700008102046A84705B030BDB4F84C10BDF899
:101B80000C008142F7D8B4F84E108142F3D9B4F872
:101B90004A30B4F8482004A902A8DDE730B4024C6A
:101BA000446030BC00F045B90D25000838B501246B
:101BB0000094FFF79DFF38BD70B50D461E460446E4
:101BC000B0F84E10B0F84C00049B00F0E9FA002881
:101BD00009D0B4F84A10B4F8480033462A46BDE8A4
:101BE000704000F0DDBA70BD10B5044600F0DFFBB8
:101BF0002046BDE8104000F04EBC80F8921003294A
:101C000002D3012180F89210704710B50446806D10
:101C1000884209D004F17400A16500F093FB2046CE
:101C2000BDE8104000F05CB810BD80F8701070473F
:101C300080F86D10704700000149C16570470000D1
:101C4000A91E00080021A0F85010A0F854104FF66B
:101C5000FF71A0F85210A0F85610016B49680847B0
:101C600070B5044600250498A565E362616384F8B5
:101C7000382084F8395084F86D5084F8915084F8F5
:101C80008D50012184F8921084F89310206301682C
:101C9000204688472046FFF7D5FF2046FFF7CCFFB8
:101CA00084F8705070BD00007CB50C46009313465C
:101CB0000546084A084900F0FEFB01A800F03CFB7D
:101CC0000146064B00949DF804202846FFF7C8FF04
:101CD0007CBD0000BD260008E5270008B9210008EA
:101CE00010B5816D00291AD090F9813080F88E30BE
:101CF00090F9822080F88F2090F88D1000290ED066
:101D000001290DD090F97E4090F980100C449C423E
:101D100001DD80F88E408A4201DD80F88F1010BD11
:101D200090F983108B4201DA80F88E1090F98410BC
:101D3000F1E72BB1012B05D0022B06D0104402E0B5
:101D4000084400E0801A80B27047401AFBE72BB1CC
:101D5000012B05D0022B06D0401A02E0104400E00F
:101D6000084480B27047801AFBE738B50446B0F8E3
:101D700056000090B4F85230B4F85420B4F8501023
:101D80002046FFF719FF18B3012084F88C00B4F83F
:101D90004810B4F85000814201D2A4F84800B4F8C9
:101DA0004A10B4F85200814201D9A4F84A00B4F8AC
:101DB0004C10B4F85400814201D2A4F84C00B4F89D
:101DC0004E10B4F85600814201D9A4F84E0038BD37
:101DD000002084F88C0038BD30B504880D88254477
:101DE000ADB2AC4205D99C4202D25D1EADB200E05C
:101DF00014469C4201D2954201D8002030BD944245
:101E000000D214469D4200D91D460480281B08803C
:101E1000012030BD38B5C58F049C0094521BC46AA4
:101E200092B2A04738BD38B5049C0094FFF7F2FF8A
:101E300038BD2DE9F0471C4691468846064600F01D
:101E400071FD00254FF6FF77726821783046904784
:101E50000346B84225D0641CA3F57F40FE38F3D07A
:101E60004A4641463046FFF706FE96F8701031B1FB
:101E7000012907D0022908D003290FD10AE008EB75
:101E8000000104E009EB000106E0A8EB00011FFAE5
:101E900081F803E0A9EB00011FFA81F9284485B21B
:101EA000D2E72846BDE8F0870020704710B50C4601
:101EB00000F006F80122641EA240801A40B210BD54
:101EC00030B50568047B2A78E2406318DBB2082B42
:101ED00009D36D1C05602D78C4F10804A540154395
:101EE000083BEAB2DBB201248C40641E1440037349
:101EF000204630BD2DE9F843054600F1600400F0AE
:101F00000CF915F96B6F2046E97BFFF7CFFF81468F
:101F1000297C2046FFF7CAFF0746697C20466B3DB7
:101F2000FFF7C4FF804694F90A00002857DDF01936
:101F3000404247B2237CA0883A464946FFF7F9FE63
:101F4000A080237C3A46E0884946FFF700FFE08006
:101F5000A188277C02460B4637B1012F0AD0022FF9
:101F600040D0032F0FD146E094F90A7030443B442F
:101F70009BB207E0891B491C94F90A705B1C89B26B
:101F80009BB2384480B200902846FFF715FE30B36C
:101F90000020207284F8090095F876102046FFF79B
:101FA0008FFF814695F877102046FFF789FF074697
:101FB00000224946284600F027F8012239462846E3
:101FC00000F022F801212046FFF77AFF0028EFD128
:101FD00094F90900B042DFDBA07B85F8920040460F
:101FE000BDE8F88394F90A705B1CC91B491C89B2CF
:101FF0009BB2921B04E094F90A7033449BB2D21B4B
:10200000521C92B2401CBDE72DE9F74F84B00D463B
:10201000049C94F8687094F869806034A07AC01BBE
:10202000C6B20196B54200D201954FFA88F279B254
:10203000A088B4F806B0237C92468946FFF779FE63
:102040000290237C524649465846FFF780FE0246DE
:10205000069808B1A17B02E0607B50B9E17B04984F
:1020600080F89210207C0090DDE901310498FFF7A0
:102070003FFDB54207D3A81BC5B208F101000027F8
:1020800000F0FF08CAE77819207284F8098007B0C9
:10209000BDE8F08F70B50D460146806D1730FF2DFD
:1020A00010D8612D02D3B1F8881003E0412D02D37E
:1020B000B1F886100844417819B30278AA42F9D1E0
:1020C000801C70BDB1F88A100C18264600213046DD
:1020D00000F019F804440221304600F014F8361DCF
:1020E000A842F3D34FF6FF72207802EA002160780D
:1020F000084306D0A84201D1E01C70BDA07804447A
:10210000F2E7002070BD08444FF6FF720178407876
:1021100002EA0121084480B2704730B5054600F15B
:10212000600401660020207315F8781F2046FFF731
:10213000C7FEA07269782046FFF7C2FEE072A87E53
:10214000A07310B10020E07330BD0120FBE7000058
:1021500010B510462B2913D004DC292909D02A29CF
:1021600005D109E00D4B4C290CD04D290ED0002093
:1021700010BDFEF729FA0FE00A20FFF797FB0BE0EE
:1021800000BF09E002B10122082102E002B10122F0
:1021900020211846FEF72EFB012010BD000C014047
:1021A0008A4205D2834201D89A4203D9012070475E
:1021B0008342F9D800207047F0B502F007060124E9
:1021C000B440002590F892E0E7B2DDF814C02C4648
:1021D000BEF1010F01D83D4600D03C46076822F011
:1021E0000702BCF1000F3F7C07FB02F7BAB2476B56
:1021F0003A44114409D108785B1E284360401B040F
:1022000001F8010B1B0CF6D1F0BD0A78761C2A43AD
:102210006240A3F101030A7016F007069BB206D0D4
:102220006A06150E6206140E002BEED1F0BD428F29
:10223000114490F89220012A03D800BF4FF0010505
:10224000F2D04FF00104EFE770B505461424FFF714
:1022500009FC01212846FFF7EBFC00212846FFF787
:10226000E4FC2B492846FFF7D0FC2AA31422214680
:102270002846FFF793FC01212846FFF7D6FC2649A4
:102280002846FFF7C2FC25A3082229212846FFF78C
:1022900085FC00212846FFF7C8FC1D492846FFF7AA
:1022A000B4FC1FA31E2247212846FFF777FC1DA37D
:1022B0001E2257212846FFF771FC2F2323221621C7
:1022C0002846FFF70FFC2F23242217212846FFF76B
:1022D00009FC0C23202241212846FFF767FC0C2330
:1022E000212242212846FFF761FC0F492846FFF7CB
:1022F0008CFC0EA33C221E212846FFF74FFC2846EB
:10230000FFF772FCBDE870404FF47A70FEF75CB9DD
:102310005629000855000000CB4B0008380000008B
:1023200067000000B2000000F24E000872796D6391
:10233000752E636F6D000000082101700048704722
:102340009001002070B505460878287048786870BC
:102350008878A870C878E870087928714879687119
:1023600088790C46A871E079E871207A2872607A41
:102370006872A07AA872E07AE872207B2873607B8A
:102380006873A07BA873E07BE873207C287411211C
:102390002046FFF7B8FE688213212046FFF7B3FE00
:1023A000A88215212046FFF7AEFEE88270BD2DE918
:1023B000F843064690F8387090F8395000680024C9
:1023C0004FF6FF7890F81190316830462A460B7C22
:1023D000716B04FB03FC1FFA8CFC08EACC0C614413
:1023E0000091002100F040F8641C6D1CE4B2EDB2D5
:1023F000BC4201D24D45E7D3BDE8F883F0B590F873
:1024000038204FF6FF75036805EAC2018187197C01
:1024100005EAC101418790F8394005EAC401C18746
:102420005E7CA718B74201D9321B92B205EAC202FC
:1024300020F8401F11444180998A8180D98AC18047
:10244000F0BDFFF7DBBF0021A0F84810B0F8441042
:10245000A0F84A10B0F84010A0F84C10B0F84210A4
:10246000A0F84E10FFF781BC1CB58DF805108DF853
:102470000620049C8DF804300094012284686B4689
:102480000F21A0471CBD30B484680023A44630BC93
:102490001A460A21604730B484680023A44630BC41
:1024A0001A461021604730B484680023A4460A46C7
:1024B00030BC0B2160472DE9F04115460E4604461D
:1024C000069F00F009F86761A660C4E9035320463F
:1024D000BDE8F04100F012B8002140F8081B064AA0
:1024E000026042608260C260C17681770161FF2133
:1024F000017780F820107047E928000830B484681C
:102500000023A44630BC1A4609216047080001D0C8
:102510000A2801D14FF6FF70704730B404690023D8
:10252000A44630BC1A461921604713B5012204693C
:1025300001AB1721A0471CBD30B404690023A44699
:1025400030BC1A461821604770B516460446182953
:1025500024D004DC142914D0172904D105E019294A
:102560003DD020294CD0002070BD1D4606E02978C2
:102570002046FFF7EAF9761EF6B26D1C002EF6D162
:102580003EE001224C2100F0B1F901224D2120460C
:1025900000F0ACF92046FFF7B1F931E094F82500DE
:1025A00040B12046FFF7BAF92046FFF7A7F92046C9
:1025B000FFF7A9F92046FFF7B1F92046FFF79AF98E
:1025C0002046FFF79BF92046FFF790F9012184F898
:1025D0002510204694F82410FFF7B7F910E0FFF714
:1025E00089F92046FFF78AF92046FFF78CF9204643
:1025F000FFF794F92046FFF781F9002084F82500C1
:10260000012070BD30B4C4680023A44630BC1A4613
:102610001921604730B4C4680023A4460A4630BC80
:102620001621604730B4C4680023A4460A4630BC73
:102630001521604730B4C4681346A4460A4630BC2E
:1026400017216047F8B50C464FEA000514F8011B46
:10265000182924D00EDC152919D0162917D01729CE
:1026600023D120788DF800006A4601212846FFF723
:10267000E1FF0AE0192912D0FE2916D122788DF83F
:1026800000202921284600F031F9641CDEE7227879
:102690008DF80020EE6800232846B047F5E70023B8
:1026A000EE681A462846B047D0E7F8BD30B4C46893
:1026B0000023A44630BC1A46182160472DE9F0419A
:1026C000DFF8B08014460646A1F11402002798F8FE
:1026D00000001D46062A4AD2DFE802F02F03161B2F
:1026E0003E4310B13046FFF718FF3046FFF724FF96
:1026F00000213046FFF719FF21463046FFF715FF4E
:10270000012088F8000029E021463046FFF70DFF40
:1027100024E050B13046FFF700FF06E018213046B4
:1027200000F0EAF8183CE4B21835182C2A46F5D81F
:102730002146304600F0E0F80EE096F82400FF282D
:1027400002D1782086F8240037692B46224630468D
:10275000BC46BDE8F041604788F800700120BDE844
:10276000F0810028F8D03046FFF7D7FEF4E70020CC
:10277000F5E700001800002070B500234569044605
:102780001A462821A8470023E5681A461421204646
:10279000A84701224B21204600F0A8F820682921F3
:1027A0000279204600F0A2F800224B21204600F0DA
:1027B0009DF8206829210279204600F097F801222F
:1027C0004B21204600F092F82068292142792046CA
:1027D000BDE8704000F08AB80160897C80F8221062
:1027E0007047000070B50C46054600F019F888B92E
:1027F000092C0BD00A2C01D0002070BD2846FFF711
:10280000BBFF05492846FFF71DFF03E003492846A3
:10281000FFF7E2FF012070BDB2830008B484000816
:102820002DE9F0411E46144605460B2908D00D2916
:102830000ED00E291ED00F2927D00020BDE8F08130
:102840001AB12849FFF7FEFE4AE02649491FF9E779
:102850004AB124490C31FFF7F5FE286890F81300BF
:1028600085F822003CE01F49491DFFF7EBFE286870
:10287000807CF5E7FFF71AFF81212846FFF7D2FE9B
:1028800021462846FFF7C6FE27E0FFF70FFF7079C5
:1028900095F8221001EBC000C7B240212846FFF78F
:1028A000C1FE102040EA17112846FFF7BBFE07F0D3
:1028B0000F012846FFF7AEFEB07940F0B001284680
:1028C000FFF7A8FE30793268C006010E2846FFF7F0
:1028D000B1FE641E14F0FF04F4D12846FFF792FE07
:1028E0000120ABE7918300080020704730B44469B1
:1028F0000023A44630BC60472DE9F04115460E4642
:102900000446FFF719FE40212046FFF70EFE276917
:102910002B46324617212046B8472046BDE8F041F5
:10292000FFF7FBBD002180F826107047010202036B
:102930000405060708090A0B0C0D0E0F1010000005
:10294000000000000000010203040607080900005F
:10295000000001020304BF02050405060104061578
:102960002600F918FA19F904E10AAE2258200BD50D
:102970001CF587FFFF7F17002119D51CF58753230E
:1029800016588BF417879CFB0011689E0D920F2F31
:10299000002224D51CF58743A288450651641045C2
:1029A00006516410450651641045065164104506F1
:1029B000F9F0FF13002343D51CF587EB838C350614
:1029C000596390350659638C45C6380F8CF1C01891
:1029D000171A83AC31C81A83AC31C62263A007C46E
:1029E00078608C07C61964AC31C81A83AC31061BF9
:1029F000632C32C622637C78243BD51CF5875B248C
:102A000012689A520C91900C1144884304110111E0
:102A100041560984654D6B892546425944904504C9
:102A200031811041CA182490F240302EAD5622F563
:102A30006114002541D51CF587DBE410720A298852
:102A400010A204294490500A112410E3100A049D96
:102A50004016110412582015956AA81D344821818A
:102A60000C524820831022C820848C444839859811
:102A7000F2E136002641D51CF587EBC621A654119C
:102A800044114212212411421221631141186AC7D4
:102A900099861A0984884206114590420219A42099
:102AA00042CC21E494428C3145A4F28028699063A1
:102AB0004AF8701B002710D51CF5875B4292487FAF
:102AC0001FFE7F06002823D51CF5877B2396675CB5
:102AD000793548450A92487F9244124B24B18A24A2
:102AE0001A686289448A02002925D51CF587BD2110
:102AF0000BB46215492C9148122949227D90440A51
:102B0000125820058BB35E8143860F0E002A29D50B
:102B10001CF5879F2591B6C6204398128628E401AC
:102B200061DC2AD038C488208A0C920A218898A1B6
:102B3000C2111F7E14002B18D51CF5875F2091BE93
:102B4000F580200F08F2805024D2F7E177012C1590
:102B5000D51CF587FFFF9D110B34CFC012499C2275
:102B60008963012D0ED51CF587FFCD67BE0FFF973A
:102B7000002E11D51CF587FFFF2281E659907CB805
:102B800005002F29D51CF58783818E484112491CE9
:102B900091C41129482281241248228124124822FA
:102BA000812412482281448E0FDB003043D51CF56E
:102BB00087FBC5A5B592092591420E31C510530C6E
:102BC00029A610630A29231042C8108490310621D7
:102BD000648C41081183506114428E21A518628AC9
:102BE00021A618724821C80493D64AAE7C783116C3
:102BF000D51CF58717C8330D2DC548202C1012E9B8
:102C0000FFBF0F0F3221D51CF587F3C625C5521122
:102C1000E61043904024D2208904D25E05E922497F
:102C2000C1FC3E9C063328D51CF587F3C525C5524B
:102C300011260953220D9276186AA8A558451A0A3A
:102C4000889C61C831C220A654331F5E00342FD542
:102C50001CF587474624B07AC65D6D04C248206CD7
:102C600008B2C6206B0CA206218910924621E88189
:102C7000501E08E581E048A4F7E13A003525D51C4F
:102C8000F587D3EE788744BAB8144B0D9152CE38FD
:102C900044924867C621861C624E38A7A5D5CC87CA
:102CA000073635D51CF587FBC5A5B59209059522D4
:102CB00012892352C1A8861A32A39C52C8A10C398A
:102CC000C490430C39C4904319724821A98892D604
:102CD0004AAE7C7801003721D51CF587D3EE787198
:102CE000441247A4E288248E48C511A93822054918
:102CF000A42089E4C323003839D51CF587F3A6291D
:102D0000C552110591520E31E410430E31041142A7
:102D1000521164298618094511421031141A86206F
:102D20005208228520528A21C708839852CD7C7888
:102D30003935D51CF587F3C5A5B592092591420E05
:102D400031E450861C62C821861C624A29A70C7394
:102D50001C6ACA0412A9382249A2905482416CA567
:102D6000663E3C01003A16D51CF587FF1A81E659EC
:102D7000907C788940F32C483EDC023B1CD51CF546
:102D800087FF1A81E659907C7869C402CD33B0443C
:102D900012A748E29881013C1BD51CF5879F0A7257
:102DA000C0E20EBBE70A34F08206DE6089648A0F57
:102DB0000F023D1BD51CF587BFFD80200F08F28058
:102DC000F830F880200F08F280F8F02F023E19D575
:102DD0001CF5872F073A6481E8E17B5633EDB03B61
:102DE000671E89E2C3073F25D51CF58753A529C572
:102DF0009011E6104390400405442205092CAF824F
:102E000054A43E240934CF82E4C3034043D51CF5C7
:102E100087FBA629C59011E55085A4518641641011
:102E2000350659630C23C818A210328620858C21E0
:102E30004821630842CA18A304338860648C45C8DB
:102E4000288110224B3C8224A6163B1FAE0341383A
:102E5000D51CF58717C21C728A051668DC08C38D5D
:102E6000301A09848D31D818449141D4284331D483
:102E7000903BE310430E312311421221449131164D
:102E80001164910F9701423AD51CF587CB4B35E47D
:102E90000E21C790530A41A410440A41A490430C48
:102EA00021C7B8D3D033E49442102924114212210F
:102EB0002411421221049142CA29CFB8C33E9C0773
:102EC000432AD51CF587FBA6A9D4CE11C614434AC4
:102ED000418490240C8124D24F92486241E21443F1
:102EE000CC11E634A59AF9701E00443ED51CF58736
:102EF000CB4B35E40E21C710530C39A510440A41C1
:102F0000A490440849849044084984904408498422
:102F100090440849A310440A41A490430C31C510C1
:102F2000624E432CA90F2F004522D51CF587CB0FED
:102F300084F240280F8442227DD11DEF9048BFF8D3
:102F400040280F84F240F8701A004616D51CF58709
:102F5000D3CF7C8644FA62431D2291FEFBF00C0025
:102F60004732D51CF587FBC525D58E19E55085A0C0
:102F700061480A67447A051152102105119208210F
:102F800089148248218818728839C21C97143B1F03
:102F9000CE034846D51CF587CB04914210290491F5
:102FA00042102904914210290491421029049142AF
:102FB00010290F84F240280F8442102904914210F6
:102FC00029049142102904914210290491421029A8
:102FD00004914210F9701A004913D51CF587D30DDE
:102FE000758D44FAFFC71AEA3E1C074A1CD51CF52A
:102FF00087EB2C718D44FAFF5430240D525011454B
:10300000AD955CF9F006004B40D51CF587C304155F
:10301000421029E410431D5208228424328822A23F
:103020002812CA4A0CB5C41223822C328822A32447
:10303000424822852052CA21A618728821A71482EC
:103040000A21897C380D004C11D51CF587CB24D280
:10305000FFFFC567BE0FB7014D4ED51CF587C36393
:103060000D4212212411524E21E514628A21A61824
:1030700072C621671C42C2140821610A84105104DF
:10308000214414410819631042C61884101208958F
:10309000082189109208218910920821891092082C
:1030A00021897C380D004E4DD51CF587CB0491420B
:1030B0001029E590520E29C690720A29A79082081D
:1030C00029240C420A09649042C418A41041153204
:1030D0008620850C12482164045208418594538847
:1030E00031851853C829859C520822852052481AD8
:1030F0001F4E034F3BD51CF587F3A629C59011E65B
:1031000010432152082284283288228328328822C0
:1031100083283288228328328822832842861A858F
:1031200020520822863A4618C4946AE6C3035029FE
:10313000D51CF587CB2C35E40E29C690530A41A443
:1031400010440A41A410440A39A59062CC33EEB071
:103150004422FDFBF00E005143D51CF587F3A62950
:10316000C59011E610530A41A41044CA506410459A
:103170000651641045065164104506516410450619
:10318000516410450841A410440C3115298829D5F3
:103190000E1C92C4D4903B1F3800523ED51CF587BC
:1031A000CB2C35E40E21C790530A41A410440A41A8
:1031B000A410440A39C490628C3B0DB14408498480
:1031C00090440A41A410440C39C414430E31E494D1
:1031D00042102904950F97015330D51CF587FBA6A3
:1031E000A9D49011C614330E41E29048248906A256
:1031F00087DE8127124922314191221429039172DD
:10320000C4310E31763E9C075416D51CF587C30F8A
:1032100008F280200F884522FDFFDF871700554206
:10322000D51CF587CB2411421221241142122124EE
:10323000114212212411421221241142122124117F
:10324000421221241142122124114212212411423E
:1032500012210495420E316698D3D262E7C37900F9
:10326000563BD51CF587C34491411419448D421037
:1032700029041133D038E48C430C41C38C44CA4830
:10328000841035C858648C450461438C46C268C8B4
:1032900099674112891C527C7802005752D51CF55F
:1032A00087BB848D31D818A38832C628838C41C847
:1032B00034283206354619A38851C6286294218CD9
:1032C000188504234621615648106284618C184198
:1032D0001C23CC31A39C42CA29A49C420A1A66A48E
:1032E00061461A66A4614612487C380E005839D5EA
:1032F0001CF587C32491421031D421662442482210
:10330000642C22C8228134E4CC3390C0028D430D5A
:103310003122C822822842482284206228440A415D
:103320008410453E5C065929D51CF587C34491415C
:1033300012290491420E65C8218524424822642C3A
:1033400022C8226234D4CE33AF44FAEFC30B005A02
:103350002ED51CF587CB0F84F240280F044822811C
:10336000542490C411092491402A1248E2880492FE
:103370003858200F08F280200F880F97015B14D572
:103380001CF5873B2C718944FAFFFF224BDC870A2E
:10339000005C2BD51CF587BD118924914812892426
:1033A00091481289249148128924914812891C92CB
:1033B000C8214924924422870C1F0E015D12D51C9E
:1033C000F5872B0D7591FEFF7FA8F72103005E2086
:1033D000D51CF5871784249140E3501B813022C807
:1033E0001A642842082266A870C287FF87015F130B
:1033F000D51CF587FFFF671F18E381311E181F1AC0
:1034000000601AD51CF5873B818A29E690249258E2
:10341000C112899CE690E2C3FF4100612AD51CF5E8
:10342000877FE1B0951A2AC2A48048A4123BCE3C03
:10343000530C290491424E29C498620432EFB854C7
:1034400006F9701A006233D51CF5872324D24F1475
:10345000D5903B4718530C754A218814824821881F
:103460001482482188148248218798628831C318C1
:10347000774648688CF2E1016321D51CF5877FC24D
:1034800034A51832C2986228240C89F42489E508EE
:103490007444412DA9663E9C076435D51CF587838D
:1034A00024D2A78A20A81D678C38869852082285C6
:1034B0002052082285205208228520520822A51C6D
:1034C000628829C688731C6AAA08F2E13400652C58
:1034D000D51CF5877FC134A5582AC21C62C819883B
:1034E000148248792094074279201412492C91A023
:1034F000908C30A7A5D5CC87F300661CD51CF5872A
:1035000063A629C552110511231289546BA863249F
:10351000D2FFFBF006006736D51CF587BF5FC838C1
:10352000AF3C100A21E510331031E410430E290599
:10353000155112534AA54562810EB9F30A41849090
:10354000440849849C61CC3B6CA10E006836D51CB4
:10355000F5872B24D26F94440242EEA0508E29C4EA
:1035600014431D62C821861C62C821861C62C821C2
:10357000861C62C821861C62C821861C62C8211F65
:103580004E036919D51CF587534312582289E383EA
:103590008C1A16E9FF1A4BDC87E3006A1FD51CF56D
:1035A0008773231658C5F181554B8BF4FF53C19097
:1035B000244A414594B45672E6036B35D51CF58711
:1035C0002324D2EF94424C31A49443484164944460
:1035D0000459241096B112C8228328324A22A4200A
:1035E00052CA21861C628A21A71482CA87CB006C2A
:1035F00012D51CF5872B896591FEFFC7DCF13EDCF7
:10360000066D1DD51CF5873F4D0219A43C20C8034B
:103610006394604219F4FFFFFFFFDF87CB006E3534
:10362000D51CF587BF4D46492420E40E0AE5984293
:103630004C31D421861C62C821861C62C821861C9C
:1036400062C821861C62C821861C62C821861CF2C1
:10365000E136006F30D51CF5877FC1B4B41832C194
:103660009C528A218714920821891092082189107E
:103670009208218914728829861C134C622AB9F297
:10368000E105007034D51CF587BF4D44510DB97369
:103690008431C550A7148248218814824821881497
:1036A00082482188147288298698238C71A7212248
:1036B0008A2291DE0705007132D51CF587BF5F04B1
:1036C00041ED3863C431C494421029049142102959
:1036D00004914210290491421031E410434C3146C8
:1036E0009CE350534590485F06721CD51CF587BF7C
:1036F0004E464924A4F34C0AE418234E810592480F
:10370000FF7D7805007328D51CF5877FE1B095DA39
:1037100031E21872C62128A012CF530E41138B112B
:103720008998814839C21C87D8421FCE03741DD5A1
:103730001CF58757492471C8A9B9E32D12E9BF22A6
:10374000940964AD959AF9701C007535D51CF58700
:10375000BF4D0E31E410430E31E410430E31E4103E
:10376000430E31E410430E31E410430E31E41043B4
:103770000E31A59463C2390E355504F9701B0076DD
:1037800030D51CF5873F5DD228248D421031038D42
:1037900043CE38C41044CA48A40C35C858648C457C
:1037A0000461248C869C79E69548E2F8F004007761
:1037B00043D51CF587BF4C16196391318A20640CE0
:1037C00042066D0C420619A38C51C428431831CA15
:1037D00010468C428208438C428210230C63843949
:1037E00046985386398594534841849034CCF87078
:1037F0001C00782FD51CF587BF4D1029C590430AB2
:103800004984104504592490769E790516681C62F7
:1038100044104506518410440C315521887C380DE4
:10382000007939D51CF587BF4D1221049142103122
:10383000E41043CE40C31044CA508310450651647F
:103840000C460261240C37C270E715582089D40A4F
:1038500084AC21CA4A0CBDF2C1007A1DD51CF58783
:103860003FFECC07E9607915A4C1F2CA7B2094071A
:103870004279207C380D007B21D51CF587270E4B23
:103880004B29F348A40F12775C812616392489F45A
:103890008B059EA7586A28037C0ED51CF5875324F8
:1038A000D2FFFFFFE7017D1FD51CF587D3C725A6F3
:1038B000609124D227493CCF72E591487FB038B35C
:1038C000D44A0C7D007E17D51CF5877FF314515622
:1038D00028E301510641AE7CF87F0200A00BD51C05
:1038E000F587FFFF7F1700A118D51CF58753049AB1
:1038F0006783E40334E414E91FAC17C7872700A2E9
:1039000040D51CF58737482471C8018B4BAA9D12FE
:103910009029828461C818231842C6088690A1089D
:10392000198A90A1C8208A0CA2C8188C8841C22983
:10393000610C815028A8A5C58E1B72F6610100A3F9
:103940002BD51CF587FBC5A5B592092495121489C2
:10395000144C2C73449248174724F098605618E58D
:1039600001418A5025A0F2E13800A429D51CF58731
:103970008F8B24CE3B2DAD540649E30C34CE40E36F
:103980000C440A492594D4CE334314314E50E2C33B
:10399000BF0900A52FD51CF587C344114210290487
:1039A00011431D624622842442C6228230124643BD
:1039B000CE3C030973C7632412E68EC748A43EBCFD
:1039C0000000A611D51CF5875324D2FFF7012791DB
:1039D000FE9F07A73AD51CF5874BA629C55211E6CD
:1039E00010331031229158A281A82935C4418498FE
:1039F000430C39C4906308414CA986A08925122440
:103A00000E39C3147344414DA9663EE401A818D58C
:103A10001CF587C541862AA2A4224A2AA2A841C62B
:103A200087FFFF1500A948D51CF5875F284E29861A
:103A3000482986041308210105324650618811087F
:103A40001961881146196284498D30A9112635C241
:103A500008848831C2105418630415C61802054240
:103A6000C620829462C8694A35F3E13C00AA25D594
:103A70001CF587F3C621A698208385421A5A4AADC1
:103A8000440849A3904446494C2D96BA3BDE87BF73
:103A90000E00AB2ED51CF587FF5A30810D32541124
:103AA00024154112192491411219441551541145FC
:103AB00015515411451541D6208305133E7C08004D
:103AC000AC10D51CF587FF4BEE7891DE873F0400E4
:103AD000AD0ED51CF587FFCD67BE0FFF9700AE4733
:103AE000D51CF5875F284E29864829460942464855
:103AF000810C21C61862464618621A448C30441A5A
:103B0000230C91C608432032C210131981843186D8
:103B1000186384318618E390430822C50C739A52C7
:103B2000CD7C380F00AF0ED51CF587E34B6D1FFE23
:103B3000FF4700B01CD51CF587F3A625A654112518
:103B4000114212212415519462C8950FFF1F04B130
:103B500020D51CF5876F91486F3D20C803823C201B
:103B60001489F4FBC03E20C803823C203E5C06B2B0
:103B70001ED51CF5874BC5A5B51419448D32E488B4
:103B80000492573D02096489FBF0BF0A00B321D5B6
:103B90001CF5874BC5A5B5D620430E779C794712F7
:103BA000399430231142D25AC9950FFFCB00B41477
:103BB000D51CF58789304924B0402A8E293EFCFF68
:103BC000EB00B53BD51CF5873F4D0E31E410430E9D
:103BD00031E410430E31E410430E31E410430E3152
:103BE000E410430E31E410430E31A51421C4094BF7
:103BF0003C40C4124650641012E97D6000B64CD5BA
:103C00001CF5874B0BB5E38C12A32C31CA12A32CE5
:103C100031CA12A32C318C12C328314E1203213128
:103C20009411831131181183113118118311311836
:103C300011831131181183113118118311311811A9
:103C40008311311811E3431900B711D51CF587FF13
:103C50000D02CDB320F9F0BF0C00B813D51CF587C9
:103C6000FFFFF7C524B1B031064BAE2000B913D524
:103C70001CF5875B031677B930869CFF3EFC2F034B
:103C8000BA2AD51CF587FBC521A6D620241142D21D
:103C900030230D33D230230D33D2282411429462C5
:103CA000E8910F843BDE87BF0E00BB2ED51CF58745
:103CB000FF5230810D321611651151161964914170
:103CC000161924155150110515515011251151D4B3
:103CD000208305133E7C0C00BC4ED51CF587BD81AE
:103CE000C2296810830609629C81C61968188286F9
:103CF0001969149246196A10A206196B0C1247240E
:103D0000714412472464A841482284A4414A1A43BA
:103D10008481C61861A021A643823243A842D040C4
:103D2000210D393EA401BD4DD51CF587BD81C229A9
:103D30006810730809629C818621689891861969C8
:103D400094A146196A10A206196B0C1247247144FB
:103D5000124724A2A8214E1A6108728610649C8121
:103D60008619689CE99042D028049132942889A54C
:103D70000F6100BE4FD51CF587B9F25019458C5123
:103D8000861A841C43C831832C228809658871C433
:103D90002081982406428128324624714412472407
:103DA0007190A108196A1092C828690C83C8106123
:103DB000A0318418680855C65065A081041A727C29
:103DC0004803BF28D51CF5874B049A6741F20127A9
:103DD000918204965741020B249142011124103123
:103DE000E498701053AA950F2F00C03ED51C3517CC
:103DF000B23C04CB141F9C30879C6281051A37C2E9
:103E000070238C460261630C360651641035CA502B
:103E10000C35E4CE38C49043CC48849044085164B7
:103E20008C450459E4C36500C13FD51CF5074140EA
:103E3000D35033507CB0C21C728A051668DC08C3AC
:103E40008D301A09848D31D818449141D4284331DA
:103E5000D4903BE310430E3123114212214491319F
:103E6000161164910F9701C243D51C750A7344D390
:103E7000D22AA12832C80A46C030879C6281051A1E
:103E800037C270238C460261630C360651641035CC
:103E9000CA500C35E4CE38C49043CC4884904408D2
:103EA00051648C450459E4C36500C342D51CB52157
:103EB0000F8971DC2101A940CA073ACC21A75860BB
:103EC00081C68D30DC08A39140D818838D41141928
:103ED000448D3214430DB9330E31E41033122124D2
:103EE0001142141963114116F9701900C43FD51C11
:103EF000751E64A8224A2AA2A4228A1A647C50C48D
:103F000094248924966739D486186D08B288206B6A
:103F100090B1062189A586DA21861CCA0C440A497B
:103F2000A30C4506516490453E5C06C543D51C353F
:103F30001AB1BC218413433831841B61BC12879CA5
:103F4000C5020B346E84E146186E04C2C6186C0CB0
:103F5000A2C8206A94A1186AC89D71882187188216
:103F600048198910A206218A8CB1C887CB00C639AE
:103F7000D51CF587F32C31D4D071A7A13602692363
:103F800010460261431036443244243346326310F3
:103F90004506515B6289109246218814824851621D
:103FA000182586511F2E03C731D51CF587FBC52563
:103FB000D5CE11C614434A418490240C8124D24F9B
:103FC00092486241E21443CC11E634A59A89629288
:103FD00058D8188325573A00C826D51CB521D1C01A
:103FE00003090DFF81501E08E5815048A42FBAE354
:103FF0001D12E9171F08E581501E081F1E04C9265F
:10400000D51CB522EF30E4C807F781501E08E581C2
:104010005048A42FBAE31D12E9171F08E581501E6E
:10402000081F1E04CA2DD51CB50A9240E3D02A826F
:10403000AC41C60A27A4074279209407422191BEC9
:10404000E88E7748A45F7C2094074279207C380D65
:1040500000CB2DD51C751E65A4320A2AA3A0324AB6
:104060001A65F4074279209407422191BEE88E77C1
:1040700048A45F7C2094074279207C380D00CC1B3B
:10408000D51CF5099344034F1C347C101AEA1A8995
:10409000F4FF8F35D47D380E00CD18D51CF51AEFFE
:1040A000B4E3C807B8A1AE9148FFFF5843DD8727A6
:1040B00001CE1ED51C75129240D3D22A822842C648
:1040C0000A27A886BA4622FDFF630D751F8E03CF0F
:1040D0001ED51C751E65A4320A2AA3A0324A1A6591
:1040E000F886BA4622FDFF630D751F8E03D03BD5BF
:1040F0001CF587D36AB1D41019E790520E31C590E0
:10410000430C39C410440A4164A442462A64A442C0
:104110002152082285A061C821861C62A8434A3921
:104120006418D4D052EAC303D157D51CB521F08806
:10413000811A22E1A840CA079320520822A51C52E6
:10414000CA21C518524E21E51452102185844148D8
:1041500021810C528818831422A842C610A49041D1
:104160000229848C400A21A890720A31A610630AA1
:1041700039A590530A41A410440A49E3C36900D207
:1041800041D51C3517B2C003CB141F14D39462C899
:10419000087388A11029041142141944914114197B
:1041A00044914114194491411419449141142143FB
:1041B0008D4210290411431D230C624A35F3E1019D
:1041C000D342D51CF50761C0E28E2B507C904C5336
:1041D0008A2123CC218642A410440851641045064C
:1041E000516410450651641045065164104506514E
:1041F000840C350A41A410440C758C308829D5CC28
:104200008707D444D51C75129240E3922AA2A84194
:10421000C614CD34A51832C21C6228440A41841049
:104220004506516410450651641045065164104519
:104230000651641045C850A310440A41C450C70831
:10424000839852CD7C78D544D51CB52924A414C6B6
:1042500071688803C907D834A51832C21C62284483
:104260000A41841045065164104506516410450604
:10427000516410450651641045C850A310440A41CA
:10428000C450C708839852CD7C78D647D51C751981
:1042900064A8224A2AA2A4228A1A647C804D538AE6
:1042A0002123CC218642A4104408516410450651B4
:1042B000641045065164104506516410450651844A
:1042C0000C350A41A410440C758C308829D5CC8754
:1042D00007D729D51CF587DF0C731C8188218890AE
:1042E0009288282BB5F3CA330EB112882AA2A042B5
:1042F0000A1A86A480C487BF0400D84DD51CF58750
:10430000F130493262A076DA31C21C6228630A3188
:10431000861033C220C408410629439041C81814AE
:1043200019831A839041C6206410310A19448C42C3
:104330000609C38C720A29C610530A394698D3213C
:10434000224A22537C1807D948D51CF50974440326
:104350004F1C347C92082189109208218910920800
:104360002189109208218910920821891092082130
:1043700089109208218910920821891092082189B8
:1043800010824A21871833CC6969B1F3E13C00DA25
:1043900048D51CF51AEFB4E3880C1F109208218948
:1043A0001092082189109208218910920821891001
:1043B000920821891092082189109208218910926F
:1043C000082189109208218910824A21871833CC4C
:1043D0006969B1F3E15100DB4CD51C751AB1BCD34E
:1043E000922AA2A851C60C8824424822842442481A
:1043F000228424424822842442482284244248229F
:10440000842442482284244248228424424822842C
:104410002442482284A052C821C60C735A5AEC7C0C
:10442000380F00DC4DD51C7599521905955150195E
:10443000258D323E90241142122124114212212452
:10444000114212212411421221241142122124115D
:10445000421221241142122124114212212411421C
:1044600012210495420E316698D3D262E7C37900D7
:10447000DD30D51C350B923CD3CE23317C408822D5
:104480008324520822851CCA90430A49849044C858
:1044900058449045C468A89D675E89F4DF8717007B
:1044A000DE29D51CF587CB24D2C586DC79869862B7
:1044B000082285205208228520520822851C629EEF
:1044C00071A72112E97D780700DF46D51CF5874BDF
:1044D000C5A5B592110591520C39C490430C39C44D
:1044E00010530C29E5107110110711910C31A61011
:1044F000440A418590440849849044084984104402
:104500000A11429842823224A44384F9701E00E0CA
:1045100034D51CF5877E9823964824894412193E89
:104520003087ADD450112605442295D871E69962A2
:1045300048218814724A21C614239079C7A532C82D
:1045400087D300E133D51CF5870931472CAF402ACA
:1045500092193E3887ADD450112605442295D87162
:10456000E6996248218814724A21C614239079C7BB
:10457000A532C887D300E239D51CF5870521472C21
:10458000EFB8110823812C32080B457C300E5BA953
:10459000A1224C0A88442AB1E3CC33C590421029A9
:1045A000E494428C294620F38E4B65900FA701E3DB
:1045B00034D51CF587C9F29018C7A1218E0AA47CB6
:1045C000A81DB6524345981410895462C799678A4A
:1045D00021852052C8298518538C40E61D97CA2092
:1045E0001F4E03E437D51CF5873BA38C5446416529
:1045F00014544649A38C0FEE614A35548449019105
:104600004825769C79A618520822859C528831C587
:104610000864DE71A90CF2E13400E537D51CF5879A
:10462000FE80E609319C18C209319C89E3837DD85C
:104630004A0D156152402452891D679E29861482B5
:104640004821A714624C310299775C2A837C380D8B
:1046500000E63CD51CF5873F4F08392898F28020AA
:1046600024A0304A28840C45C850848CF240200F86
:1046700088F1C01065904408498490444821611431
:1046800071C4180F0C72C431A5900FA701E72AD589
:104690001CF5877FC234A5DA31E29472862148186E
:1046A00012E94912CB11E888825A5AEC4031492C60
:1046B0004D10C192331C00E836D51CF5877E982337
:1046C000964824894412193E30A629C55211E61095
:1046D00043CE40A41044CA03A13C10CA03A1904891
:1046E000628904856484392DAD663E9C07E935D521
:1046F0001CF5878940472CAF402A12293E38A6294D
:10470000C55211E61043CE40A41044CA03A13C1088
:10471000CA03A19048628904856484392DAD663E40
:104720009C07EA3AD51CF587BE982396771A6A4308
:104730009045065982880F88694AB1548439C490DB
:104740003310290491F240280F84F2402824925813
:1047500022412119614E4BAB990FE701EB38D51C73
:10476000F5873BA38C5446416514544649A38C0FEE
:10477000AE694AB1544639E44C69149246792094A2
:1047800007427920141289249120818C30A729D5E1
:10479000CC87F300EC1CD51CF587908824569148F3
:1047A00012C70C1F14D4B048FFD758E23E3C090092
:1047B000ED1BD51CF58798902412486081248E0F3C
:1047C000326A58A4FF6B2C711F9E04EE20D51CF595
:1047D000877E984312681C622410360661A1880FF8
:1047E000026A58A4FF6B2C711F8E03EF1FD51CF5B6
:1047F000873B830C5544494594544451838C0F2A7C
:104800006A58A4FF6B2C711F8E03F039D51CF587F5
:10481000C9010F094CB184D6526B0C22094B8AA1F5
:10482000768C30A62AE4144212212411421221244B
:10483000114212212491420E31C5906382494CA944
:10484000663E3CF140D51CF587C5F2CE10A821127A
:10485000500AA57C289151120908B9834239A61043
:10486000530C7588218718728821871872882187D0
:104870001872882187187288218718728821877C8E
:10488000B80D00F239D51CF587BC9023569148121B
:10489000890C1F1CD3D262C804734A29861C524853
:1048A0002284244248228424424822842452C8215B
:1048B000A618724C3089A9E4CA871700F339D51CB1
:1048C000F5870531472C90820592193E40A6A5C573
:1048D0009009E694520C39A4904408498490440805
:1048E000498490440849A490434C31E498601253A1
:1048F000C9950F2F00F43FD51CF587BE90239677FE
:10490000DC0884914016198485223E20A6A5C59016
:1049100009E694520C39A49044084984904408490B
:104920008490440849A490434C31E498601253C9E0
:10493000950F2F00F539D51CF587C5F29010C89D4D
:1049400031CE2B1F72A6A5C59009E694520C39A44E
:104950009044084984904408498490440849A490AC
:10496000434C31E498601253C9950F2F00F63DD5A2
:104970001CF58733A38C5446416514544649A38CD7
:104980000FB0696931648239A514430E292411429C
:10499000122124114212212411421229E410530C35
:1049A000392698C45472E5C30B00F71AD51CF58755
:1049B0001F16924422C507F799EF434E48128914F7
:1049C0001F7E1700F83FD51CF587DF1693ACA45661
:1049D00062C80473CA3886901146216408420819D7
:1049E000821032C620840832082162102A1042CA7E
:1049F0000883106348392698C4D052239445A4F8FC
:104A0000300E00F93FD51CF5879288251249229176
:104A1000448A193E10E410430E31E410430E31E491
:104A200010430E31E410430E31E410430E31E41014
:104A3000430E31E410534A39269CE3505345900FFE
:104A40002F02FA3CD51CF587969804164893E38309
:104A50004B0E31E410430E31E410430E31E41043A9
:104A60000E31E410430E31E410430E31E410430ED6
:104A700031A59463C2390E355504F9F02200FB4389
:104A8000D51CF587BE90041668DC08841131D8184F
:104A90008485123E39C490430C39C490430C39C408
:104AA00090430C39C490430C39C490430C39C490E2
:104AB000430C39C494528E09E738D45411E4C36DC1
:104AC00000FC42D51CF58733A38C54464165145431
:104AD0004649A38C0F2639C490430C39C490430C2B
:104AE00039C490430C39C490430C39C490430C39F9
:104AF000C490430C39C494528E09E738D45411E45D
:104B0000C36D00FD43D51CF5879890241248608141
:104B1000248E0F2E498410440A41C490430C39035B
:104B20000D431029430D4214194491311809849101
:104B300030DC08C39D57608124522B10B286282B8D
:104B400031F4CA071800FE35D51CF5872324D24F4F
:104B500014D5903B4718530C754A2188148248217C
:104B6000881482482188148248218798628839C233
:104B700018771A22A22812E97D5000FF48D51CF5AB
:104B8000873B830C5544494594544451838C0F26EC
:104B900049A310440C39C49033D0300491421029F9
:104BA000430D421419648D311809A48D30DC08C3FB
:104BB0009D576089438E489620838D505662E895B4
:104BC0000F060000000004FFFF00001202050405AC
:104BD00006010406182700F81EF81EF70000000062
:104BE000030A200BF80CF887FFFFFFCF002A31F8EB
:104BF0000CF8870F964928D582216D1052443182D6
:104C00008C421E28E481729C331141F48820AD88C7
:104C1000B20A29A998828A2969A0F1E19F032B1B76
:104C2000F80CF88777CBAC6F3D50C803853C50C873
:104C3000038595597F1FFE49002C18F80CF887FF53
:104C4000FF6B641A79E225CD2C935032293A6C70AF
:104C5000002D16F80CF887FFFA03C33C30CC03C3D1
:104C60003C303EFCFF2D002E12F80CF887FFFF733E
:104C7000831679E2250B1D1F1E2F2FF80C781C952B
:104C8000CC32C9AC64994596596499459659269990
:104C900065925926996592592699952CB3C8328BFD
:104CA0002CB34C62C5876700304DF80CF807DAC4A6
:104CB000D4D872CA08938A29A89872CA31A61C63EC
:104CC000C839A598444A21A190528628A410220AE6
:104CD00029838C42CA18A412A31452022985245392
:104CE000CA39A598538C39B5634A496698E4167356
:104CF00029960FDF033119F80CF8079C48039153EC
:104D00008CB5124A13A4CCFAFFFF3E7C0F00322F61
:104D1000F80CF807DA40C59A7AA990732A345249F8
:104D20002195599B641659A489562CB2DE24B3C828
:104D30000786796098078679607CF812003336F828
:104D40000CF807DA40C55C7A2024528C12A7D032C6
:104D5000CB24B344D3944B4FB925CF2CB4CC5A0AAF
:104D6000A920910A1AA7A042CE792024C7D63B1FBA
:104D7000BE07003435F80CF8079FCC4A9A7841F406
:104D80009223A138124A23A230320A23A32C428A4A
:104D900022A528524A22A6A0070A79A090070A79DC
:104DA000A0BC32EBF7E163003538F80CF807F501E9
:104DB000711E10E701711E10A7CCBAC998532F3D80
:104DC000109021069163524885125A660D0545CE12
:104DD00048C59463CC21063D10925BEB9D0FDF0329
:104DE0003642F80CF807DC40C59A7AE81092CA11EE
:104DF000A9CC32C92CC2AC971E08E80171D030C7CB
:104E00009C620A2AA624624A2AA5A4524A2AA5A478
:104E1000624822A73AC6146486514EB5A6A0F9F09E
:104E20003900372DF80CF807F481611E18E681610E
:104E30001E18B2CC22CB2CB2CC32C9AC649965928C
:104E400059C932CB24B3926556B2CCEAC337013884
:104E500040F80CF807DB40C59A7AC90C938A29A759
:104E60003E540C49A514654461CB25B758112795CC
:104E7000525039E590444C49A594544A49A594545C
:104E80008A39C69862CE032139B6DEF9F039003985
:104E900041F80CF807DA40D5D872C910838A29A7DF
:104EA000A0620A2AA624624A22A624624A2AA61CD2
:104EB000630C41E701711E102985B28C20949A552C
:104EC0000AA8A4614C22C424A71A5BD07CF8200055
:104ED0003A1AF80CF8873F3D6891275EB2D0F1E1AD
:104EE000DB831679E2250B1D1F1E00000004FFFF67
:104EF0000000ED0203020405010305081000FC0A8E
:104F0000FD0A0001E6041B0C87200808039FFFFF31
:104F100004211008039FAA0EE1100EA96CC7659D1D
:104F200007220B08031FF25B94F37F062317080385
:104F30009F51D114691822455334451A8648D1141B
:104F40009D3300241608034F16074953C4441F74A9
:104F50005909154D1A5459A702250E08039FA39805
:104F600068AA6F4AA87305261108039F382A9A2257
:104F70005E2C93DF169D2B00270B08031F93AD3A81
:104F8000FF4F00280B08039FAC9A7DB77306290BCF
:104F900008039FA89B7DB5F3022A1008039F674969
:104FA0001BA26190864CD2F9012B0D08039F2FB2F2
:104FB000388CB2CE4F002C0A08039FFF2A5B750E77
:104FC0002D0B08039FDF8721E79F002E0908039F11
:104FD000FFD9CE032F0B08039FB758F539E71130DF
:104FE0001508039F382A92A6688A9258129BA249F4
:104FF0008AB8F300310D08039FAA8E43ECC761E71E
:105000000A321008039F36489AACFAAC29C3907351
:1050100005331108039F36489A6C1B72D9A2498345
:10502000CE19341208039FAC8E43A648A66148658A
:10503000EB907305351108039F340C896C1E76D9EB
:10504000A24983CE19361308039F38AAB23C4C9A62
:10505000A2299AA24983CE19370E08039F340C89DE
:10506000265B9DDD7901381608039F36489AA229F0
:105070009A34489AA2299AA24983CE193912080370
:105080009F36489AA2299A34CCAEDA90F3003A0CB3
:1050900008039FBBAC739275BE003B0D08039FBB1A
:1050A000AC7392559D17003C0B08039F8BEADD3BC8
:1050B00057003D0C08039FE761270E3B7F013E0B25
:1050C00008039F51F7EA9D27003F0F08039F3648CA
:1050D0009AA2A9663B2EEB3C401708039F719034BF
:1050E00045539421518644191265D2079D330041DE
:1050F0001608039F1A8F8AA4299A320C89A6688AF7
:10510000A6683A5700421008039F346C924F8326DA
:10511000F9CBB07306431108039F3864922226B27C
:10512000C7C836E49C01440F08039F34888A26F9D7
:105130007F91069D07451508039F340C915BA4845D
:1051400043A884B216598621E70A461308039F3400
:105150000C915BA48443A884B275C87901471408F4
:10516000039F3864922226B265483445936C4BCE37
:1051700015481708039FA4299AA2299A320C89A6D8
:10518000688AA6688AA67305490D08039F38A4B2E9
:10519000BF0E3967004A0D08039F3AA4B227BF0D1E
:1051A000390F4B1208039F34F9451BC2215434C9EF
:1051B00065D2B9024C0F08039F34A4B2DF22CB3072
:1051C000E45C014D1708039FA4290F43320C899218
:1051D000D8144DD1144DD174AE004E1908039FA4BC
:1051E00029933224CA3024CA90488BA6688AA668BC
:1051F0003A57004F1608039F36489AA2299AA229C7
:105200009AA2299AA24983CE19501008039F346CA0
:10521000924F8326BB0E392F00511908039F364841
:105220009AA2299AA2299AA2294A6219A24196779A
:105230001A00521108039F346C924F83A668922F74
:1052400093CE15531308039F36489AA249FA6ED19C
:10525000144D1A74CE00541008039F364CC3942882
:10526000A1ECEB907306551608039FA4299AA22976
:105270009AA2299AA2299AA24983CE1956150803FF
:105280009FA4299AA2299AA2299AA2498A38E7BCFE
:1052900000571808039FA4299AA2299AA22496C409
:1052A0009228C3909C149D3300581508039FA4298D
:1052B0009AA46883B88E83A6489AA2E95C01590E25
:1052C00008039F26F9DB90CAAE43CE195A12080391
:1052D0009F340C89A684AA8F89A60C43CE155B0D3A
:1052E00008039F3884B23F0F3967005C0C08039FA6
:1052F0002D977FD673AE005D0C08039F38C4FE71F6
:10530000C839035E0C08032F1E1549D3F97F065FC9
:105310000B08039FFFCFC3A09300600A08034BD67E
:1053200075FE7F02610E08039FE721D706C96F8BC8
:10533000CE15621008039F349B8750D1247F1A74C6
:10534000CE00630F08039FE741D214D94D1A74CEE3
:1053500000640F08039F3A1B874C91FCDBA2730586
:10536000651108039FE741D2946148649B34E89C2F
:1053700001661108039F382A9A94A9432ABB0E3963
:105380002F00670F08039FE7C5E4BF0DB2641B72CF
:1053900010680F08039F34BB688BE45F269D2B00C9
:1053A000690D08039F2AEBF0ECEB9073066A0E0878
:1053B000039F2EEBF0EC276F438E016B1208039FC7
:1053C000343B59B4211C4245939449E70A6C0B08BD
:1053D000039F38FBD721E70C6D1408039FD7451AAC
:1053E0008644492C8925B124369D2B006E0C080378
:1053F0009F576593FCDFB9026F1208039FE741D204
:10540000144DD1144DD1A441E70C701008039F57DF
:105410006593FCA74193D5214701710F08039FE7CE
:10542000C5E4BF0DB275C82100720E08039F576511
:105430005B2467EB90F302731008039FE741D224CB
:105440007D973469D03903740E08039F1A1B875166
:10545000F622EE9C01750C08039F57C9FF6DD1B968
:1054600002760C08039F67C97F1B529D07771408BB
:10547000039F574DD11425B1249644198648D1393C
:1054800003780F08039F574D52C4F5A8489ACE15CC
:10549000791508039F574DD1144DD1144DD1A461F6
:1054A00056A54107017A1008039FD7614824D59B70
:1054B000320C3957007B0D08039F3CCAC65D76DF6E
:1054C000B9027C0B08039F2ABBE3B2771E7D0D084F
:1054D000039FB6CBF65176DC79017E0A08039FB6AE
:1054E0005876FE3F7F1208039F7B3C2A92A6688A6B
:1054F000A60C43CE3300A00808039FFFFF04A110B1
:1055000008039F2AEBB86C1DC2211C529D07A210F4
:1055100008031F94D52193CC4EDA90CA3A0FA312F8
:1055200008031F1B154DCAD421955D2765D8390383
:10553000A41408039FA3260D92A6688AA668D22009
:10554000693A5700A51008039F26B90DA9388CE2C7
:1055500030CA761EA60B08039F2ABBE3B2771EA7AC
:105560001608031F1A244DD24745D2144D52C45D6C
:10557000D2A4416705A80A08031FD174FEFF02A93F
:105580001508039F36486912296D492DA9259152A6
:105590008D069D0FAA1008031F1B324553C441C737
:1055A000869DFF06AB0F08039F7745522445544460
:1055B00045E707AC0B08039FCFC3107BE719AD0B82
:1055C00008039FDF8721E79F00AE1308039F36483B
:1055D000699248492F52D2BF4683CE07AF0A0803CB
:1055E0001F19069DFF3FB00C08031F1B154D1177B7
:1055F000FE1FB10F08039FBB2C0EA3AC538741E7DE
:1056000008B20E08031F1A15D5291B74FE2B00B310
:105610000E08031F19727197B521E73F03B40A08FA
:10562000031F75E7FF1300B50E08039FABE43F0DA2
:105630009AACEA9C00B61808039F365C9421518608
:10564000C432249AA2299AA2299AA27304B70A08FA
:10565000039F7FD4F91B00B80B08039FFFBB6DC8E5
:10566000A900B90C08031F5367D721E7BF02BA0F7F
:1056700008031F1B154D117774D0F98F00BB10085C
:10568000039F5745544445522445E72700BC14085E
:10569000031F918D89A648AA93222DD1900DB29D0A
:1056A00006BD1208031F918D89A648AA972954ADFB
:1056B000834E03BE1508031FD9552D5394457552CB
:1056C000A4254AB441B6D300BF1108039F28EBB804
:1056D000AC9A354593069D3300C01608035317E373
:1056E00051913445538621D1144DD1144DE70AC14F
:1056F00017080347D5A17854244DD1946148344507
:10570000533445D3B902C2180803679034311E15CB
:105710004953346518124DD1144DD174AE00C316DF
:10572000080367B1EC703C2A92A668CA30249AA29A
:10573000299ACE15C41608031FD174341E15495377
:10574000346518124DD1144DE70AC51608036B5481
:10575000C41D1E154953346518124DD1144DE70A66
:10576000C61108039F38488AE4691812C93FED5CE6
:1057700001C71408039F3864922226B263641B6237
:105780005D1A742200C81608034BD7C16188DC2259
:10579000251C4225D422CB30E45C01C91208034FFA
:1057A000B5C3C310390F9A6C528621E70ACA17088D
:1057B000036B54746C1822B74809875009B5C83276
:1057C0000C395700CB1708031FD174681822B7484B
:1057D00009875009B5C8320C395700CC0E08034B65
:1057E000D7E12195FD3AE49C01CD0E080353D5E1A4
:1057F0002195FD3AE49C01CE0F08036BC8241D1CC3
:1058000052D9AF43CE19CF0E08031FB283432AFBF0
:1058100075C83903D01208039F34888A26B90C89C9
:10582000E42FD2A0F300D119080367B1EC986552B8
:105830008644198644191269D1144DD174AE00D230
:105840001608034BD7D141D2144DD1144DD1144D6C
:10585000D1A441E70CD31608034FD5E141D2144D32
:10586000D1144DD1144DD1A441E70CD41708036BCA
:10587000547470903445533445533445533469D08F
:105880003903D517080367B1ECE020698AA6688A56
:10589000A6688AA668D2A07306D61708031FD1741B
:1058A0006C903445533445533445533469D03903EF
:1058B000D70F08039F574D52C47554244DE719D88C
:1058C0001908031FCE06495AA445492C8925B1243D
:1058D000CAA44CD2A0E59C00D91608034BD7414D71
:1058E000D1144DD1144DD1144DD1A441E70CDA1689
:1058F00008034FD5514DD1144DD1144DD1144DD174
:10590000A441E70CDB1608036B5474CCA2299AA2BD
:10591000299AA2299AA24983CE19DC1708031FD11C
:105920007448533445533445533445533469D0395E
:1059300003DD10080353D551C9DF8654B60E39670D
:1059400000DE1108039F34A4F2A049FE3468EA90F7
:10595000F302DF1308039F3664925F34C9A6688A96
:10596000A6483A6700E01008031FD2EDE8906B8369
:10597000E4B745E70AE11008031F54EDF8906B8384
:10598000E4B745E70AE21208031F8C474507875C26
:105990001B24BF2D3A5700E31108039FB6587670B9
:1059A000C8B541F2DBA27305E41008039F64A70E9B
:1059B000B936487E5B74AE00E51208031F1B1571F3
:1059C00047875C1B24BF2D3A5700E61208039F57F8
:1059D000495B34451A169B222A3B5700E7110803FE
:1059E0009FF39049669336C4BA36E4AC00E81308D6
:1059F000031FD2EDE82069CA3024B24D1A74CE00DC
:105A0000E91208031F75870749538621916DD2A0BB
:105A10007306EA1408031F8C47450707495386217C
:105A2000916DD2A07306EB1308039FA4E9C441D281
:105A3000946148649B34E89C01EC0D08031FD2ED8F
:105A4000F0ECEB907306ED0D08031F75C7675F87D9
:105A50009C3300EE0F08031F54874CD2C1D9D721C5
:105A6000E70CEF0D08039F26E9D4D9D721E70CF006
:105A70001108039FA8A46AA26B83E4DF869C33000D
:105A8000F10F08039FB658764CD924FF77AE00F289
:105A90001408031FD2EDE820698AA6688AA668D296
:105AA000A07306F31408031F54EDF820698AA66852
:105AB0008AA668D2A07306F41608031F8C47450710
:105AC000074953344553344593069D3300F5150873
:105AD000039FB6587670903445533445533469D09B
